:020000040800F2
:10000000600A002005010008972C0008FB1D00086D
:10001000952C0008130200080D39000800000000AC
:100020000000000000000000000000005D34000837
:100030001502000800000000913100086D3400082E
:100040001F0100081F0100081F0100087D33000880
:100050001F0100081F0100081F0100081F01000800
:100060001F0100081F0100081F0100081F010008F0
:100070001F0100081F0100081F0100081F010008E0
:100080001F0100081F0100081F0100081F010008D0
:100090001F0100081F0100081F0100081F010008C0
:1000A0001F0100081F0100081F0100081F010008B0
:1000B0001F0100081F0100081F010008091E000899
:1000C000FD1D00081F0100081F0100081F01000896
:1000D0001F0100083D3800081F010008F138000822
:1000E0001F0100082D3200081F010008DFF810D0A2
:1000F00000F06EF800480047E13D0008AFF30080D3
:10010000600A00200648804706480047FEE7FEE7F1
:10011000FEE7FEE7FEE7FEE7FEE7FEE7FEE7FEE7B7
:10012000B9350008ED000008202A04DB203A21FA46
:1001300002F00021704721FA02F3D040C2F1200200
:100140009140084319467047D2B201E000F8012BF4
:10015000491EFBD270470022F6E710B513460A4647
:1001600004461946FFF7F0FF204610BD2DE9F05F69
:100170000546002092469B46884606468146402416
:100180001BE02846414647462246FFF7CDFF53462F
:100190005A46C01A914110D311461846224600F023
:1001A00029F82D1A67EB01084F462246012000214D
:1001B00000F020F817EB00094E41201EA4F10104C5
:1001C000DFDC484631462A464346BDE8F09F000042
:1001D000064C074D06E0E06840F0010394E8070094
:1001E00098471034AC42F6D3FFF784FFFC42000876
:1001F0001C430008202A04DB203A00FA02F1002008
:1002000070479140C2F1200320FA03F31943904054
:100210007047FEE77047000010B500F0E7F90949A4
:100220008A68821A642A0BD3CA6864235A430B690A
:10023000B2FBF3F2C2F164020A700022C1E90202C9
:10024000087810BD38000020014880787047000011
:1002500038000020014880887047000038000020E6
:1002600070B50E4D00244FF48051284600F0ACF9D3
:1002700000B901244FF40051284600F0A5F908B94F
:1002800044F002044FF48041284600F09DF908B97B
:1002900044F0040402484470204670BD000C014044
:1002A0003800002070B50C4D00240221284600F0D3
:1002B0008BF900B901240421284600F085F908B91A
:1002C00044F002040821284600F07EF908B944F001
:1002D0000404204670BD00000008014010B590F8ED
:1002E00021100022022905D00421816380F82020FA
:1002F000012010BD01680B6823F00E030B6001683C
:100300000B6823F001030B6090F84030C46B0121AF
:1003100001FA03F3636080F8211080F82020104672
:1003200010BD000010B590F821100024022903D060
:100330000421816301243DE001680A6822F00E0275
:100340000A6001680A6822F001020A601A4A01681C
:10035000914201D1012121E0174A1432914201D189
:1003600010211BE0144A2832914201D1891515E071
:10037000114A3C32914201D189140FE00E4A5032A9
:10038000914202D14FF4803108E00B4A643291422D
:1003900002D14FF4801101E04FF08071064A083A13
:1003A0005160012180F82110002180F82010416B5C
:1003B00001B18847204610BD0800024090F8210096
:1003C0007047000070B5044600F010F90546601C47
:1003D00002D004480078044400F008F9401BA04211
:1003E000FAD370BD500000202DE9F84FDFF8B89126
:1003F0000024A9F1040B23460F2709F1040AABF1ED
:10040000040EC9E00125A5402A40AA427DD1674ECD
:10041000D1F804C0ACEB0608B44532D014DCBCF112
:10042000030F3AD009DCBCF1000F2AD0BCF1010F58
:100430001CD0BCF1020F31D11DE0BCF1110F17D05F
:10044000BCF1120F2AD119E0B8F5881F19D006DCCB
:10045000B8F5803F15D0B8F5801F1FD111E0B8F571
:10046000001F0ED0B8F5041F18D10AE0CB6815E0C4
:10047000CB681B1D12E0CB6808330FE0CB680C3350
:100480000CE08B682BB1012B4FF0080303D04561C2
:1004900004E0042302E0056100E00023FF2A01D804
:1004A000064601E000F104064FEA840501D9A5F1F2
:1004B0002005D6F8008007FA05FC28EA0C0803FAA4
:1004C00005F548EA0508C6F800804D68ED0062D5DC
:1004D000374DAE6946F00106AE61AD6924F0030602
:1004E00005F001050095334D06EB050CDCF80850CE
:1004F000A607360F07FA06F825EA0805DFF8B880E0
:10050000404503D14FF0000817E044E0DFF8AC802D
:10051000404502D14FF001080FE0DFF8A4804045CC
:1005200002D14FF0020808E0DFF89880404502D180
:100530004FF0030801E04FF0040808FA06F848EA13
:100540000508CCF808804D68D9F80060ED024D46EA
:1005500001D5164300E096432E604D68DAF800603E
:10056000AD02554601D5164300E096432E604D6816
:10057000DBF80060AD035D4601D5164300E096430D
:100580002E604D68DEF80060ED03754601D5164318
:1005900000E096432E60641C0D682A46E5407FF417
:1005A00031AFBDE8F88F00000804014000001110D1
:1005B000001002400000014000080140000C014012
:1005C00000100140001401408068084000D0012064
:1005D0007047C26821EA02030A4043EA024101610E
:1005E00070470AB1016170470904FBE70148806860
:1005F0007047000050000020704770472DE9F0411F
:10060000016804464A694E6890F83E000025D743C9
:10061000FA050BD4F243D20508D46FF48072012599
:100620004A6121680A6842F400420A60B90508D4A8
:10063000F143C90505D422686FF4007145F0020545
:100640005161790525D4F143C90522D4638D94F80D
:100650003D10226B202808D13BB9212910D029292F
:100660000ED0282901D1212A0AD022686FF4806196
:10067000516145F00405102806D0402804D008E058
:10068000204602F02DF804E02068016841F4007172
:100690000160380508D4F043C00505D421686FF423
:1006A000006045F008054861002D07D0206C284304
:1006B00020642046BDE8F04101F012BCBDE8F081A5
:1006C0002DE9F047026800215368C66A90F83E4061
:1006D00090F83D50102C12D0402C10D0046C002CFF
:1006E0007DD05469E443A6077AD4DE43B60577D4B7
:1006F000036C03B19169BDE8F04701F0CDBF976984
:1007000051694FF42A0CC9435FEAC1784FF02A4976
:1007100004D066452AD04E4528D010E0DE43B60509
:100720000DD4C16A614501D1012103E0C16A494587
:1007300001D10821C162BDE8F04701F013BF0E07E7
:1007400016D4DE43B60513D4416CC9B21161416BB6
:1007500009B1896A29B9816B002907D0896A002902
:1007600004D00068416841F400614160BDE8F08751
:100770008E0706D4DE43B60503D4BDE8F04701F08A
:1007800045BEFE43526876074FEA02521DD4002A46
:10079000ECDB0A0608D4DA43520505D4490705D52F
:1007A000BDE8F04701F0D6BD4907DFD4D94389053C
:1007B000DCD4212D05D0402CD8D1BDE8F04701F084
:1007C00017BFBDE8F04701F083BD002ACEDB4A0623
:1007D0000BD4DA43520508D4490708D501E00DE0EF
:1007E0000EE0BDE8F04701F0ABBC4907BED4D943E9
:1007F0008905BBD4BDE8F04701F035BC916970E7CD
:10080000E10606D4D943890503D4BDE8F04701F0D9
:10081000AFBF2821212D27D0292D25D0650655D4FD
:10082000DD436D0552D4640752D590F83D30448DB8
:10083000002C9BD01269446A2270426A521C4262A8
:10084000428D521E4285428D002A8FD12A2B8DD196
:100850000268536823F4806353602222026380F8A5
:100860003D1000F0E5F981E7250623D4DD436D0551
:1008700020D4640720D590F83D30448D002CF2D070
:10088000446A24781461426A521C4262428D521EAC
:100890004285428D002AE6D1292BE4D102685368B3
:1008A00023F4806353602122026380F83D1000F03E
:1008B000C0F95BE76107D6D4D9438905D3D4418D0C
:1008C0000029D0D0416A097811610AE06107CAD4D1
:1008D000D9438905C7D4418D0029C4D01169426A22
:1008E0001170416A491C4162418D491E41853DE7B5
:1008F0007047000070B5040025D094F83D00002535
:1009000020B984F83C50204600F054F9242084F8A3
:100910003D002068016821F0010101602068016844
:1009200041F4004101602068016821F40041016048
:1009300000F07CFB4D4A6168914201D84C4900E0CF
:100940004C49884201D2012070BD4B492368B0FB5D
:10095000F1F15E6826F03F060E435E6063689342E5
:1009600006D94FF4967359434FF47A73B1FBF3F100
:100970002368491C1E6A26F03F06314319626168EC
:10098000914210D84900401EB0FBF1F2521CC2F354
:100990000B02042A01D2042022E0B0FBF1F0401C3B
:1009A000C0F30B001CE0A268F2B301EBC10303EB40
:1009B0000116431EB3FBF6F35B1C43F480431B0597
:1009C00049D092B301EBC10202EB0111401EB0FB12
:1009D000F1F0401CC0F30B0040F4804040F40040B4
:1009E0002168CA694CF6FF739A431043C861D4E981
:1009F000071001432068026822F0C0021143016021
:100A0000D4E9030101432068826848F2FF339A4326
:100A100011438160D4E9050108432168CA6822F0C6
:100A2000FF021043C86001E00EE016E02068016894
:100A300041F0010101602564202084F83D00256318
:100A400084F83E50002070BD01EB4106431EB3FB0D
:100A5000F6F35B1CB3E70120C2E701EB4101401E46
:100A6000B0FBF1F0401CC0F30B00B7E7A08601001B
:100A700080841E0000093D0040420F00704770470F
:100A8000704700002DE9F84F1F4690468A460446FD
:100A9000DDF82890FFF7AAFD054694F83D002028D0
:100AA0007FD11923012240492046009501F03AFFE9
:100AB000002876D194F83C00012872D0012084F8F7
:100AC0003C0020680168C90703D1016841F00101B9
:100AD00001602068016821F400610160212084F830
:100AE0003D00102084F83E0000262664C4F82480CF
:100AF0006785608D20852D48E0622B464A46514629
:100B0000204601F097FB90B9206841698069009008
:100B100036E02A464946204601F0AAFF50B1206C33
:100B2000042804D12068016841F4007101600120AB
:100B3000BDE8F88F606A216800780861606A401C2F
:100B40006062618D491E6185218D491E89B22185B2
:100B500022685369DB435B070BD451B10078106105
:100B6000606A401C6062608D401E6085208D401E62
:100B700020852A464946204601F0A8FE0028CED10D
:100B8000208D0028C5D154F83D0B016841F4007157
:100B90000160202004F81E09E67766770020C7E789
:100BA000FFE70220C4E70000020010000000FFFF82
:100BB0007047704710B586B00021009101910291F5
:100BC00003910068174988422AD1174CA06940F068
:100BD0000800A061A069694600F008000490C020E8
:100BE000009012200190032003901048FFF7FCFBB7
:100BF000E06940F40010E061E069002200F40010B8
:100C0000049011461F2000F07BF81F2000F06AF8C6
:100C100000221146202000F073F8202000F062F836
:100C200006B010BD0054004000100240000C01400E
:100C300070477047024881680278114481607047AC
:100C400050000020074810B5016841F01001016014
:100C5000032000F075F80F2000F006F800F024F8EB
:100C6000002010BD0020024070B50D4D04464FF429
:100C70007A712878B1FBF0F00A490968B1FBF0F00D
:100C800000F09DFD48B9102C07D200222146501ECD
:100C900000F036F800206C6070BD012070BD0000CF
:100CA000500000205C0000200C4808B5816941F02C
:100CB00001018161816901F001010091C16941F087
:100CC0008051C161C06900F08050009004484168C3
:100CD00021F0E06141F00071416008BD0010024068
:100CE00000000140002809DB00F01F0201219140B3
:100CF0004009800000F1E020C0F8001170470000BA
:100D0000F0B40E4B1B680C46C3F30223C3F1070576
:100D1000042D00D90425191D072901D2002300E064
:100D2000DB1E012606FA05F1491E214099409E402E
:100D3000761E16403143F0BC02F0FABD0CED00E027
:100D4000064900F0070208684FF6FF03184040EA22
:100D50000220034A10430860704700000CED00E0D9
:100D60000000FA05014901200862704700000E42A8
:100D700010B501460020234C012922D0022939D088
:100D800010291DD161682268D20119D51E48C1F30E
:100D90008342C903805C0AD561681B4AC1F34041A4
:100DA000921E515C194AB2FBF1F1484301E0184927
:100DB00048436168490203D440000321B0FBF1F0CD
:100DC00010BD226AC2F30121012903D1920701D586
:100DD000C80310BD022905D1626A920702D549F6FF
:100DE000404010BD0329FCD121688903F9D54FF299
:100DF000244010BD00F02AF96168C1F38131491C1B
:100E00004900DBE700100240D442000800127A00DB
:100E100000093D002DE9F84305460078354CC00730
:100E200054D0E0690026C00008D4E06940F080504A
:100E3000E061E069012600F0805000902E480168D2
:100E4000C90512D40168804641F480710160FFF742
:100E5000CDFB074605E000BFFFF7C8FBC01B6428B9
:100E600023D8D8F80000C005F6D5206A10F44070E9
:100E700021D0A98801F4407181421CD0206A1F4909
:100E8000012220F440700A6000220A602062C0073C
:100E900011D0FFF7ABFB074641F2883808E000BFEE
:100EA000FFF7A4FBC11B414502D90320BDE8F8832D
:100EB000206A8007F4D5206A696820F440700843EE
:100EC00020621EB1E06920F08050E0612878800740
:100ED00005D56068A96820F4404008436060287820
:100EE000C00605D56068E96820F4800008436060AA
:100EF0000020DBE700100240007000404004424246
:100F00002DE9F0470F46050061D0434E306800F0F0
:100F10000700B84209D2306820F00700384330603B
:100F2000306800F00700B84251D128683B4C810777
:100F300012D5400703D5606840F4E060606028780F
:100F4000000703D5606840F4605060606068A9687D
:100F500020F0F000084360602878C00728D0686857
:100F6000012810D02168022810D0890700292EDA24
:100F7000616821F0030101436160FFF737FB8046A0
:100F800041F288390DE021688903EFE78901EDE737
:100F9000FFF72CFBA0EB0801494502D90320BDE86F
:100FA000F0876068696800F00C00B0EB810FEFD14A
:100FB000306800F00700B8420BD9306820F0070015
:100FC00038433060306800F00700B84201D001209B
:100FD000E5E72878400705D56068E96820F4E06017
:100FE000084360602878000706D56068296920F406
:100FF000605040EAC100606000F038F86168084A5B
:10100000C1F30311515CC8400649086006480068F6
:10101000FFF72AFE0020C2E7002002400010024035
:10102000E44200085C000020540000200448054908
:1010300000684968044AC1F30221515CC840704706
:101040005C00002000100240F442000804480549FA
:1010500000684968044AC1F3C221515CC840704726
:101060005C00002000100240F44200080E4A516863
:101070000E4801F00C03042B11D0082B0FD10C48A3
:10108000C1F38343C903C05C0AD55168084AC1F360
:101090004041921E515C054A5043B0FBF1F070474D
:1010A00004494843704700000010024000127A00D3
:1010B000C242000800093D002DE9F84F040070D03D
:1010C0002078C04DC00749D06868C0F3810001286E
:1010D00007D06868C0F38100022809D16868C0039E
:1010E00006D52868800339D560680028E7D035E048
:1010F0006068B0F5803F0BD010B1B0F5A02F11D0D3
:10110000286820F480302860286820F4802002E0DD
:10111000286840F480302860606890B1FFF766FA74
:1011200006460AE0286840F480202860F0E700BF07
:10113000FFF75CFA801B642873D828688003F7D512
:101140000CE0FFF753FA064605E000BFFFF74EFA42
:10115000801B6428F0D828688003F7D420789A4E42
:1011600080074FF001094FF0000839D5686810F08A
:101170000C0F07D06868C0F38100022809D16868A5
:10118000C00306D42868800714D52069012808D137
:1011900010E02069B0B1C6F80090FFF727FA0746C3
:1011A00005E00AE1FFF722FAC01B0228C4D828682C
:1011B0008007F7D52868616920F0F80040EAC1008F
:1011C00028600DE0C6F80080FFF710FA074604E03B
:1011D000FFF70CFAC01B022823D828688007F7D431
:1011E000207800072CD57948A169D9B1C0F80090C2
:1011F000FFF7FCF9074604E0FFF7F8F9C01B0228E7
:101200000FD8686A8007F7D571484FF4FA51006823
:10121000B0FBF1F0009000BF0098411E0091FAD29F
:101220000EE080E0C0F80080FFF7E0F9074604E038
:10123000FFF7DCF9C01B022875D8686A8007F7D46D
:101240002078400760D5E8690027C00008D4E86925
:1012500040F08050E861E869012700F0805000907C
:101260005C480168C90513D40168834641F4807164
:101270000160FFF7BBF9824606E000BFFFF7B6F951
:10128000A0EB0A0064284ED8DBF80000C005F5D5B5
:10129000E06801280AD008B1052813D0286A20F098
:1012A00001002862286A20F0040002E0286A40F069
:1012B00001002862E06841F2883B98B1FFF796F997
:1012C00082460BE0286A40F004002862EEE700BF87
:1012D000FFF78CF9A0EB0A0159455AD8286A800714
:1012E000F6D50CE0FFF782F9824605E0FFF77EF9BC
:1012F000A0EB0A0159454CD8286A8007F6D41FB1E3
:10130000E86920F08050E861E06988B36968C1F35A
:101310008101022944D00228C6F8608004D0FFF77A
:1013200065F9044638E034E0FFF760F9074604E069
:10133000FFF75CF9C01B02282BD828688001F7D47E
:10134000206AB0F5803F05D16868A16820F40030BC
:1013500008436860D4E908010843696821F47411FE
:1013600008436860C6F86090FFF740F9044606E05D
:1013700025E000BFFFF73AF9001B022809D82868CA
:101380008001F7D51BE000BFFFF730F9001B0228F2
:1013900002D90320BDE8F88F28688001F4D40EE05C
:1013A0000128F7D06868226A00F48031914204D1A4
:1013B000616A00F47010884201D00120EAE7002041
:1013C000E8E7000000100240000042428004424270
:1013D0005C000020007000407047704710B5044664
:1013E00000680168C90717D04168C90714D0406870
:1013F0004007204607D5FFF7F0FF21686FF0040093
:101400004860042002E0FFF7E7FF012060742068D5
:10141000416821F00101416010BD704710B50446DC
:101420000068016889070AD54068800707D520460B
:10143000FFF7F3FF2068416821F002014160034992
:101440004FF4003008600120607410BD14040140A6
:101450002DE9F04791460C465FEA00084AD084B374
:10146000D8F800004068400744D4404601F093FF9C
:101470004FF461620546B0FBF2F1B0FBF2F302FB00
:1014800013503C23B0FBF3F0B5FBF2F6607002FBA7
:101490001650B0FBF3F203FB1200A070182931D3F1
:1014A0001820B1FBF0F7B1FBF0F200FB1210207036
:1014B000404601F069FF411C04D0A84202D9461BF6
:1014C00002E017E04FF0FF36A7EB071000EB4000FB
:1014D000C0EB001005EBC0152946404601F0AAFFFD
:1014E00040B9701C01D0711900E03146404601F04E
:1014F0008DFF10B10120BDE8F0873946404601F06C
:10150000AFFE00E02170B9F1000F0BD0207801F0A0
:101510009CFE2070607801F098FE6070A07801F069
:1015200094FEA0700020E6E770B5040003D0607C54
:10153000002610B105E0012070BD2674204600F0A1
:101540003DF802206074204600F01CF9042550BBD1
:10155000204601F0DCFE30BB2068416821F0070125
:101560004160A06820B11448016821F001010160C8
:101570001148001F0168A26821F4607111430160E5
:101580006068411C04D10120FFF7F2FB58B1401EF6
:101590002268C0F303419160216880B2C860204690
:1015A00001F0D0FE08B16574C5E7E67301206073F1
:1015B000A0736074002070BD306C004008B50068F6
:1015C000114988421FD1FFF7CDFB1048C16941F096
:1015D0000061C161C0690E4900F000600090012007
:1015E0000860002211460320FFF78AFB0320FFF763
:1015F00079FB002211462920FFF782FBBDE8084055
:101600002920FFF76FBB08BD0028004000100240F2
:101610003C0442422DE9F0410D4604003BD0C5B3E5
:10162000207C01283AD04FF0010884F81080022075
:101630006074E87872B301F0FFFDE073687801F040
:10164000FBFD6073A87801F0F7FDA073C2B2617B67
:10165000E07B01F0B0FE20732870204601F09BFE75
:101660004FF46161B0FBF1F1002518292DD9182242
:10167000B1FBF2F1A1EB011101EB4101C1EB011151
:1016800000EBC1163146204601F0D4FE0427C8B94C
:101690000BE000E004E00120BDE8F0810220FBE760
:1016A000E07368786073A878CFE7204601F06CFE9D
:1016B000411C0AD0B04208D206490144204601F03C
:1016C000A5FE10B167742574E5E784F811802574D0
:1016D0000020E1E7805101002DE9F0410D460400B2
:1016E00024D01DB3207C012823D04FF0010884F8BA
:1016F0001080022060742878EAB101F09DFD4FF45B
:10170000616100FB01F6687801F096FDC0EB001006
:1017100006EB8006A87801F08FFD35182946204693
:1017200001F088FE0026042710BB0FE00120BDE871
:10173000F0810220FBE74FF4616148436978C1EB17
:10174000011100EB8100A9784518E7E7206841689E
:1017500021F005014160204601F016FE411C0AD02F
:10176000A84208D206490144204601F04FFE10B1BC
:1017700067742674DAE784F8118026740020D6E7AF
:101780008051010070B504000AD02068416821F042
:1017900008014160FEF72AFF05464FF47A7608E01B
:1017A000012070BDFEF722FF401BB04201D903208B
:1017B00070BD206840680007F4D5002070BD10B5EA
:1017C000401EB0F1807F01D3012010BD4FF0E02416
:1017D00060610F21601702F0ABF80020A0610720C4
:1017E0002061002010BD704770470000F8B5016807
:1017F00004460868CA684B6910F00F0F4FF00005E7
:1018000059D003F0010602F49077374365D0C10741
:1018100005D0D10503D5616C41F001016164410738
:1018200005D5D90703D0616C41F0020161648107DD
:1018300005D5D90703D0616C41F00401616401074B
:1018400007D502F02001314303D0616C41F008015B
:101850006164616C00293AD0800604D5900602D5F7
:10186000204601F0D9FE20684069616CC0F3801009
:10187000090700D460B3204601F0A7FE2068406944
:10188000400621D52068143050E8001F21F04001A7
:1018900040E80012002AF5D1E06BA8B16D49416320
:1018A000E06BFEF73FFD002811D0E06B416B01B00B
:1018B000BDE8F040084783060FD593060DD52046B6
:1018C000BDE8F84001F0A8BE2046FFF78DFFF8BD47
:1018D0002046FFF789FF6564F8BD266B2023012EA3
:1018E0007CD1C6067AD5D60678D5086848680090B7
:1018F00048694FF00206400640D5E16B0868406831
:101900000004000CE8D0A28D8242E5D9E085886908
:1019100020282DD020680C3050E8001F21F4807161
:1019200040E80012002AF5D12068143050E8001F6A
:1019300021F0010140E80012002AF5D1206814309E
:1019400050E8001F21F0400140E80012002AF5D1C4
:1019500084F84230256320680C3050E8001F21F0E5
:10196000100140E80012002AF5D1E06BFEF7B6FC4A
:101970006663A08DE18D401A81B22AE0A08DE18DD1
:10198000401A81B2E08D0028A6D00029A4D0226898
:101990000C3252E8000F20F4907042E80007002F4C
:1019A000F5D12068143050E8002F22F0010240E801
:1019B0000027002FF5D184F84230256320680C30D1
:1019C00050E8002F22F0100240E80023002BF5D150
:1019D00066632046FFF707FFF8BDFFE705062BD536
:1019E000150629D594F841002128F5D1A068B0F555
:1019F000805F01D12069B0B1206A411C2162216859
:101A000000784860E08C401E0004000CE084E3D1C4
:101A10002068C16821F08001C1602068C16841F080
:101A20004001C160D8E7206A0088C0F30800486020
:101A3000206A801C2062E5E74006CDD55006CBD554
:101A4000CA68204622F04002CA6084F8413000F0A3
:101A5000D3F9C1E7BB35000870B5040004D094F891
:101A60004100002510B106E0012070BD84F840500F
:101A7000204600F023F8242084F841002068C16843
:101A800021F40051C160204601F028FE2068016960
:101A900021F4904101612068416921F02A014161EE
:101AA0002068C16841F40051C1606564202084F859
:101AB000410084F842006563002070BD2DE9F041CB
:101AC00086B000240094019402940394016837487E
:101AD000354A022503260715914226D1816941F432
:101AE00080418161816901F480410491816941F003
:101AF000040181618069694600F00400049050157A
:101B0000CDE900052A4D03962846FEF76DFCCDE988
:101B10000074694628460294FEF766FC00221146CE
:101B20002520FFF7EDF8252038E0224A914237D1F1
:101B3000C16941F48021C161C16901F4802104912E
:101B4000816941F0080181618069DFF86C8000F0F3
:101B500008000490D014CDE900056946039640467C
:101B6000FEF742FCCDE90074012469464046029428
:101B7000FEF73AFC270201AA009782E87000694646
:101B80004046FEF731FC002239464046FEF729FD6B
:101B9000002211462720FFF7B3F82720FFF7A2F80D
:101BA00006B0BDE8F081000000380140001002409E
:101BB0000008014000480040000C014090F842300D
:101BC000202B01D00220704721B11AB100230363FA
:101BD00001F0E0BD0120704770B500682D498842D2
:101BE00057D12E4C2C4D207821782A5C2CA001F066
:101BF0008FFE6078002630B1012810D0022821D055
:101C000003283BD12EE02078285CAA2836D1217801
:101C10002AA001F07DFE0120607026702EE0207861
:101C2000295CA17022782CA001F072FEA078401EE1
:101C3000FC2803D802206070E6701FE02FA001F09E
:101C400067FE1AE02078E1782A5C38A001F060FE97
:101C5000E078401CC0B2E070A17888420ED3032027
:101C600060700BE02078285C552806D134A001F084
:101C70004FFEA178A81C01F08DFA66702078401CF8
:101C8000207020782918BDE8704001223148FFF704
:101C900095BF70BD00380140640400204C00002056
:101CA000526563656976656420627974655B256455
:101CB0005D3A203078253032580D0A00486561645D
:101CC000657220666F756E6420617420696E64654C
:101CD000782025640D0A00004C656E6774682072D8
:101CE000656365697665643A2025642061742069BE
:101CF0006E6465782025640D0A000000496E7661E7
:101D00006C6964206C656E6774682C2072657365FD
:101D10007474696E6720746F207761697420666FD0
:101D200072206865616465720D0A00004461746127
:101D30005B25645D3A203078253032580D0A00006A
:101D40004672616D6520636F6D706C6574650D0A18
:101D500000000000CC0500202DE9F843044690F86F
:101D60004100984616460D46202802D00220BDE8C4
:101D7000F88385B17EB100206064212084F84100A1
:101D8000FEF734FCA6848146E684A0682027B0F5DF
:101D9000805F02D003E00120E9E7206910B12E4600
:101DA00000250EE000260CE08021204601F00DFD0C
:101DB000A8B9C6B116F8010B21684860E08C401E36
:101DC000E084E08C4B464FF00002CDF80080002804
:101DD000EAD14FF04001204601F0F7FC40B184F811
:101DE00041700320C3E735F8020BC0F30800E3E7B6
:101DF00084F841700020BAE77047FEE70148FEF71B
:101E0000FDBB0000640500200148FEF759BC00003E
:101E10006405002038B5406A002190F83D202B4B26
:101E200046F2A8141B68B3FBF4F3C3EBC30303EB44
:101E3000830300933BB15B1E009303681B689B0503
:101E400005D5009BF6E7036C43F020030364436B66
:101E500003B19962836B03B1996203681C6824F42F
:101E600080641C604185436B03B15963836B03B18C
:101E7000596303681C6824F001041C6090F83D401D
:101E80002023602C0BD0282434EA02020FD080F8E3
:101E90003D3080F83E1000BFFEF72AFD38BD80F8C7
:101EA0003D3080F83E100164FEF7A6FB38BD0268A5
:101EB000136843F0010313600268136843F48063FE
:101EC0001360016380F83D40E6E700005C000020FD
:101ED00000684169C943090601D4002101617047C6
:101EE00070B5044690F83D0094F83E10102901D0DA
:101EF000402906D1222804D121680A6822F4006210
:101F00000A60282131EA00024FF000054FF0200658
:101F100026D021684968090505D4602803D084F8D3
:101F20003D6084F83E50256320684168090537D537
:101F3000416821F400614160606B90F821203C49C8
:101F4000012A11D04163606BFEF7ECF938B32068C9
:101F5000016821F00101016084F83D60606B1CE0C4
:101F6000256384F83D10DFE7A06B4163A06BFEF7AB
:101F7000D9F9A0B120684169C943490605D400696F
:101F8000616A0870606A401C60622068016821F024
:101F90000101016084F83D60A06B416B884710E04F
:101FA00094F83D10602910D04169C943490605D411
:101FB0000069616A0870606A401C60622046FEF732
:101FC00097FC206CC1071CD115E084F83D602564A6
:101FD0004169C943490605D40069616A0870606AAD
:101FE000401C60622068016821F001010160204608
:101FF000FEF702FBE5E7810703D4410701D40007A0
:1020000004D52068416821F4E061416094F83D0006
:10201000216C49070BD5282809D10648E0622563C1
:1020200084F83D6084F83E502046FEF727FD70BDE1
:10203000151E00080000FFFF01684A69D2435205DF
:102040000FD46FF480624A61002140F8301F2022D3
:1020500042738173026942F004020261017301203C
:1020600070470020704710B5C26A438D0168042B89
:1020700006D0438D032B08D0438D022B1DD012E0D8
:102080004A6822F480624A600CE04B6823F4806363
:102090004B60042A06D0022A04D001680A6822F4A0
:1020A00080620A6001680969426A1170416A491CCC
:1020B0004162418D491E418510BD012A34D0102A4C
:1020C00032D0042A34D0022A32D00B6843F4007391
:1020D0000B6001680969436A1970416A491C4162D1
:1020E000438D5B1E438503681B690B70416A491C65
:1020F0004162418D491E418501684B6823F440735C
:102100004B60202180F83D1090F83E300021402B9C
:1021100080F83E1010D0082A02D0202A00D01221C8
:102120000163FEF7ACFC10BD0B6823F48063CFE7BE
:102130000B6843F48063CBE70163FEF739FD10BD04
:1021400038B590F83D10222910D1C36A418D03297A
:102150000DD901680969426A1170416A491C4162DE
:10216000418D491E4185418D032906D038BDC26A83
:10217000022A02D0012906D029B10068416821F461
:102180008061416038BD2A4A46F2A81400211268D5
:10219000B2FBF4F202EB8202009202682024009D5E
:1021A0006D1E009526D01568AD05F8D4156825F488
:1021B000806515600268556825F4E0655560026821
:1021C0001269456A2A70426A521C4262428D521E4E
:1021D000428580F83D4090F83E2080F83E10402A2D
:1021E00021D0082B02D0202B00D012210163FEF752
:1021F00046FC38BD036C43F020030364536823F4AA
:10220000E063536002681269436A1A70426A521CA2
:102210004262428D521E428580F83D4080F83E1059
:10222000FEF766FB38BD0163FEF7C2FC38BD000057
:102230005C000020F8B50446C06A1E460D461746ED
:10224000082807D0012805D010F5803F02D0206B68
:10225000122804D12068016841F48071016013469E
:1022600000224FF001112046009600F05BFB40B1C8
:1022700020680068C00502D54FF400702064032078
:10228000F8BD2069B0F5804F0ED00620216800EA25
:10229000D51040F0F000086133463A460B4920461D
:1022A00000F088FB78B902E005F0FE0000E0E8B23B
:1022B00021680861054933463A46891F204600F0E7
:1022C00079FB0028DCD00120F8BD000008000100E7
:1022D00010B5C26A90F83D1021290BD1418D51B142
:1022E000416A026809781161416A491C4162418D65
:1022F000491E418510BD20230021082A13D0202A21
:1023000011D012F5803F0ED00268546824F4E064C6
:1023100054601122026380F83E1080F83D3000BF07
:10232000FEF7AEFB10BD0268546824F4E06454600C
:102330000268146844F400741460016380F83D304E
:1023400090F83E2080F83E10402AE9D1FEF731FC9B
:1023500010BD000010B590F83D1090F83E30C26AF4
:10236000048DB4B1212903D0402B11D122290FD1E2
:10237000418DE1B390F83E10402942D0416A026895
:1023800009781161416A491C4162418D491E4185AC
:1023900010BD2129E8D120230021082A13D0202AAA
:1023A00011D012F5803F0ED00268546824F4E06426
:1023B00054601122026380F83E1080F83D3000BF67
:1023C000FEF75EFB10BD0268546824F4E0645460BC
:1023D0000268146844F400741460016380F83D30AE
:1023E00090F83E2080F83E10402AE9D100E002E05B
:1023F000FEF7DFFB10BD0068416821F48061416099
:1024000010BDBDE8104000F0F3B8000078B590F8BA
:102410003E50C26A046B90F83D6000230168222E92
:1024200073D1066D0EB9402D6FD0056D1DB90569CC
:10243000B5F5404F1BD0458D95B3468D484D012EC7
:1024400020D0448D022C4DD00C6844F480640C6084
:1024500001684C68240579D5AA4273D0012A71D04D
:10246000082A6FD0102A6DD0202A6BD06EE04A69FE
:102470008A6900920A6842F480720A60016D491C00
:10248000016578BDAA4214D10A6822F480620A600C
:1024900001684A68120504D50A6822F4806217E0D0
:1024A000FFE74A698A6900920A6842F400720A608A
:1024B00050E0082A10D0202A0ED0122C0AD0042A6C
:1024C00003D0022A01D0102AE6D10A6842F48062C1
:1024D0000A603BE0012ADFD00A6822F480620A60C9
:1024E0000168DEE7042A11D0022A0FD0102A0DD08D
:1024F0000C6844F400640C6001684C698C690094B9
:102500000C6824F480640C6008E025E00C6844F456
:1025100080640C6001684C698969009101684C68AD
:10252000240517D5AA4207D0012A05D0082A03D0CE
:10253000102A01D0202A0DD14A6842F480524A6004
:1025400008E0FFE74A6842F480524A6001684A693D
:1025500089690091036578BD48698869009078BDF4
:102560000000FFFF90F83E10402910D00169B1F53E
:10257000804F19D0016DA9B3016D012910D1416CB3
:102580005FF0F10201F4407142EAD11106E0016D01
:102590000029416C05D0C9B241F001010068016118
:1025A000704701F0FE01F9E790F83D102129416CD8
:1025B00009D0C9B241F0010102681161416B29B132
:1025C000896A49B902E001F0FE01F5E7816B002953
:1025D000E6D0896A0029E3D00068416841F40061CF
:1025E00041607047FFE7416CF02201F44071CBE796
:1025F00010B590F83D10026D4AB1026D012A14D059
:10260000026D022A16D0BDE81040FFF761BCC16C14
:102610000129816C02D0C1F3072108E00268C9B228
:102620001161016D891C016510BD816CC9B2026820
:10263000116123E022291CD0428D0AB1212920D02A
:10264000428D002AF0D12129EED101684A6822F496
:10265000E0624A6001680A6842F400720A60002180
:102660000163202280F83D2080F83E10FEF7A1FA99
:1026700010BD01680A6842F480720A60016D491C4D
:10268000D1E7416A026809781161416A491C4162D7
:10269000418D491E418510BD38B50C4690F83D204E
:1026A00000212825954302680B4605D051699169A0
:1026B000009180F83C3038BD556825F48065556040
:1026C000E243540700D50121120601D5828900E0BA
:1026D000028B80F83C3092B2FDF78FFF38BD0000CE
:1026E0002DE9F04190F83D300446C26A00212026D1
:1026F0001E4F00686FF48065082A01D0202A01D19E
:10270000282B04D0212B17D04561BDE8F081E7626A
:10271000426822F4E06242602068456120680268F5
:1027200022F480620260216384F83D6084F83E10E8
:102730002046FEF7A3F9E8E7E7622122226384F846
:102740003D6084F83E10416821F4E06141602068FA
:1027500045612068016821F4806101602046FFF72F
:10276000B7FB2046FEF765FACFE700000000FFFF49
:10277000F8B590F83D6004460068416821F4E061D6
:1027800041602068002541690091016841F0010124
:1027900001602068016821F480610160206841685F
:1027A000090520D5474F222E48D02A2E46D0616BEE
:1027B000096849686185618D19B1216C41F0040196
:1027C0002164416821F400614160606BFDF7F6FD12
:1027D000012808D0606B4763606BFDF7A3FD10B163
:1027E000606B416B8847608D08B320684169C943BD
:1027F000490708D40069616A0870606A401C606219
:10280000608D401E608520684169C943490608D42F
:102810000069616A0870606A401C6062608D401ED9
:102820006085608D18B1206C40F004002064206C3D
:1028300000B32046BDE8F840FFF752BBA16B096822
:1028400049686185618D19B1216C41F004012164F1
:10285000416821F400614160A06BFDF7AFFD0128E4
:10286000C1D0A06B4763A06BFDF75CFD0028BAD018
:10287000A06BB6E72A2E06D12563282084F83D00F8
:102880002046FEF7D5F994F83D10202028290DD0D8
:10289000216B222901D0222E07D1256384F83D0027
:1028A00084F83E502046FEF7C3F9F8BD0649E162C0
:1028B000256384F83D0084F83E502046FEF7DEF89C
:1028C000F8BD0000151E00080000FFFF70B5164699
:1028D0000D4604461EE02046FFF7AEFB08B101207E
:1028E00070BD681C16D0FDF781FE801BA84200D881
:1028F00085B920684069C04340070BD5002044F8E3
:10290000300F20216173A073216941F02001216102
:102910002073E4E720684069C0434007DBD400200F
:1029200070BD00002DE9F047984617460D46044655
:10293000C1F30746DDF820902AE000BFB8F1FF3F61
:1029400026D0FDF753FEA0EB0901414502D8B8F1AE
:10295000000F1DD12068012E16D0806925EA0000E5
:102960000004000C12D00020B84211D1002044F81D
:10297000300F20216173A073216941F02001216192
:1029800020730120BDE8F0874069E7E70120EBE70D
:102990002068012E0AD0806925EA00000004000C9E
:1029A00006D00020B842C9D00020EBE74069F3E729
:1029B0000120F7E72DE9F047984616460D460446F4
:1029C0004FF000094FF0200AC1F3074723E02068C9
:1029D0004069C043400515D42068016841F4007186
:1029E000016021686FF480604861C4F8309084F819
:1029F0003DA084F83E90216C41F00401216484F8EC
:102A00003C9021E0701C06D0FDF7F0FDA0EB080023
:102A1000B04203D816B1012F1FD021E02068012F4A
:102A200015D0806925EA00000004000C18D000BF12
:102A300044F8309F84F80DA084F80E90216941F08D
:102A40002001216184F80C900120BDE8F0874069E5
:102A500025EA00000004000CEAD12068406901E08A
:102A60002068806925EA00000004000CAFD1ECE783
:102A700070B516460D4604461EE02046FFF7DCFA08
:102A800008B1012070BD681C16D0FDF7AFFD801B9A
:102A9000A84200D885B920684069C04300060BD51C
:102AA000002044F8300F20216173A073216941F0A8
:102AB000200121612073E4E720684069C0430006DB
:102AC000DBD4002070BD00002DE9F0410024094F47
:102AD000264600BF07EB04150122A9882868FDF7E8
:102AE00080FDAE71641CAE60E4B22E73032CF1D392
:102AF000BDE8F081000000202DE9F041FDF776FDF2
:102B00001D4F0546002600BF07EB0614A0790228DA
:102B100004D0032815D0042827D11BE0A068281A68
:102B2000642813D221E0012000E00020207308B1C6
:102B3000002200E00122A1882068FDF752FDA56077
:102B400013E0A068281AB0F5FA7F0ED3207B002886
:102B5000EBD1E8E7A068281A322806D3A188012221
:102B60002068FDF73EFD0020A071761CF6B2032E12
:102B7000CAD3BDE8F08100000000002070B50D460A
:102B8000032815D20B4901EB0014A571FDF72EFDAA
:102B9000A060012D08D0002D0AD1A1882068012253
:102BA000BDE87040FDF71DBDA18800222068F7E751
:102BB00070BD00000000002010B586B0002002901B
:102BC0001748816941F004018161816901F00401C4
:102BD0000491816941F008018161816901F0080176
:102BE0000491816941F0100181618069022400F043
:102BF0001000049004200090012001906946039485
:102C00000848FDF7F1FB4FF44060CDE900040320D4
:102C1000039069460448FDF7E7FB06B010BD0000CD
:102C20000010024000080140000C01401CB50024C7
:102C3000174801941549009401607F214160FEF717
:102C400073FC08B172B6FEE78DF804408DF80540BC
:102C50008DF80640002201A90D48FEF73DFD08B1A0
:102C600072B6FEE701208DF800008DF801008DF8A6
:102C7000020018208DF80300002269460448FEF780
:102C8000C9FC002801D072B6FEE71CBD0028004038
:102C9000B8050020FEE7FEE730B40021084C0A46E4
:102CA000002004EBC1131A54401CC0B28028FAD390
:102CB000491CC9B20829F3D330BC00F08BB800001E
:102CC0006400002010B56420FDF77CFBAE2000F00E
:102CD0004FFA00287CD1202000F04AFA002877D152
:102CE000102000F045FA002872D1B02000F040FA20
:102CF00000286DD1C82000F03BFA002868D100F010
:102D000037FA002864D1102000F032FA00285FD191
:102D1000402000F02DFA00285AD1812000F028FA36
:102D2000002855D1FF2000F023FA002850D1A1201F
:102D300000F01EFA00284BD1A62000F019FA002856
:102D400046D1A82000F014FA002841D13F2000F01D
:102D50000FFA00283CD1D32000F00AFA002837D11E
:102D600000F006FA002833D1D52000F001FA00283F
:102D70002ED1802000F0FCF9002829D1D92000F0C4
:102D8000F7F9002824D1F12000F0F2F900281FD132
:102D9000DA2000F0EDF900281AD1122000F0E8F94D
:102DA000002815D1DB2000F0E3F9002810D14020E5
:102DB00000F0DEF900280BD1AF2000F0D9F900288F
:102DC00006D1FFF769FF0021084600F02DF800202A
:102DD00010BD00002DE9FC410024DFF8408064278D
:102DE0002146002000F020F8002508EBC4160CA1B5
:102DF000705D096801918DF80500022301AA782110
:102E000008480097FDF73EFE6D1CEDB2802DEED315
:102E1000641CE4B2082CE3D3BDE8FC81640000200C
:102E2000400000006405002010B50446B031C8B26F
:102E300000F09EF9102040EA141000F099F904F017
:102E40000F00BDE8104000F093B9000070B51646C1
:102E50000D46044609A200F0FCF804F11800C0B2C7
:102E600003233246294600F0C1F82A34E0B229464D
:102E7000BDE87040252200F005B800004350553AE7
:102E800000000000203A30B5D3B200227A2810D8D2
:102E900007290ED8074C03EB430304EB4303064C0E
:102EA00004EBC1119C5C8518521CD2B24C55062A09
:102EB000F8D330BD804000086400002070B515468E
:102EC0000E4604460BA200F0C4F81E3435B1012DA5
:102ED00007D0022DE0B207D008A206E0E0B209A2B6
:102EE00003E0E0B209A200E00AA23146BDE870406A
:102EF00000F0AFB8434F4D4D3A0000002D2D2D2D61
:102F0000000000004F4B2020200000004552524F8F
:102F100052000000574149542000000070B515468A
:102F20000E46044605A200F094F81834E0B22A4692
:102F30003146BDE87040052300F058B84552523A7A
:102F4000000000002DE9F0411746884605460EA214
:102F500000F07FF80024012606FA04F0384204EB62
:102F6000440005EB800000F11800C0B201D031220E
:102F700000E030224146FFF785FF641CE4B2032CD9
:102F8000EAD3BDE8F08100004B45593A000000004B
:102F900070B515460E46044612A200F05AF8E8072E
:102FA00001D0522200E02D2204F11800C0B23146B7
:102FB000FFF768FFA80701D5472200E02D2204F1A2
:102FC0002400C0B23146FFF75DFF680701D54222F9
:102FD00000E02D223034E0B23146BDE87040FFF70A
:102FE00051BF00004C45443A000000002DE9F04379
:102FF00000261D46904689460746344625E0281B94
:10300000401EC1B20A2001F033F8B8FBF0F00A21EB
:10301000B0FBF1F201FB120026B9691E8C4201DA05
:1030200040B101263030C2B204EB440007EB40004F
:10303000C0B205E004EB440007EB4000C0B2202220
:103040004946FFF71FFF641CE4B2AC42D7D3BDE88A
:10305000F08370B516460D4604460EE0294620461C
:10306000FFF710FFA41DE4B27A2C05D96D1C0024D3
:10307000EDB2072D00D90025761C3278002AEDD15B
:1030800070BDF0B51F460E4604460223059DFFF7AE
:10309000ADFF04F10C00C0B23A223146FFF7F2FE58
:1030A00004F11200C0B202233A463146FFF79EFFF8
:1030B00004F11E00C0B23A223146FFF7E3FE243489
:1030C000E0B22A463146BDE8F0400223FFF78EBF4A
:1030D0001CB5FDF78BFA20490A68821A642A3AD394
:1030E0000860002201A91D48FEF7B2F99DF806000C
:1030F000009000219DF805309DF804200846FFF758
:10310000C0FFFDF789F8024600214820FFF79EFE28
:10311000FDF7A6F8024602210020FFF713FFFDF796
:10312000C1F8024603210020FFF732FFFDF78CF8BB
:10313000024604210020FFF7C1FEFDF78BF802468E
:1031400005210020FFF7EAFE05A206210020FFF777
:1031500080FFFFF73FFE1CBD30000020B8050020B7
:10316000436F6D70616E7920496E666F00000000DC
:103170001CB5002101918DF8050064200090022308
:1031800001AA78210148FDF77DFC1CBD64050020E3
:103190007047000070B505460E4612A000F0B8FB5F
:1031A000002405E0295D14A000F0B2FB641CE4B229
:1031B000B442F7D312A000F0ABFB022E11D3287853
:1031C00001280ED16878012809D0002809D10DA066
:1031D00000F09EFBBDE87040002000F041B90EA059
:1031E000F6E770BD50726F63657373696E67206632
:1031F00072616D653A200000307825303258200029
:103200000D0A000053657474696E67204B4559318F
:10321000204F46460D0A000053657474696E67209E
:103220004B455931204F4E0D0A0000000148FEF772
:10323000F5B80000B8050020010901EB810100F09C
:103240000F0000EB4100C0B27047002102E00A38D5
:10325000C0B2491C0A28FAD2090740EA1160704737
:103260002DE9F04104460025C07B627BA37B42E050
:10327000012A16D0032A14D0052A12D0072A10D00A
:10328000082A0ED00A2A0CD00C2A0AD0042A10D000
:10329000062A0ED0092A0CD00B2A0AD0022A0DD0F9
:1032A00028E01F2B0CD30C2A05D101221346401C09
:1032B00020E01E2B04D30123521C1BE01C2B02D246
:1032C00003F1010316E011D183B29E0710D16426E9
:1032D000B3FBF6F706FB173636B94FF4C876B3FBE7
:1032E000F6F706FB17331BB91D2303E01D2B01D195
:1032F000032201236D1C8D42BAD3D1B2E0736173F6
:10330000DAB2A27300F057F82073BDE8F08170B50F
:103310000446FDF76BF905464FF47A7606E0FDF7B3
:1033200065F9401BB04201D9032070BD2068406898
:103330008006F4D52068416841F01001416000200A
:1033400070BD000070B504460068416821F01001AE
:103350004160FDF74BF905464FF47A7607E000BF70
:10336000FDF744F9401BB04201D9032070BD20682D
:1033700040688006F4D5002070BD00000148FEF7CB
:103380002DB80000B80500200168086A496A89B2B2
:1033900041EA00407047006881698AB2C1698BB216
:1033A000816989B28A4203D0C06961F31F407047C6
:1033B00043EA02407047F0B56424C1EBC10309271A
:1033C000A500072603EB01130329B3FBF7F100F572
:1033D000FA60114401440AD2401EB0FBF4F201EB42
:1033E0009001B0FBF5F0891A0844001D08E0B0FB1D
:1033F000F4F201EB9001B0FBF5F0891A0844801C4F
:10340000B0FBF6F106FB1100C0B2F0BD70B50D4681
:1034100006460024FFF77BFF48B93168280C086294
:103420003168A8B248623046FFF78CFF00B1012432
:10343000204670BD70B50D4606460024FFF767FFB5
:1034400048B93168280C88613168A8B2C861304633
:10345000FFF778FF00B10124204670BD70470000DF
:10346000014988707047000038000020FDF7E2BB7A
:103470001CB5FFF729FB00F033F8FFF723FCF0B988
:10348000002000900C218DF800108DF801000190B3
:103490008DF80200024669460A48FEF71DF970B928
:1034A00019208DF8070001208DF805008DF8060021
:1034B000002201A90348FEF7ADF8002800D0012042
:1034C0001CBD0000B805002010B5FFF715FB00F08B
:1034D00017F8FFF7FDFDBDE8104000F00FBA00003F
:1034E00070B5064C0025022025706570A070A5807F
:1034F000FDF77CF8C4E9020570BD0000380000202B
:1035000070B5FDF773F80B4D04462868201A64283F
:103510000BD3FCF799FE022808D0FCF795FE38B1D2
:1035200000210120FFF72AFB2C6070BD0321F8E782
:103530000121F6E73400002070B594B028216846D8
:10354000FCF709FE14210AA8FCF705FE002501245A
:103550000F951195052012950090CDE90254109514
:103560004FF48030019002260494CDE907604FF4B7
:10357000E01009906846FDF79FFD08B172B6FEE7BE
:103580000F20CDE90A064FF48060CDE90C500221EE
:103590000AA80E95FDF7B4FC08B172B6FEE74FF429
:1035A0008070CDE90F400FA8FDF734FC002801D052
:1035B00072B6FEE714B070BD704710B5406A0021C6
:1035C000C185C184FEF710F910BD01680C3151E8C6
:1035D000002F22F4907241E80023002BF5D10168FE
:1035E000143151E8002F22F0010241E80023002BA2
:1035F000F5D1016B012909D101680C3151E8002F87
:1036000022F0100241E80023002BF5D1202180F8A0
:10361000421000210163704708B590F8421022293A
:1036200001D0022008BD82684FF480539A4201D134
:10363000016921B1816A9A421BD04AB10AE002684D
:10364000816A5268C2F308020A80816A891C08E014
:10365000026972B10268526802F07F020A70816AE0
:10366000491C8162C18D491E0904090CC18503D022
:103670001BE002685268F1E70168CA6822F0200284
:10368000CA600168CA6822F48072CA6001684A6927
:1036900022F001024A61202180F84210002141639A
:1036A000026B012A03D0FEF797FA002008BD0163E0
:1036B00001680C3151E8002F22F0100241E800238C
:1036C000002BF5D101680A68D20602D50A6849685C
:1036D0000091818DFEF787F8E7E7000070B504469A
:1036E00000680169E26821F44051114301612169D8
:1036F000A0680843616908432168CA6841F20C6305
:103700009A430243CA6020684169A26921F440716A
:10371000114341611E492068884202D1FDF796FCA1
:1037200001E0FDF783FC00EBC00101EB00126068D3
:1037300064218000B2FBF0F3B3FBF1F36FF01806E5
:103740007343B2FBF0F5B2FBF0F605EB83053223D1
:1037500003EB0515B5FBF1F5B6FBF1F605F0F00549
:1037600005EB0615B2FBF0F6B2FBF0F0B0FBF1F0A2
:103770006FF01802504306EB800003EB0010B0FB23
:10378000F1F0216800F00F002844886070BD00004F
:103790000038014081628285C28500214164222176
:1037A00080F84210016921B10168CA6842F4807250
:1037B000CA6001684A6942F001024A610068C16852
:1037C00041F02001C160002070472DE9F843984680
:1037D00017460D460446089E24E0701C22D0FCF7D4
:1037E00005FFA0EB0800B0421AD8CEB12068C1682E
:1037F000490717D5802D15D0402D13D00168C94336
:1038000009070FD401680025406800902046FFF7A3
:10381000DCFE0820606484F840500120BDE8F88395
:103820000320FBE72068006835EA000004D0002090
:10383000B842D2D00020F1E70120F9E70148FDF7B6
:10384000D5BF0000CC05002030B585B0234800244A
:103850000294816941F004018161816901F00401F0
:103860000491816941F48041816180691C4D00F4BB
:10387000804004904FF400700090022001900320DB
:10388000039069462846FCF7AFFD2815CDE90004F2
:10389000694628460294FCF7A7FD134811490160C8
:1038A0004FF4E131C0E901140C21C460C0E90441C6
:1038B0008461C461FEF7D0F808B172B6FEE7012258
:1038C0000A490948FEF77AF9002211462520FDF73A
:1038D00017FA2520FDF706FA05B030BD00100240AA
:1038E0000008014000380140CC050020640400209D
:1038F0000148FDF77BBF0000140600200248C168A4
:10390000491CC1607047000038000020FEE700003D
:103910000FB4054B10B503A9044A029800F028F82B
:1039200010BC5DF814FB0000C93D000860000020D9
:103930000907090E002804DB00F1E02080F80014DC
:10394000704700F00F0000F1E02080F8141D704770
:1039500002E008C8121F08C1002AFAD17047704758
:10396000002001E001C1121F002AFBD170470000B6
:103970002DE9FF4F8DB00F460546002606E02528AD
:103980000BD0DDE90F1290476D1C761C28780028BB
:10399000F5D111B03046BDE8F08F0024A246A14613
:1039A0000122E94900E0044315F8013F203B02FAF7
:1039B00003F00842F7D128782A2810D06FF02F02A0
:1039C0002878A0F13001092914D80AEB8A0102EB0A
:1039D000410144F0020400EB010A6D1CF0E701CF45
:1039E0005FEA000A03D544F40054CAF1000A44F027
:1039F00002046D1C28782E2817D115F8010F44F009
:103A000004042A280ED06FF02F022878A0F130018C
:103A100009290AD809EB890102EB410100EB0109F0
:103A20006D1CF2E757F8049B6D1C28786C280FD0AA
:103A300006DC4C2817D068280DD06A2814D104E081
:103A4000742810D07A280FD10DE044F400140AE055
:103A500044F4801401E044F440146978814202D1B6
:103A600004F580146D1C6D1C28786E281ED00CDCAB
:103A7000632830D004DC00288BD0582811D19FE077
:103A8000642867D069280CD164E073282DD004DC49
:103A90006F2872D0702804D194E075286ED07828F1
:103AA0006DD0DDE90F129047761C4BE1C4F3025054
:103AB000022806D0032809D0042801CF09D00660C7
:103AC00040E101CFF117C0E900613BE101CF068081
:103AD00038E1067036E117F8040B8DF8000000207D
:103AE0008DF80100EB46012003E057F804BB4FF0CE
:103AF000FF3061074FF0000102D40DE008F1010131
:103B0000884649450FDA8045F8DB1BF80810002984
:103B1000F4D108E008F1010188468142FADB1BF884
:103B200008100029F6D1DDE90F23AAEB0800814631
:103B3000214600F031F9304400EB080604E0DDE9ED
:103B40000F121BF8010B9047B8F10108F7D221467C
:103B50004846F2E00A21C4F302524FF0000B0891EC
:103B6000022A04D001CFC117032A09D00AE0FF1DA1
:103B700027F00707F7E8020108E02CE01EE01FE04D
:103B800000B2C117042A01D140B2C117021E71F15F
:103B9000000206DA0023D0EB030063EB01012D22C3
:103BA00002E0220504D52B228DF82420012203E017
:103BB000E20701D02022F7E7904653E00A210BE00C
:103BC000102109E010214FF0000B44F004044FF0E5
:103BD0000809089103E008214FF0000B0891C4F395
:103BE0000252022A04D001CF0021032A06D006E0A7
:103BF000FF1D27F00707F7E8020103E080B2042A5F
:103C000000D1C0B24FF0000822072BD52A78702AC5
:103C100007D0DDF820C08CF0100C5CEA0B0C05D04E
:103C20000EE040228DF82420012208E050EA010332
:103C300006D030238DF824308DF8252002229046BE
:103C4000089B83F0080353EA0B030BD150EA0102EF
:103C500001D1620706D530228DF824204FF00108EB
:103C6000A9F101092A78582A04D038A20B9208AA8F
:103C70000A920BE03AA2F9E75B46089AFCF776FA5B
:103C80000B9B9B5C0A9A521E0A92137050EA010227
:103C9000F2D10A98ADEB000000F1200B600702D5CD
:103CA00024F4803401E04FF00109D94502DDA9EB8D
:103CB0000B0000E0002000EB0B0141440890AAEB50
:103CC000010AE00306D4DDE90F232146504600F047
:103CD00063F806444FF0000908E009A911F809004B
:103CE000DDE90F12904709F10109761CC145F4DBAB
:103CF000E0030CD5DDE90F232146504600F04CF8D7
:103D0000064404E0DDE90F1230209047761C089944
:103D1000481E08900029F5DC08E00A980A99007806
:103D2000491C0A91DDE90F129047761CBBF1000196
:103D3000ABF1010BF1DC21465046DDE90F2300F029
:103D400019F806446D1C21E6092801003031323390
:103D500034353637383961626364656600000000C7
:103D600030313233343536373839414243444546B1
:103D7000000000002DE9F041044600251E461746CC
:103D8000880404D405E039462020B0476D1C641E29
:103D9000F9D52846BDE8F0812DE9F041044600251B
:103DA0001E469046C80301D5302700E0202788042E
:103DB00004D505E041463846B0476D1C641EF9D570
:103DC0002846BDE8F081000013B54FF6FF730122CD
:103DD00069460248FDF7C0FF00981CBDCC050020D5
:103DE000FCF730FFFFF7A8FBFEF7E6FE3348324949
:103DF000002401603249C0E901144FF48041C0E958
:103E0000034144618461C4610462FCF773FD08B13D
:103E100072B6FEE7FFF718FD2B482A4901604FF400
:103E2000E131C0E901140C21C460C0E9044184619E
:103E3000C461FDF711FE08B172B6FEE7FEF7F6FEAB
:103E400022A0FFF765FD29A0FFF762FD36A0FFF76E
:103E50005FFDFFF70DFB20B13BA0FFF759FD72B6E8
:103E6000FEE742A0FFF754FD49A0FFF751FD0221F4
:103E700051A0FFF74DFD59A0FFF74AFD03215FA0B8
:103E8000FFF746FD062164A0FFF742FD042169A06B
:103E9000FFF73EFD10216EA0FFF73AFD734C4FF483
:103EA000FA7500BFFFF710FB04212046FCF791FBD9
:103EB0002846FCF787FAF5E7005400406405002027
:103EC000A086010000480040140600200D0A0D0ADB
:103ED0005B53797374656D5D205374617274696EA0
:103EE000672075702E2E2E0D0A0000005B5379732B
:103EF00074656D5D20554152543120696E69746955
:103F0000616C697A656420616E64207265616479B0
:103F100020666F7220726563656976696E672064DA
:103F20006174610D0A0000005B53797374656D5D07
:103F300020506C656173652073656E6420646174E4
:103F4000612E2E2E0D0A00005B53797374656D5D32
:103F500020496E697469616C697A6174696F6E2059
:103F60006661696C6564210D0A0000005B5379731A
:103F700074656D5D20496E697469616C697A6174FC
:103F8000696F6E20636F6D706C6574650D0A00005B
:103F90000D0A5B53797374656D5D205465737469A4
:103FA0006E672055415254312070726F746F636F89
:103FB0006C2E2E2E0D0A00005B53797374656D5DB7
:103FC0002044657669636520616464726573733A41
:103FD000203078253032580D0A0000005B53797389
:103FE00074656D5D20417661696C61626C65206607
:103FF000756E6374696F6E733A0D0A0020202D2070
:10400000526561642053746174757320283078257B
:10401000303258290D0A000020202D2053657420CD
:104020004C45442020202020283078253032582943
:104030000D0A000020202D204765742054696D650D
:104040002020202028307825303258290D0A000001
:1040500020202D205365742054696D652020202078
:1040600028307825303258290D0A00000008014018
:104070000246012000E05043491EC9B2FBD27047FE
:104080000000000000000000002F000000000700FA
:104090000700147F147F1400242A7F2A12002313A0
:1040A00008646200364955225000000503000000F4
:1040B000001C224100000041221C000014083E08A0
:1040C000140008083E0808000000503000000808EE
:1040D00008080800006060000000201008040200CA
:1040E0003E5149453E0000427F4000004261514937
:1040F00046002141454B31001814127F100027451E
:10410000454539003C4A4949300001710905030021
:10411000364949493600064949291E00003636000D
:10412000000000563600000008142241000014145C
:104130001414140000412214080002015109060061
:10414000324959513E007E1111117E007F49494983
:1041500036003E41414122007F4141221C007F49FF
:10416000494941007F09090901003E4149497A0056
:104170007F0808087F0000417F4100002040413F48
:1041800001007F08142241007F40404040007F0230
:104190000C027F007F0408107F003E4141413E0039
:1041A0007F09090906003E4151215E007F09192956
:1041B000460046494949310001017F0101003F4065
:1041C00040403F001F2040201F003F4038403F003C
:1041D000631408146300070870080700615149451B
:1041E0004300007F4141000002040810200000410C
:1041F000417F0000040201020400404040404000B2
:104200000001020400002054545478007F484444C4
:104210003800384444442000384444487F0038542F
:1042200054541800087E090102000C5252523E00FC
:104230007F080404780000447D4000002040443D95
:1042400000007F102844000000417F4000007C04F3
:10425000180478007C08040478003844444438008A
:104260007C1414140800081414187C007C0804043E
:104270000800485454542000043F444020003C406F
:1042800040207C001C2040201C003C4030403C0072
:104290004428102844000C5050503C004464544CB6
:1042A000440000083641000000007F00000000418B
:1042B0003608000010080810080000000000000088
:1042C000010202030405060708090A0B0C0D0E0F74
:1042D0001010010202030405060708090A0B0C0D61
:1042E0000E0F101000000000000000000102030487
:1042F0000607080900000000010203041C4300082F
:1043000000000020640000005039000880430008CD
:1043100064000020FC09000060390008000801402A
:104320000200000000000000000000000008014042
:104330000400000000000000000000000008014030
:104340000800000000000000000000000000000065
:10435000000000000000000000000000000000005D
:1043600000000000640000000000000001000000E8
:10437000100000000000000000127A0000000000A1
:04000005080000ED02
:00000001FF
