:020000040800F2
:1000000068090020050100086B260008F1160008A9
:100010006926000843020008352D00080000000092
:10002000000000000000000000000000052A000899
:100030004502000800000000AD270008072A00085C
:100040001F0100081F0100081F0100081F01000810
:100050001F0100081F0100081F0100081F01000800
:100060001F0100081F0100081F0100081F010008F0
:100070001F0100081F0100081F0100081F010008E0
:100080001F0100081F0100081F0100081F010008D0
:100090001F0100081F0100081F0100081F010008C0
:1000A0001F0100081F0100081F0100081F010008B0
:1000B0001F0100081F0100081F01000801170008A8
:1000C000F51600081F0100081F0100081F010008A5
:1000D0001F010008ED2C00081F010008F92C000882
:1000E0001F0100081F0100081F010008DFF810D0E1
:1000F00000F086F80048004739320008AFF300806E
:10010000680900200648804706480047FEE7FEE7EA
:10011000FEE7FEE7FEE7FEE7FEE7FEE7FEE7FEE7B7
:10012000692A0008ED000008202A04DB203A21FAA1
:1001300002F00021704721FA02F3D040C2F1200200
:10014000914008431946704740EA01039B0703D0DA
:1001500009E008C9121F08C0042AFAD203E011F806
:10016000013B00F8013B521EF9D27047D2B201E0C8
:1001700000F8012B491EFBD270470022F6E710B5AC
:1001800013460A4604461946FFF7F0FF204610BD05
:10019000421C10F8011B0029FBD1801A70472DE981
:1001A000F05F0546002092469B46884606468146FB
:1001B00040241BE02846414647462246FFF7B4FF4D
:1001C00053465A46C01A914110D31146184622464A
:1001D00000F028F82D1A67EB01084F46224601204F
:1001E000002100F01FF817EB00094E41201EA4F17A
:1001F0000104DFDC484631462A464346BDE8F09F0D
:10020000064C074D06E0E06840F0010394E8070063
:1002100098471034AC42F6D3FFF76CFF3035000836
:1002200050350008202A04DB203A00FA02F10020B1
:1002300070479140C2F1200320FA03F31943904024
:100240007047FEE7704772B6FEE710B590F82110D0
:100250000022022905D00421816380F8202001209A
:1002600010BD01680B6823F00E030B6001680B687A
:1002700023F001030B6090F84030C46B012101FAB8
:1002800003F3636080F8211080F82020104610BD31
:1002900010B590F821100024022903D004218163B5
:1002A00001243DE001680A6822F00E020A6001683C
:1002B0000A6822F001020A601A4A0168914201D1DB
:1002C000012121E0174A1432914201D110211BE093
:1002D000144A2832914201D1891515E0114A3C3265
:1002E000914201D189140FE00E4A5032914202D15D
:1002F0004FF4803108E00B4A6432914202D14FF44E
:10030000801101E04FF08071064A083A51600121E6
:1003100080F82110002180F82010416B01B188473E
:10032000204610BD0800024090F8210070470000F0
:1003300070B5044600F008F90546601C02D0044878
:100340000078044400F000F9401BA042FAD370BDCD
:10035000300000202DE9F84FDFF8B8910024A9F112
:10036000040B23460F2709F1040AABF1040EC9E080
:100370000125A5402A40AA427DD1674ED1F804C08C
:10038000ACEB0608B44532D014DCBCF1030F3AD014
:1003900009DCBCF1000F2AD0BCF1010F1CD0BCF16C
:1003A000020F31D11DE0BCF1110F17D0BCF1120FBB
:1003B0002AD119E0B8F5881F19D006DCB8F5803FBE
:1003C00015D0B8F5801F1FD111E0B8F5001F0ED071
:1003D000B8F5041F18D10AE0CB6815E0CB681B1DE7
:1003E00012E0CB6808330FE0CB680C330CE08B686D
:1003F0002BB1012B4FF0080303D0456104E0042327
:1004000002E0056100E00023FF2A01D8064601E072
:1004100000F104064FEA840501D9A5F12005D6F8BC
:10042000008007FA05FC28EA0C0803FA05F548EAFB
:100430000508C6F800804D68ED0062D5374DAE69FD
:1004400046F00106AE61AD6924F0030605F0010532
:100450000095334D06EB050CDCF80850A607360F67
:1004600007FA06F825EA0805DFF8B880404503D109
:100470004FF0000817E044E0DFF8AC80404502D1BF
:100480004FF001080FE0DFF8A480404502D14FF0A3
:10049000020808E0DFF89880404502D14FF00308D9
:1004A00001E04FF0040808FA06F848EA0508CCF81D
:1004B00008804D68D9F80060ED024D4601D516431D
:1004C00000E096432E604D68DAF80060AD025546B4
:1004D00001D5164300E096432E604D68DBF80060BE
:1004E000AD035D4601D5164300E096432E604D688E
:1004F000DEF80060ED03754601D5164300E0964333
:100500002E60641C0D682A46E5407FF431AFBDE8DB
:10051000F88F000008040140000011100010024094
:100520000000014000080140000C014000100140A3
:10053000001401408068084000D0012070470AB1D3
:10054000016170470904FBE70148806870470000BB
:1005500030000020704770472DE9F04101680446E3
:100560004A694E6890F83E000025D743FA050BD43F
:10057000F243D20508D46FF4807201254A612168E4
:100580000A6842F400420A60B90508D4F143C9057B
:1005900005D422686FF4007145F0020551617905B8
:1005A00025D4F143C90522D4638D94F83D10226B04
:1005B000202808D13BB9212910D029290ED028297B
:1005C00001D1212A0AD022686FF48061516145F07F
:1005D0000405102806D0402804D008E0204601F089
:1005E000FBFC04E02068016841F4007101603805FB
:1005F00008D4F043C00505D421686FF4006045F0CD
:1006000008054861002D07D0206C2843206420464F
:10061000BDE8F04101F0E0B8BDE8F0812DE9F04718
:10062000026800215368C66A90F83E4090F83D5039
:10063000102C12D0402C10D0046C002C7DD05469AA
:10064000E443A6077AD4DE43B60577D4036C03B13E
:100650009169BDE8F04701F09BBC976951694FF47F
:100660002A0CC9435FEAC1784FF02A4904D0664595
:100670002AD04E4528D010E0DE43B6050DD4C16A1D
:10068000614501D1012103E0C16A494501D1082139
:10069000C162BDE8F04701F0E1BB0E0716D4DE43AE
:1006A000B60513D4416CC9B21161416B09B1896AB5
:1006B00029B9816B002907D0896A002904D0006814
:1006C000416841F400614160BDE8F0878E0706D4BF
:1006D000DE43B60503D4BDE8F04701F013BBFE438B
:1006E000526876074FEA02521DD4002AECDB0A0654
:1006F00008D4DA43520505D4490705D5BDE8F047CB
:1007000001F0A4BA4907DFD4D9438905DCD4212DEF
:1007100005D0402CD8D1BDE8F04701F0E5BBBDE8DD
:10072000F04701F051BA002ACEDB4A060BD4DA4377
:10073000520508D4490708D501E00DE00EE0BDE8F8
:10074000F04701F079B94907BED4D9438905BBD434
:10075000BDE8F04701F003B9916970E7E10606D4FE
:10076000D943890503D4BDE8F04701F07DBC2821B9
:10077000212D27D0292D25D0650655D4DD436D05C3
:1007800052D4640752D590F83D30448D002C9BD054
:100790001269446A2270426A521C4262428D521EA1
:1007A0004285428D002A8FD12A2B8DD10268536851
:1007B00023F4806353602222026380F83D1000F02E
:1007C000E5F981E7250623D4DD436D0520D46407D0
:1007D00020D590F83D30448D002CF2D0446A247826
:1007E0001461426A521C4262428D521E4285428D01
:1007F000002AE6D1292BE4D10268536823F48063F0
:1008000053602122026380F83D1000F0C0F95BE7DD
:100810006107D6D4D9438905D3D4418D0029D0D0DE
:10082000416A097811610AE06107CAD4D943890590
:10083000C7D4418D0029C4D01169426A1170416A40
:10084000491C4162418D491E41853DE770470000CA
:1008500070B5040025D094F83D00002520B984F837
:100860003C50204600F054F9242084F83D002068D4
:10087000016821F0010101602068016841F4004134
:1008800001602068016821F40041016000F0B4FAC1
:100890004D4A6168914201D84C4900E04C49884278
:1008A00001D2012070BD4B492368B0FBF1F15E68B5
:1008B00026F03F060E435E606368934206D94FF40C
:1008C000967359434FF47A73B1FBF3F12368491CD3
:1008D0001E6A26F03F06314319626168914210D8C2
:1008E0004900401EB0FBF1F2521CC2F30B02042A75
:1008F00001D2042022E0B0FBF1F0401CC0F30B0059
:100900001CE0A268F2B301EBC10303EB0116431E26
:10091000B3FBF6F35B1C43F480431B0549D092B351
:1009200001EBC10202EB0111401EB0FBF1F0401CD3
:10093000C0F30B0040F4804040F400402168CA69D5
:100940004CF6FF739A431043C861D4E90710014382
:100950002068026822F0C00211430160D4E903015B
:1009600001432068826848F2FF339A431143816053
:10097000D4E9050108432168CA6822F0FF02104348
:10098000C86001E00EE016E02068016841F0010156
:1009900001602564202084F83D00256384F83E50E2
:1009A000002070BD01EB4106431EB3FBF6F35B1C58
:1009B000B3E70120C2E701EB4101401EB0FBF1F0BB
:1009C000401CC0F30B00B7E7A086010080841E0026
:1009D00000093D0040420F0070477047704700001B
:1009E0002DE9F84F1F4690468A460446DDF82890C8
:1009F000FFF7AAFD054694F83D0020287FD1192372
:100A0000012240492046009501F008FC002876D1DB
:100A100094F83C00012872D0012084F83C00206842
:100A20000168C90703D1016841F001010160206834
:100A3000016821F400610160212084F83D0010204C
:100A400084F83E0000262664C4F824806785608D03
:100A500020852D48E0622B464A465146204601F04B
:100A600065F890B9206841698069009036E02A46AF
:100A70004946204601F078FC50B1206C042804D18E
:100A80002068016841F4007101600120BDE8F88F21
:100A9000606A216800780861606A401C6062618D4C
:100AA000491E6185218D491E89B2218522685369BD
:100AB000DB435B070BD451B100781061606A401CC6
:100AC0006062608D401E6085208D401E20852A4614
:100AD0004946204601F076FB0028CED1208D002823
:100AE000C5D154F83D0B016841F40071016020202C
:100AF00004F81E09E67766770020C7E7FFE70220C3
:100B0000C4E70000020010000000FFFF70477047BC
:100B100010B586B000210091019102910391006807
:100B2000174988422AD1174CA06940F00800A061FB
:100B3000A069694600F008000490C02000901220CF
:100B40000190032003901048FFF704FCE06940F493
:100B50000010E061E069002200F4001004901146EA
:100B60001F2000F07BF81F2000F06AF800221146D9
:100B7000202000F073F8202000F062F806B010BDCD
:100B80000054004000100240000C014070477047C4
:100B9000024881680278114481607047300000206B
:100BA000074810B5016841F010010160032000F012
:100BB00075F80F2000F006F800F024F8002010BDB2
:100BC0000020024070B50D4D04464FF47A7128782C
:100BD000B1FBF0F00A490968B1FBF0F000F0E2FA6D
:100BE00048B9102C07D200222146501E00F036F8DA
:100BF00000206C6070BD012070BD0000300000203E
:100C00003C0000200C4808B5816941F00101816178
:100C1000816901F001010091C16941F08051C16118
:100C2000C06900F0805000900448416821F0E06104
:100C300041F00071416008BD001002400000014019
:100C4000002809DB00F01F020121914040098000CB
:100C500000F1E020C0F8001170470000F0B40E4B26
:100C60001B680C46C3F30223C3F10705042D00D90A
:100C70000425191D072901D2002300E0DB1E0126EF
:100C800006FA05F1491E214099409E40761E164005
:100C90003143F0BC02F074B80CED00E0064900F0FE
:100CA000070208684FF6FF03184040EA0220034A93
:100CB00010430860704700000CED00E00000FA05EA
:100CC000014900200862704700000E422DE9F047FC
:100CD0000F46050061D0434E306800F00700B8426F
:100CE00009D2306820F0070038433060306800F0E7
:100CF0000700B84251D128683B4C810712D5400704
:100D000003D5606840F4E06060602878000703D590
:100D1000606840F4605060606068A96820F0F0008E
:100D2000084360602878C00728D06868012810D080
:100D30002168022810D0890700292EDA616821F085
:100D4000030101436160FFF7FFFB804641F28839F0
:100D50000DE021688903EFE78901EDE7FFF7F4FB78
:100D6000A0EB0801494502D90320BDE8F08760687F
:100D7000696800F00C00B0EB810FEFD1306800F033
:100D80000700B8420BD9306820F0070038433060C4
:100D9000306800F00700B84201D00120E5E728786C
:100DA000400705D56068E96820F4E06008436060AA
:100DB0002878000706D56068296920F4605040EA69
:100DC000C100606000F038F86168084AC1F303119F
:100DD000515CC8400649086006480068FFF7F2FE0B
:100DE0000020C2E700200240001002401735000832
:100DF0003C00002034000020044805490068496890
:100E0000044AC1F30221515CC84070473C000020F5
:100E10000010024027350008044805490068496869
:100E2000044AC1F3C221515CC84070473C00002015
:100E300000100240273500080E4A51680E4801F0A4
:100E40000C03042B11D0082B0FD10C48C1F38343A2
:100E5000C903C05C0AD55168084AC1F34041921EDB
:100E6000515C054A5043B0FBF1F0704704494843D8
:100E7000704700000010024000127A000735000899
:100E800000093D002DE9F84F040070D02078C04DD6
:100E9000C00749D06868C0F38100012807D068689E
:100EA000C0F38100022809D16868C00306D528680C
:100EB000800339D560680028E7D035E06068B0F578
:100EC000803F0BD010B1B0F5A02F11D0286820F4CE
:100ED00080302860286820F4802002E0286840F4F0
:100EE00080302860606890B1FFF72EFB06460AE06C
:100EF000286840F480202860F0E700BFFFF724FB5B
:100F0000801B642873D828688003F7D50CE0FFF7AE
:100F10001BFB064605E000BFFFF716FB801B64289D
:100F2000F0D828688003F7D420789A4E80074FF0D5
:100F300001094FF0000839D5686810F00C0F07D090
:100F40006868C0F38100022809D16868C00306D42C
:100F50002868800714D52069012808D110E020698D
:100F6000B0B1C6F80090FFF7EFFA074605E00AE1D6
:100F7000FFF7EAFAC01B0228C4D828688007F7D513
:100F80002868616920F0F80040EAC10028600DE09F
:100F9000C6F80080FFF7D8FA074604E0FFF7D4FA56
:100FA000C01B022823D828688007F7D420780007C0
:100FB0002CD57948A169D9B1C0F80090FFF7C4FADF
:100FC000074604E0FFF7C0FAC01B02280FD8686A82
:100FD0008007F7D571484FF4FA510068B0FBF1F083
:100FE000009000BF0098411E0091FAD20EE080E010
:100FF000C0F80080FFF7A8FA074604E0FFF7A4FA5C
:10100000C01B022875D8686A8007F7D4207840078B
:1010100060D5E8690027C00008D4E86940F0805036
:10102000E861E869012700F0805000905C480168A1
:10103000C90513D40168834641F480710160FFF74C
:1010400083FA824606E000BFFFF77EFAA0EB0A00B3
:1010500064284ED8DBF80000C005F5D5E06801280B
:101060000AD008B1052813D0286A20F001002862B0
:10107000286A20F0040002E0286A40F0010028629B
:10108000E06841F2883B98B1FFF75EFA82460BE0D8
:10109000286A40F004002862EEE700BFFFF754FA28
:1010A000A0EB0A0159455AD8286A8007F6D50CE00A
:1010B000FFF74AFA824605E0FFF746FAA0EB0A017D
:1010C00059454CD8286A8007F6D41FB1E86920F04A
:1010D0008050E861E06988B36968C1F38101022941
:1010E00044D00228C6F8608004D0FFF72DFA0446E9
:1010F00038E034E0FFF728FA074604E0FFF724FA67
:10110000C01B02282BD828688001F7D4206AB0F5CC
:10111000803F05D16868A16820F40030084368600A
:10112000D4E908010843696821F474110843686030
:10113000C6F86090FFF708FA044606E025E000BF15
:10114000FFF702FA001B022809D828688001F7D5AA
:101150001BE000BFFFF7F8F9001B022802D90320AB
:10116000BDE8F88F28688001F4D40EE00128F7D09C
:101170006868226A00F48031914204D1616A00F407
:101180007010884201D00120EAE70020E8E7000063
:101190000010024000004242800442423C00002015
:1011A0000070004010B5401EB0F1807F01D30120D7
:1011B00010BD4FF0E02460610F21601701F0E0FDE9
:1011C0000020A06107202061002010BD70477047FB
:1011D000F8B5016804460868CA684B6910F00F0F3B
:1011E0004FF0000559D003F0010602F49077374321
:1011F00065D0C10705D0D10503D5616C41F001016F
:101200006164410705D5D90703D0616C41F0020143
:101210006164810705D5D90703D0616C41F00401F1
:101220006164010707D502F02001314303D0616CEE
:1012300041F008016164616C00293AD0800604D550
:10124000900602D5204601F03FFC20684069616CA1
:10125000C0F38010090700D460B3204601F00DFCF4
:1012600020684069400621D52068143050E8001FEE
:1012700021F0400140E80012002AF5D1E06BA8B14E
:101280006D494163E06BFFF703F8002811D0E06B74
:10129000416B01B0BDE8F040084783060FD59306C7
:1012A0000DD52046BDE8F84001F00EBC2046FFF702
:1012B0008EFFF8BD2046FFF78AFF6564F8BD266BF8
:1012C0002023012E7CD1C6067AD5D60678D50868AB
:1012D0004868009048694FF00206400640D5E16B2F
:1012E000086840680004000CE8D0A28D8242E5D96D
:1012F000E085886920282DD020680C3050E8001F38
:1013000021F4807140E80012002AF5D120681430E1
:1013100050E8001F21F0010140E80012002AF5D139
:101320002068143050E8001F21F0400140E800120E
:10133000002AF5D184F84230256320680C3050E84B
:10134000001F21F0100140E80012002AF5D1E06BE7
:10135000FEF77BFF6663A08DE18D401A81B22AE023
:10136000A08DE18D401A81B2E08D0028A6D0002921
:10137000A4D022680C3252E8000F20F4907042E8AA
:101380000007002FF5D12068143050E8002F22F01C
:10139000010240E80027002FF5D184F84230256390
:1013A00020680C3050E8002F22F0100240E80023A3
:1013B000002BF5D166632046FFF708FFF8BDFFE775
:1013C00005062BD5150629D594F841002128F5D11D
:1013D000A068B0F5805F01D12069B0B1206A411CDE
:1013E0002162216800784860E08C401E0004000CF7
:1013F000E084E3D12068C16821F08001C1602068E9
:10140000C16841F04001C160D8E7206A0088C0F39C
:1014100008004860206A801C2062E5E74006CDD5C0
:101420005006CBD5CA68204622F04002CA6084F834
:10143000413000F039F9C1E76B2A000870B50400AB
:1014400004D094F84100002510B106E0012070BDE1
:1014500084F84050204600F023F8242084F841000E
:101460002068C16821F40051C160204601F08EFB64
:101470002068016921F4904101612068416921F0EF
:101480002A0141612068C16841F40051C16065646E
:10149000202084F8410084F842006563002070BD7C
:1014A00070B586B0002400940194029403940368FC
:1014B0002E482D4E022103220515B34226D1836901
:1014C00043F480438361836903F480430493836915
:1014D00043F0040383618069254E00F0040004900A
:1014E0000802CDE90001039269463046FEF732FF5B
:1014F000CDE90054694630460294FEF72BFF0022E6
:1015000011462520FFF7AAFB252028E0194EB342FB
:1015100027D1C36943F48023C361C36903F48023E3
:101520000493836943F0080383618069CDE9005126
:1015300000F00800CDE903200F4D69462846FEF76C
:1015400009FFE814CDE90004694628460294FEF735
:1015500001FF002211462720FFF780FB2720FFF71D
:101560006FFB06B070BD0000003801400010024063
:101570000008014000480040000C014090F8423053
:10158000202B01D00220704721B11AB10023036340
:1015900001F058BB0120704700680A49884210D109
:1015A00009480A4B418802785A54491C89B2418043
:1015B000FF2901D900214180012203490448FFF796
:1015C000DDBF7047004800402C000020D8030020F9
:1015D000200500202DE9F843044690F84100984684
:1015E00016460D46202802D00220BDE8F88385B1BA
:1015F0007EB100206064212084F84100FEF7A4FF42
:10160000A6848146E684A0682027B0F5805F02D0DA
:1016100003E00120E9E7206910B12E4600250EE025
:1016200000260CE08021204601F027FBA8B9C6B1B6
:1016300016F8010B21684860E08C401EE084E08CC5
:101640004B464FF00002CDF800800028EAD14FF061
:101650004001204601F011FB40B184F841700320A5
:10166000C3E735F8020BC0F30800E3E784F84170E4
:101670000020BAE790F84130202B01D002207047BB
:1016800079B172B101628284C28400214164212156
:1016900080F841100068C16841F08001C1600020FD
:1016A000704701207047000010B500680C4988425F
:1016B00014D10C4800680168C9434906FBD40020D6
:1016C00000BF401CC0B21128FAD300224FF4807131
:1016D0000548FEF734FF05490020487010BD0000A2
:1016E0000048004020050020000C014010000020B0
:1016F000FEE700000148FEF72FBF00008403002032
:101700000148FEF78BBF00008403002038B5406A13
:10171000002190F83D202B4B46F2A8141B68B3FB28
:10172000F4F3C3EBC30303EB830300933BB15B1EF2
:10173000009303681B689B0505D5009BF6E7036CC7
:1017400043F020030364436B03B19962836B03B1DD
:10175000996203681C6824F480641C604185436BB3
:1017600003B15963836B03B1596303681C6824F0A8
:1017700001041C6090F83D402023602C0BD02824ED
:1017800034EA02020FD080F83D3080F83E1000BFEE
:10179000FFF75CF838BD80F83D3080F83E100164FA
:1017A000FEF7D8FE38BD0268136843F001031360EA
:1017B0000268136843F480631360016380F83D405E
:1017C000E6E700003C00002000684169C9430906C3
:1017D00001D400210161704770B5044690F83D00C6
:1017E00094F83E10102901D0402906D1222804D1B6
:1017F00021680A6822F400620A60282131EA0002A6
:101800004FF000054FF0200626D0216849680905F1
:1018100005D4602803D084F83D6084F83E502563E9
:1018200020684168090537D5416821F400614160AD
:10183000606B90F821203C49012A11D04163606B14
:10184000FEF726FD38B32068016821F00101016030
:1018500084F83D60606B1CE0256384F83D10DFE791
:10186000A06B4163A06BFEF713FDA0B12068416936
:10187000C943490605D40069616A0870606A401C62
:1018800060622068016821F00101016084F83D6018
:10189000A06B416B884710E094F83D10602910D090
:1018A0004169C943490605D40069616A0870606AE4
:1018B000401C60622046FEF7C9FF206CC1071CD1A6
:1018C00015E084F83D6025644169C943490605D4A3
:1018D0000069616A0870606A401C60622068016883
:1018E00021F0010101602046FEF734FEE5E78107A3
:1018F00003D4410701D4000704D52068416821F4CE
:10190000E061416094F83D00216C49070BD528281F
:1019100009D10648E062256384F83D6084F83E50B2
:101920002046FFF759F870BD0D1700080000FFFFB3
:1019300001684A69D24352050FD46FF480624A614C
:10194000002140F8301F202242738173026942F067
:10195000040202610173012070470020704710B536
:10196000C26A438D0168042B06D0438D032B08D037
:10197000438D022B1DD012E04A6822F480624A6037
:101980000CE04B6823F480634B60042A06D0022AE3
:1019900004D001680A6822F480620A60016809695B
:1019A000426A1170416A491C4162418D491E41855C
:1019B00010BD012A34D0102A32D0042A34D0022A91
:1019C00032D00B6843F400730B6001680969436A05
:1019D0001970416A491C4162438D5B1E438503684F
:1019E0001B690B70416A491C4162418D491E41854A
:1019F00001684B6823F440734B60202180F83D1050
:101A000090F83E300021402B80F83E1010D0082A7C
:101A100002D0202A00D012210163FEF7DEFF10BDA4
:101A20000B6823F48063CFE70B6843F48063CBE754
:101A30000163FFF76BF810BD38B590F83D1022290F
:101A400010D1C36A418D03290DD901680969426A21
:101A50001170416A491C4162418D491E4185418D89
:101A6000032906D038BDC26A022A02D0012906D055
:101A700029B10068416821F48061416038BD2A4A7B
:101A800046F2A81400211268B2FBF4F202EB8202C3
:101A9000009202682024009D6D1E009526D01568D6
:101AA000AD05F8D4156825F48065156002685568A1
:101AB00025F4E065556002681269456A2A70426A39
:101AC000521C4262428D521E428580F83D4090F881
:101AD0003E2080F83E10402A21D0082B02D0202B37
:101AE00000D012210163FEF778FF38BD036C43F08C
:101AF00020030364536823F4E063536002681269AF
:101B0000436A1A70426A521C4262428D521E4285DA
:101B100080F83D4080F83E10FEF798FE38BD016326
:101B2000FEF7F4FF38BD00003C000020F8B5044685
:101B3000C06A1E460D461746082807D0012805D062
:101B400010F5803F02D0206B122804D12068016874
:101B500041F480710160134600224FF001112046CC
:101B6000009600F05BFB40B120680068C00502D51C
:101B70004FF4007020640320F8BD2069B0F5804F59
:101B80000ED00620216800EAD51040F0F000086170
:101B900033463A460B49204600F088FB78B902E00C
:101BA00005F0FE0000E0E8B221680861054933460F
:101BB0003A46891F204600F079FB0028DCD001203E
:101BC000F8BD00000800010010B5C26A90F83D1091
:101BD00021290BD1418D51B1416A02680978116107
:101BE000416A491C4162418D491E418510BD202337
:101BF0000021082A13D0202A11D012F5803F0ED0E0
:101C00000268546824F4E06454601122026380F88E
:101C10003E1080F83D3000BFFEF7E0FE10BD0268C8
:101C2000546824F4E06454600268146844F4007456
:101C30001460016380F83D3090F83E2080F83E103B
:101C4000402AE9D1FEF763FF10BD000010B590F8FF
:101C50003D1090F83E30C26A048DB4B1212903D002
:101C6000402B11D122290FD1418DE1B390F83E10C4
:101C7000402942D0416A026809781161416A491CD1
:101C80004162418D491E418510BD2129E8D12023A3
:101C90000021082A13D0202A11D012F5803F0ED03F
:101CA0000268546824F4E06454601122026380F8EE
:101CB0003E1080F83D3000BFFEF790FE10BD026878
:101CC000546824F4E06454600268146844F40074B6
:101CD0001460016380F83D3090F83E2080F83E109B
:101CE000402AE9D100E002E0FEF711FF10BD0068D4
:101CF000416821F48061416010BDBDE8104000F0F2
:101D0000F3B8000078B590F83E50C26A046B90F8C2
:101D10003D6000230168222E73D1066D0EB9402D5F
:101D20006FD0056D1DB90569B5F5404F1BD0458DC8
:101D300095B3468D484D012E20D0448D022C4DD0B8
:101D40000C6844F480640C6001684C68240579D503
:101D5000AA4273D0012A71D0082A6FD0102A6DD000
:101D6000202A6BD06EE04A698A6900920A6842F4C0
:101D700080720A60016D491C016578BDAA4214D1C8
:101D80000A6822F480620A6001684A68120504D574
:101D90000A6822F4806217E0FFE74A698A690092C4
:101DA0000A6842F400720A6050E0082A10D0202A23
:101DB0000ED0122C0AD0042A03D0022A01D0102AF5
:101DC000E6D10A6842F480620A603BE0012ADFD073
:101DD0000A6822F480620A600168DEE7042A11D0F2
:101DE000022A0FD0102A0DD00C6844F400640C6055
:101DF00001684C698C6900940C6824F480640C6060
:101E000008E025E00C6844F480640C6001684C69CB
:101E10008969009101684C68240517D5AA4207D04A
:101E2000012A05D0082A03D0102A01D0202A0DD17A
:101E30004A6842F480524A6008E0FFE74A6842F488
:101E400080524A6001684A6989690091036578BDDA
:101E500048698869009078BD0000FFFF90F83E1047
:101E6000402910D00169B1F5804F19D0016DA9B397
:101E7000016D012910D1416C5FF0F10201F4407154
:101E800042EAD11106E0016D0029416C05D0C9B2CA
:101E900041F0010100680161704701F0FE01F9E7BE
:101EA00090F83D102129416C09D0C9B241F00101DF
:101EB00002681161416B29B1896A49B902E001F0F8
:101EC000FE01F5E7816B0029E6D0896A0029E3D09D
:101ED0000068416841F4006141607047FFE7416C70
:101EE000F02201F44071CBE710B590F83D10026D7F
:101EF0004AB1026D012A14D0026D022A16D0BDE843
:101F00001040FFF761BCC16C0129816C02D0C1F3A4
:101F1000072108E00268C9B21161016D891C0165E1
:101F200010BD816CC9B20268116123E022291CD066
:101F3000428D0AB1212920D0428D002AF0D12129D9
:101F4000EED101684A6822F4E0624A6001680A68DA
:101F500042F400720A6000210163202280F83D20D3
:101F600080F83E10FEF7D3FD10BD01680A6842F408
:101F700080720A60016D491CD1E7416A02680978E4
:101F80001161416A491C4162418D491E418510BD64
:101F900038B50C4690F83D2000212825954302686D
:101FA0000B4605D051699169009180F83C3038BDED
:101FB000556825F480655560E243540700D501213A
:101FC000120601D5828900E0028B80F83C3092B283
:101FD000FEF7C1FA38BD00002DE9F04190F83D3020
:101FE0000446C26A002120261E4F00686FF48065F7
:101FF000082A01D0202A01D1282B04D0212B17D068
:102000004561BDE8F081E762426822F4E062426027
:10201000206845612068026822F4806202602163C2
:1020200084F83D6084F83E102046FEF7D5FCE8E7D2
:10203000E7622122226384F83D6084F83E10416803
:1020400021F4E0614160206845612068016821F465
:10205000806101602046FFF7B7FB2046FEF797FD41
:10206000CFE700000000FFFFF8B590F83D600446A0
:102070000068416821F4E061416020680025416901
:102080000091016841F0010101602068016821F4BC
:102090008061016020684168090520D5474F222EE4
:1020A00048D02A2E46D0616B096849686185618DE8
:1020B00019B1216C41F004012164416821F40061EF
:1020C0004160606BFEF730F9012808D0606B476310
:1020D000606BFEF7DDF810B1606B416B8847608D77
:1020E00008B320684169C943490708D40069616A97
:1020F0000870606A401C6062608D401E60852068C8
:102100004169C943490608D40069616A0870606A78
:10211000401C6062608D401E6085608D18B1206C2F
:1021200040F004002064206C00B32046BDE8F84075
:10213000FFF752BBA16B096849686185618D19B1D0
:10214000216C41F004012164416821F40061416087
:10215000A06BFEF7E9F80128C1D0A06B4763A06B24
:10216000FEF796F80028BAD0A06BB6E72A2E06D163
:102170002563282084F83D002046FEF707FD94F8EB
:102180003D10202028290DD0216B222901D0222E9C
:1021900007D1256384F83D0084F83E502046FEF7C1
:1021A000F5FCF8BD0649E162256384F83D0084F83A
:1021B0003E502046FEF710FCF8BD00000D17000849
:1021C0000000FFFF70B516460D4604461EE020468F
:1021D000FFF7AEFB08B1012070BD681C16D0FEF7FA
:1021E000B3F9801BA84200D885B920684069C04374
:1021F00040070BD5002044F8300F20216173A073F5
:10220000216941F0200121612073E4E720684069E1
:10221000C0434007DBD4002070BD00002DE9F0472B
:10222000984617460D460446C1F30746DDF8209050
:102230002AE000BFB8F1FF3F26D0FEF785F9A0EBFA
:102240000901414502D8B8F1000F1DD12068012EC7
:1022500016D0806925EA00000004000C12D000208E
:10226000B84211D1002044F8300F20216173A073CF
:10227000216941F02001216120730120BDE8F08730
:102280004069E7E70120EBE72068012E0AD080696A
:1022900025EA00000004000C06D00020B842C9D096
:1022A0000020EBE74069F3E70120F7E72DE9F0476D
:1022B000984616460D4604464FF000094FF0200A96
:1022C000C1F3074723E020684069C043400515D4A7
:1022D0002068016841F40071016021686FF480603A
:1022E0004861C4F8309084F83DA084F83E90216C99
:1022F00041F00401216484F83C9021E0701C06D078
:10230000FEF722F9A0EB0800B04203D816B1012F66
:102310001FD021E02068012F15D0806925EA000038
:102320000004000C18D000BF44F8309F84F80DA0C2
:1023300084F80E90216941F02001216184F80C900D
:102340000120BDE8F087406925EA00000004000C88
:10235000EAD12068406901E02068806925EA000030
:102360000004000CAFD1ECE770B516460D460446EC
:102370001EE02046FFF7DCFA08B1012070BD681CA2
:1023800016D0FEF7E1F8801BA84200D885B9206876
:102390004069C04300060BD5002044F8300F2021CF
:1023A0006173A073216941F0200121612073E4E78A
:1023B00020684069C0430006DBD4002070BD10B522
:1023C0000024204600F018F8641CE4B2022CF8D374
:1023D00010BD000010B5074A0020941C0146131DD3
:1023E0001154215443F82010401CC0B20228F7D3E6
:1023F00010BD0000000000202DE9F047DFF88090BC
:1024000004004FF0000502D0012C03D00AE00121A6
:10241000484602E04FF400511A48FEF78BF80128B5
:102420000ED00025DFF8608008F1020718F80400DC
:102430003E1FA84206D0FEF787F847F824001AE0AE
:102440000125EFE7FEF780F857F82410401A14280A
:1024500011D3305DA8420ED03555012240214F46A0
:102460004846FEF76CF80520FDF762FF0022402188
:102470003846FEF764F808F80450305DBDE8F08790
:1024800000080140001001400200002010B50C4C73
:10249000012202212046FEF752F8012204212046A3
:1024A000FEF74DF8012208212046FEF748F80020EB
:1024B000044901220A54401CC0B20328FAD310BDBB
:1024C000000801400C000020F0B585B00024304821
:1024D0000094019402940394816941F01001816198
:1024E000816901F010010491816941F0200181614D
:1024F000816901F020010491816941F00401816149
:10250000816901F004010491816941F00801816150
:10251000816901F008010491C16941F08051C161F4
:10252000C06900F080500490FEF7CAFB194F0122E9
:102530004E213846FEF703F8781402268DE8510044
:1025400069461548FDF706FF0125CDE900546946A7
:1025500038460296FDF7FEFE4E200326CDE9000523
:10256000CDE9024669463846FDF7F4FE2F02009792
:102570000396CDE90154094C69462046FDF7EAFE71
:10258000002239462046FDF7DAFF05B0F0BD000015
:10259000001002400008014000100140000C014002
:1025A0000D4810B50B4901600C49416000214FF402
:1025B00080428160C0E9031241618161C1610162B1
:1025C000FEF746F9002803D0BDE81040FDF73BBEFA
:1025D00010BD00000054004084030020801A060053
:1025E0000C4810B50A4901604FF4E1314160002107
:1025F00081600C22C160C0E904128161C161FEF7F3
:102600001DFF002803D0BDE81040FDF71CBE10BD23
:1026100000380140D804002010B5114C0F480C219F
:1026200020604FF4E13060600020A060E060C4E909
:102630000401A061E0612046FEF700FF08B1FDF74C
:1026400002FE2068C16841F01001C160BDE8104081
:10265000012204490248FEF791BF000000480040F3
:10266000200500202C000020FEE7FEE770B50024C6
:1026700004F1B000C0B200F075F8002000F072F86C
:10268000102000F06FF80025002000F07DF86D1C90
:10269000EDB2802DF8D3641CE4B2082CE8D370BDF1
:1026A00070B56420FDF744FE074D0024285D00F05E
:1026B00059F8641CE4B2192CF8D3FFF7D7FFBDE832
:1026C0007040AF2000F04EB8AC32000810B50446A0
:1026D000B031C8B200F046F804F00F0000F042F844
:1026E000102000EB1410BDE8104000F03BB80000D3
:1026F00070B5203AD5B27A2802D90020491CC9B257
:10270000072900D90021FFF7E1FF074905EB450044
:10271000002401EB4005285D00F036F8641CE4B2AB
:10272000062CF8D370BD0000C53200082DE9F04139
:1027300017460D46044600260FE029462046FFF7BF
:10274000D7FFA41DE4B27A2C02D900246D1CEDB28F
:10275000072D00D90025761CF6B2BA5D002AECD10F
:10276000BDE8F0811CB500218DF804108DF805003E
:10277000FF200090022301AA78210248FEF730F9D9
:102780001CBD0000840300201CB540218DF80410FE
:102790008DF80500FF200090022301AA782102484D
:1027A000FEF71EF91CBD00008403002070470000E6
:1027B000F0B589B02FA202210020FFF7B7FF2DA2AC
:1027C00003210020FFF7B2FF2AA204210020FFF717
:1027D000ADFF28A205210020FFF7A8FF2B4D2CA15B
:1027E00068466A8800F0B8FA6A4602210020FFF7BE
:1027F0009DFF688800283AD027A1684600F0ACFA0F
:1028000000246E46264F09E06846FDF7C1FC3044BF
:102810003A5D24A100F0A0FA641CE4B26888844206
:1028200001D2042CF0D36A4603210020FFF77EFF7B
:10283000688804281BD91DA1684600F08DFA6888B5
:10284000042404280ED96846FDF7A2FC30443A5D02
:1028500014A100F081FA641C6888E4B2844201D2B9
:10286000082CF0D36A4604210020FFF75FFF09B06F
:10287000F0BD00002020202020202020202020202B
:102880002020202020202020000000001000002018
:102890004C656E3A2564000044302D333A00000048
:1028A00084010020253032582000000044342D37A8
:1028B0003A00000010B500224FF480710748FDF780
:1028C0003EFE07480021074A418001700846115426
:1028D000401C80B2FF28FAD910BD0000000C014056
:1028E000100000208401002070B50D460646B1F5A9
:1028F000807F25D80A4601461248FDF725FC12487C
:10290000012145800170294610A000F015FA00242D
:1029100005E0315D15A000F00FFA641CA4B2AC42D2
:10292000F7D311A000F008FA2946304600F032F83B
:10293000294610A000F000FABDE87040FFF738BF4C
:1029400070BD000084010020100000200D0A5B52C1
:10295000533438355D20526563656976656420259A
:10296000642062797465733A0D0A0000307825306E
:10297000325820005B52533438355D204563686F10
:10298000206261636B2025642062797465730D0A8F
:10299000000000002DE9F0410D46060027D0002D73
:1029A00025D04FF48077134CBD4220D802E001209F
:1029B000FDF7BEFC60780028F9D12A4631460E4862
:1029C000FDF7C2FB0120E5806070024639460B48E6
:1029D000FDF7B5FD002000BF401CC0B22328FAD38C
:1029E000E288BDE8F04104490548FEF743BEBDE872
:1029F000F08100001000002084020020000C014043
:102A0000200500207047FEF7C3B830B58FB02821ED
:102A10006846FDF7B2FB14210AA8FDF7AEFB0121C1
:102A20000804CDE900100024029402250491CDE9A8
:102A300007504FF4E01009906846FEF723FA08B1FA
:102A400072B6FEE70F20CDE90A054FF48060CDE9AC
:102A50000C4002210AA80E94FEF738F9002801D094
:102A600072B6FEE70FB030BD704710B5406A002166
:102A7000C185C184FEF7ABFB10BD01680C3151E884
:102A8000002F22F4907241E80023002BF5D1016859
:102A9000143151E8002F22F0010241E80023002BFD
:102AA000F5D1016B012909D101680C3151E8002FE2
:102AB00022F0100241E80023002BF5D1202180F8FC
:102AC000421000210163704708B590F84210222996
:102AD00001D0022008BD82684FF480539A4201D190
:102AE000016921B1816A9A421BD04AB10AE00268A9
:102AF000816A5268C2F308020A80816A891C08E070
:102B0000026972B10268526802F07F020A70816A3B
:102B1000491C8162C18D491E0904090CC18503D07D
:102B20001BE002685268F1E70168CA6822F02002DF
:102B3000CA600168CA6822F48072CA6001684A6982
:102B400022F001024A61202180F8421000214163F5
:102B5000026B012A03D0FEF71FFD002008BD0163B0
:102B600001680C3151E8002F22F0100241E80023E7
:102B7000002BF5D101680A68D20602D50A684968B7
:102B80000091818DFEF722FBE7E7000070B5044657
:102B900000680169E26821F4405111430161216933
:102BA000A0680843616908432168CA6841F20C6360
:102BB0009A430243CA6020684169A26921F44071C6
:102BC000114341611E492068884202D1FEF724F971
:102BD00001E0FEF711F900EBC00101EB00126068A3
:102BE00064218000B2FBF0F3B3FBF1F36FF0180641
:102BF0007343B2FBF0F5B2FBF0F605EB830532232D
:102C000003EB0515B5FBF1F5B6FBF1F605F0F005A4
:102C100005EB0615B2FBF0F6B2FBF0F0B0FBF1F0FD
:102C20006FF01802504306EB800003EB0010B0FB7E
:102C3000F1F0216800F00F002844886070BD0000AA
:102C40000038014081628285C285002141642221D1
:102C500080F84210016921B10168CA6842F48072AB
:102C6000CA6001684A6942F001024A610068C168AD
:102C700041F02001C160002070472DE9F8439846DB
:102C800017460D460446089E24E0701C22D0FDF72E
:102C90005BFCA0EB0800B0421AD8CEB12068C16836
:102CA000490717D5802D15D0402D13D00168C94391
:102CB00009070FD401680025406800902046FFF7FF
:102CC000DCFE0820606484F840500120BDE8F883F1
:102CD0000320FBE72068006835EA000004D00020EC
:102CE000B842D2D00020F1E70120F9E70148FEF711
:102CF0006FBA0000D804002038B50B48006801689E
:102D0000C943C9060AD4016800254068074C0090F1
:102D1000218819B10648FFF7E7FD2580BDE8384056
:102D20000148FEF755BA0000200500202E000020C3
:102D3000D8030020FEE700000FB4054B10B503A92F
:102D4000044A029800F03CF810BC5DF814FB000047
:102D500021320008400000200FB4084B10B504A930
:102D600002AA039800F02CF8044602A9002000F003
:102D700052FA204610BC5DF814FB00001732000820
:102D80000907090E002804DB00F1E02080F8001498
:102D9000704700F00F0000F1E02080F8141D70472C
:102DA00002E008C8121F08C1002AFAD17047704714
:102DB000002001E001C1121F002AFBD17047000072
:102DC0002DE9FF4F8DB00F460546002606E0252869
:102DD0000BD0DDE90F1290476D1C761C2878002877
:102DE000F5D111B03046BDE8F08F0024A246A146CF
:102DF0000122E94900E0044315F8013F203B02FAB3
:102E000003F00842F7D128782A2810D06FF02F025B
:102E10002878A0F13001092914D80AEB8A0102EBC5
:102E2000410144F0020400EB010A6D1CF0E701CF00
:102E30005FEA000A03D544F40054CAF1000A44F0E2
:102E400002046D1C28782E2817D115F8010F44F0C4
:102E500004042A280ED06FF02F022878A0F1300148
:102E600009290AD809EB890102EB410100EB0109AC
:102E70006D1CF2E757F8049B6D1C28786C280FD066
:102E800006DC4C2817D068280DD06A2814D104E03D
:102E9000742810D07A280FD10DE044F400140AE011
:102EA00044F4801401E044F440146978814202D172
:102EB00004F580146D1C6D1C28786E281ED00CDC67
:102EC000632830D004DC00288BD0582811D19FE033
:102ED000642867D069280CD164E073282DD004DC05
:102EE0006F2872D0702804D194E075286ED07828AD
:102EF0006DD0DDE90F129047761C4BE1C4F3025010
:102F0000022806D0032809D0042801CF09D0066082
:102F100040E101CFF117C0E900613BE101CF06803C
:102F200038E1067036E117F8040B8DF80000002038
:102F30008DF80100EB46012003E057F804BB4FF089
:102F4000FF3061074FF0000102D40DE008F10101EC
:102F5000884649450FDA8045F8DB1BF80810002940
:102F6000F4D108E008F1010188468142FADB1BF840
:102F700008100029F6D1DDE90F23AAEB08008146ED
:102F8000214600F031F9304400EB080604E0DDE9A9
:102F90000F121BF8010B9047B8F10108F7D2214638
:102FA0004846F2E00A21C4F302524FF0000B0891A8
:102FB000022A04D001CFC117032A09D00AE0FF1D5D
:102FC00027F00707F7E8020108E02CE01EE01FE009
:102FD00000B2C117042A01D140B2C117021E71F11B
:102FE000000206DA0023D0EB030063EB01012D227F
:102FF00002E0220504D52B228DF82420012203E0D3
:10300000E20701D02022F7E7904653E00A210BE0C7
:10301000102109E010214FF0000B44F004044FF0A0
:103020000809089103E008214FF0000B0891C4F350
:103030000252022A04D001CF0021032A06D006E062
:10304000FF1D27F00707F7E8020103E080B2042A1A
:1030500000D1C0B24FF0000822072BD52A78702A81
:1030600007D0DDF820C08CF0100C5CEA0B0C05D00A
:103070000EE040228DF82420012208E050EA0103EE
:1030800006D030238DF824308DF82520022290467A
:10309000089B83F0080353EA0B030BD150EA0102AB
:1030A00001D1620706D530228DF824204FF00108A7
:1030B000A9F101092A78582A04D038A20B9208AA4B
:1030C0000A920BE03AA2F9E75B46089AFDF767F827
:1030D0000B9B9B5C0A9A521E0A92137050EA0102E3
:1030E000F2D10A98ADEB000000F1200B600702D589
:1030F00024F4803401E04FF00109D94502DDA9EB49
:103100000B0000E0002000EB0B0141440890AAEB0B
:10311000010AE00306D4DDE90F232146504600F002
:1031200063F806444FF0000908E009A911F8090006
:10313000DDE90F12904709F10109761CC145F4DB66
:10314000E0030CD5DDE90F232146504600F04CF892
:10315000064404E0DDE90F1230209047761C089900
:10316000481E08900029F5DC08E00A980A990078C2
:10317000491C0A91DDE90F129047761CBBF1000152
:10318000ABF1010BF1DC21465046DDE90F2300F0E5
:1031900019F806446D1C21E609280100303132334C
:1031A0003435363738396162636465660000000083
:1031B000303132333435363738394142434445466D
:1031C000000000002DE9F041044600251E46174688
:1031D000880404D405E039462020B0476D1C641EE5
:1031E000F9D52846BDE8F0812DE9F04104460025D7
:1031F0001E469046C80301D5302700E020278804EA
:1032000004D505E041463846B0476D1C641EF9D52B
:103210002846BDE8F0810A68531C0B6010707047A7
:1032200013B54FF6FF73012269460248FEF7D2F943
:1032300000981CBDD8040020FDF7B2FCFFF7E5FBA9
:10324000FFF742F9FFF7ACF9FFF7CAF9FFF7E4F926
:10325000FFF71CF9FFF7BEF8FFF722FAFFF72AFB8A
:10326000012209490948FEF789F900BFFFF7A7F8CD
:10327000002107A20846FFF759FA09A20121002000
:10328000FFF754FAF2E700002C0000202005002090
:103290005253343835204563686F20546573740089
:1032A00057616974696E672E2E2E0000AED580A816
:1032B0003FD300408D142002A1C8DA1281CFD9F18A
:1032C000DB30A4A6AF0000000000000000002F00CB
:1032D00000000007000700147F147F1400242A7FD9
:1032E0002A12002313086462003649552250000058
:1032F0000503000000001C224100000041221C00C8
:103300000014083E08140008083E08080000005099
:103310003000000808080808000060600000002075
:1033200010080402003E5149453E0000427F400023
:10333000004261514946002141454B3100181412A9
:103340007F10002745454539003C4A494930000176
:103350007109050300364949493600064949291EC5
:103360000000363600000000563600000008142227
:103370004100001414141414000041221408000227
:103380000151090600324959513E007E1111117E4A
:10339000007F49494936003E41414122007F414179
:1033A000221C007F49494941007F09090901003E6B
:1033B0004149497A007F0808087F0000417F4100A9
:1033C000002040413F01007F08142241007F40401F
:1033D0004040007F020C027F007F0408107F003E07
:1033E0004141413E007F09090906003E4151215EED
:1033F000007F091929460046494949310001017FEA
:103400000101003F4040403F001F2040201F003F7F
:103410004038403F00631408146300070870080731
:1034200000615149454300007F414100000204080A
:103430001020000041417F0000040201020400400E
:1034400040404040000001020400002054545478E1
:10345000007F484444380038444444200038444401
:10346000487F00385454541800087E090102000CAB
:103470005252523E007F080404780000447D400010
:10348000002040443D00007F102844000000417FA0
:103490004000007C04180478007C0804047800389C
:1034A00044444438007C1414140800081414187C94
:1034B000007C0804040800485454542000043F448D
:1034C0004020003C4040207C001C2040201C003C50
:1034D0004030403C004428102844000C5050503CE0
:1034E000004464544C440000083641000000007F52
:1034F0000000000041360800000201020402000042
:103500000000000000010202030405060708090A82
:103510000B0C0D0E0F101000000000000000000149
:10352000020304060708090000000001020304006A
:10353000503500080000002044000000A02D0008C5
:10354000943500084400002024090000B02D000834
:103550000000000000000000000000000101010068
:10356000000000000000000000000000000000005B
:10357000000000000000000000000000000000004B
:1035800001000000100000000000000000127A009E
:043590000000000037
:04000005080000ED02
:00000001FF
