:020000040800F2
:10000000805400202D300008AD2D0008AF2D0008D1
:10001000DD2D0008DF2D0008E12D000800000000A4
:10002000000000000000000000000000E32D0008B8
:10003000E52D000800000000E72D0008430E000831
:10004000B5300008B9300008BD300008C1300008E4
:10005000C5300008C9300008CD300008D130000894
:10006000D5300008D9300008DD300008E130000844
:10007000E5300008E9300008ED300008F1300008F4
:10008000F5300008F9300008FD30000801310008A3
:1000900005310008093100080D310008E92D00087C
:1000A00015310008193100081D3100082131000800
:1000B00025310008293100082D31000831310008B0
:1000C00035310008393100083D3100084131000860
:1000D00045310008631500084D3100086D15000812
:1000E00055310008593100085D31000861310008C0
:1000F00065310008693100086D3100087131000870
:1001000075310008793100086D0F00088131000851
:1001100085310008893100088D31000891310008CF
:1001200095310008993100089D310008A13100087F
:10013000A5310008A9310008AD310008B13100082F
:10014000B5310008B9310008BD310008C1310008DF
:10015000C5310008C9310008CD310008D13100088F
:10016000D5310008D9310008DD310008E13100083F
:10017000E5310008E9310008ED310008F1310008EF
:10018000F5310008F931000838B5DFF8880A007841
:10019000002830D0DFF87C0A00210170DFF8780AEF
:1001A000807F042814D3DFF8700A817F89B2DFF8DA
:1001B000680A00F047FD0500ADB2002D08D1DFF858
:1001C000580A00780400A4B2012C01D100F092F882
:1001D000DFF8440A807FDFF8441A0870DFF8380A35
:1001E000827FDFF8341ADFF8380A00F04FFDDFF8BD
:1001F000280A0021817731BD38B50400DFF8140AE0
:100200000021017040F63D6005000FF23102290027
:10021000012000F04BFEDFF8000A807F1E280CD280
:10022000DFF8F409807FDFF8F0194454DFF8E809BB
:10023000807F401CDFF8E019887731BDDFF8D409F2
:1002400001210170704770B5A0B004000D00EDB23F
:100250002A00210000A800F019FDEDB2290089B2A2
:10026000200000F0EFFC0600EDB200A8B6B2310AA3
:1002700029546D1CEDB200A82E546D1CEDB229005E
:1002800089B200A800F04FFFDFF89009C577EDB202
:100290002A0000A9DFF88C0900F0F8FC20B070BD3E
:1002A00010B582B00400DFF8700900788DF8000006
:1002B000DFF86409407850F080008DF801008DF877
:1002C0000240032100A8FFF7BEFF13BD1CB50020AC
:1002D0000400E4B2062C08D2E4B200A8E4B2DFF8CD
:1002E0003819615C2154641CF3E7062100A8FFF76C
:1002F000AAFF13BD80B5DFF82009407801280CD093
:10030000022811D0032816D004281BD0052820D09D
:10031000062825D010282AD030E000F03BF8002134
:10032000012001F055F934E000F00DF90021022020
:1003300001F04EF92DE000F014FA0021032001F045
:1003400047F926E000F0DCFA0021042001F040F932
:100350001FE000F094FB0021052001F039F918E0BE
:1003600000F0DFFB0021062001F032F911E000F07F
:1003700008FC0021072001F02BF90AE0DFF89808BB
:10038000012180F82110DFF8900890F82100FFF794
:1003900087FF01BDFEB5DFF88008002180F821103D
:1003A000DFF87408807F082805D0DFF86C08032187
:1003B00080F82110C6E0DFF8700800F03DFC040072
:1003C000DFF8680800F038FC0500ADB2E81D082130
:1003D00090FBF1F0070040F20110A4B2844239D33F
:1003E000ADB2012D36D3ADB215FA84F0B0F5837FEE
:1003F00030DA00200600B6B2BFB2BE4205D2B6B2B5
:1004000000A800213154761CF5E700200600B6B2A2
:10041000ADB2AE4223D2A019C0B201F09DF90028BE
:1004200016D0B6B2082096FBF0F000A9B6B20822AA
:1004300096FBF2F200ABD25C0123B6B25FF0080C7F
:1004400096FBFCFE0EFB1C6E13FA0EF31A4342548D
:10045000761CDCE7DFF8C007022180F82110DFF806
:10046000B80790F82100002866D1DFF8AC0700211A
:1004700080F8A210DFF8A00790F8A200DFF8981724
:100480004018DFF89417097880F82210DFF8880701
:1004900090F8A200401CDFF8801781F8A200DFF876
:1004A000780790F8A200DFF870174018DFF8681797
:1004B000497880F82210DFF8600790F8A200401C0D
:1004C000DFF8541781F8A200DFF84C0790F8A2007B
:1004D000DFF84417401880F82270DFF83C0790F8E6
:1004E000A200401CDFF8301781F8A20000200600AF
:1004F000B6B2BFB2BE4216D2DFF81C0790F8A20017
:10050000DFF814174018B6B200A9715C80F8221009
:10051000DFF8040790F8A200401CDFF8FC1681F811
:10052000A200761CE4E7DFF8F00690F8A210DFF8EE
:100530000007FFF788FE05E0DFF8DC0690F82100F1
:10054000FFF7AEFEF7BDFEB5DFF8CC06002180F860
:100550002110DFF8C406807F082805D0DFF8B80630
:10056000032180F82110C7E0DFF8BC0600F064FB2F
:100570000400DFF8B80600F05FFB0500ADB2E81D2F
:10058000082190FBF1F0070040F20120A4B2844260
:100590003AD3ADB2012D37D3ADB215FA84F0B0F530
:1005A000017F31DC00200600B6B2BFB2BE4205D2E8
:1005B000B6B200A800213154761CF5E700200600F1
:1005C000B6B2ADB2AE4224D23019401EC0B201F074
:1005D0000BF9002816D0B6B2082096FBF0F000A95F
:1005E000B6B2082296FBF2F200ABD25C0123B6B29F
:1005F0005FF0080C96FBFCFE0EFB1C6E13FA0EF36C
:100600001A434254761CDBE7DFF80C06022180F81F
:100610002110DFF8040690F82100002866D1DFF8E9
:10062000F805002180F8A210DFF8EC0590F8A20090
:10063000DFF8E4154018DFF8E015097880F822109B
:10064000DFF8D40590F8A200401CDFF8CC1581F843
:10065000A200DFF8C40590F8A200DFF8BC1540182E
:10066000DFF8B415497880F82210DFF8AC0590F86F
:10067000A200401CDFF8A01581F8A200DFF8980561
:1006800090F8A200DFF89015401880F82270DFF88B
:10069000880590F8A200401CDFF87C1581F8A200C4
:1006A00000200600B6B2BFB2BE4216D2DFF868051F
:1006B00090F8A200DFF860154018B6B200A9715C8E
:1006C00080F82210DFF8500590F8A200401CDFF8F7
:1006D000481581F8A200761CE4E7DFF83C0590F8A5
:1006E000A210DFF84C05FFF7AEFD05E0DFF82805A6
:1006F00090F82100FFF7D4FDF7BD10B4020092B2CC
:10070000100040F20134001B02D0401E05D009E069
:10071000DFF820050088030006E0DFF818054088B0
:10072000030001E0002004E09BB2180A08704B703F
:10073000012010BC7047020092B2100040F2013359
:10074000C01A02D0401E04D007E0DFF8E8040180A0
:1007500005E0DFF8E004418001E0002000E0012036
:10076000704770B590B0DFF8B004002180F8211018
:10077000DFF8A404807F082805D0DFF89C0403215B
:1007800080F821102BE0DFF8A00400F055FA0400F7
:10079000DFF8980400F050FA0500ADB2212D05D322
:1007A000DFF87404032180F8211018E0002006000F
:1007B000B6B2ADB2AE4212D2B6B200A810EB46014C
:1007C000200080B2FFF799FF002805D1DFF8480428
:1007D000022180F8211002E0641C761CE8E7DFF8B3
:1007E000380490F82100002840F08280DFF82804C7
:1007F000002180F8A210DFF8200490F8A200DFF8B2
:1008000018144018DFF81014097880F82210DFF867
:10081000080490F8A200401CDFF8FC1381F8A20045
:10082000DFF8F40390F8A200DFF8EC134018DFF8CB
:10083000E813497880F82210DFF8DC0390F8A20072
:10084000401CDFF8D41381F8A200DFF8CC0390F845
:10085000A200DFF8C41340182900C9B2490080F88B
:100860002210DFF8B40390F8A200401CDFF8A813B0
:1008700081F8A20000200600B6B2ADB2AE422ED280
:10088000DFF8940390F8A200DFF88C134018B6B29A
:1008900000A911F8161080F82210DFF87C0390F8F8
:1008A000A200401CDFF8701381F8A200B6B200A8C5
:1008B00010EB46004078DFF8601391F8A210DFF8E3
:1008C0005823891881F82200DFF84C0390F8A20021
:1008D000401CDFF8441381F8A200761CCCE7DFF857
:1008E000380390F8A210DFF84803FFF7ACFC05E0EE
:1008F000DFF8240390F82100FFF7D2FC10B070BDA0
:1009000070B586B00A22002100A800F075FFC24829
:10091000002180F82110C048807F082804D0BE48FC
:10092000032180F8211034E0BF4800F085F904006D
:10093000BE4800F081F9050040F20140A4B28442B3
:1009400023D3ADB2012D20D3ADB215FA84F040F21D
:100950000341884219DA00200600B6B2ADB2AE42B9
:1009600017D240F20140A4B2844206D1B6B200A828
:10097000B049898820F8161004E0B6B200A800211A
:1009800020F81610641C761CE7E7A348022180F8C3
:100990002110A14890F82100002869D19E4800212B
:1009A00080F8A2109C4890F8A2009B4940189A49F0
:1009B000097880F82210984890F8A200401C9649C7
:1009C00081F8A200944890F8A200934940189249F7
:1009D000497880F82210904890F8A200401C8E4977
:1009E00081F8A2008C4890F8A2008B494018290099
:1009F000C9B2490080F82210874890F8A200401C34
:100A0000854981F8A20000200600B6B2ADB2AE4220
:100A100027D2B6B200A830F8160080B2000A7E498C
:100A200091F8A2107C4A891881F822007A4890F83F
:100A3000A200401C784981F8A200774890F8A200F3
:100A400075494018B6B200A931F8161080F8221086
:100A5000714890F8A200401C6F4981F8A200761CF2
:100A6000D3E76D4890F8A2107148FFF7ECFB04E063
:100A7000694890F82100FFF713FC06B070BD38B547
:100A80006548002180F821106348807F082804D041
:100A90006148032180F8211035E0634800F0CCF86C
:100AA0000400624800F0C8F80500ADB2002D07D080
:100AB000ADB2012D04D05848032180F8211022E066
:100AC00040F20110A4B2844202D15A48C5801AE013
:100AD000A4B2B4F5817F02D15648058113E040F2FB
:100AE0000310A4B2844202D1524845810BE04FF476
:100AF0008270A4B2844202D14E48858103E0464808
:100B0000022180F82110444890F82100002802D1E9
:100B1000FFF7DCFB04E0404890F82100FFF7C0FB42
:100B200031BD38B53C48002180F821103A48807F1B
:100B3000082804D03848032180F8211013E03A48EF
:100B400000F07AF80400394800F076F80500290032
:100B500089B2200080B2FFF7EEFD012803D02E48B5
:100B6000022180F821102C4890F82100002802D1A1
:100B7000FFF7ACFB04E0284890F82100FFF790FB5A
:100B800031BD2DE9F0412448002180F82110224890
:100B9000807F0B2804D22048032180F821102AE00E
:100BA000214800F049F80400204800F045F805000D
:100BB000194880790600002007003800C0B280B2D2
:100BC000ADB2A84217D2FFB2134810EB4700C01DC8
:100BD00000F032F88046414689B254FA87F080B27C
:100BE000FFF7A9FD012804D00B48022180F821104D
:100BF00001E07F1CE1E7084890F82100002802D1BD
:100C0000FFF764FB04E0044890F82100FFF748FB7D
:100C1000BDE8F0817814002098110020DC1200203B
:100C2000DD120020FC1200209A1100209C110020EF
:100C3000BA1100204C1400200178407850EA0120BD
:100C400080B2704730B40200FF20FF230D00691E00
:100C5000ADB2002D0ED0C0B2157845402C00521C0C
:100C6000A4B2084D655D5D402800A4B2064D655DE7
:100C70002B00EBE7C0B2DBB253EA002080B230BCFD
:100C8000704700006C2B00086C2C000870B5040045
:100C90000D00160032002900200000F0C9FD2000E0
:100CA00070BD10B450F8041B81B102681218001D09
:100CB00050F8043BDC0744BFA9F10104E31852F8E3
:100CC000044B43F8044B091FF9D1EBE710BC704704
:100CD00040B2002809D540B210F00F02DFF82033EF
:100CE000D2180B0102F8043C04E040B2DFF81423F0
:100CF0000B018354704710B50400601EB0F1807F73
:100D000001D3012011E0601EDFF8FC1208600F2102
:100D10005FF0FF30FFF7DCFFDFF8F0020021016039
:100D2000DFF8EC0207210160002010BD10B50020A3
:100D30000400E4B2042C21D2E4B20C20DFF8D41277
:100D400000FB041000214160E4B20C20DFF8C41263
:100D500000FB041000218160E4B20C20DFF8B41223
:100D600000FB041000214170E4B20C20DFF8A41253
:100D700000FB041000210170641CDAE7DFF8980220
:100D800000684FF47A71B0FBF1F0FFF7B4FF00F0A8
:100D90005CF810BD10B5DFF88402006800280CD0A4
:100DA000DFF878020068401EDFF870120860002843
:100DB00003D1DFF86C020121017000200400E4B2CD
:100DC000042C09D2E4B20C20DFF8481200FB041016
:100DD00000F027F8641CF2E7DFF848020068401CC6
:100DE000DFF840120860DFF83C0200687FF0004145
:100DF000884203D1DFF82C020021016000F064FD7D
:100E0000DFF824020078401CDFF81C120870C0B222
:100E10000A2805D3DFF810020021017000F053FD0D
:100E200010BD416800290BD04168491E416000296E
:100E300006D1012141700178012901D18168416009
:100E4000704780B5FFF7A6FF01BD7FB501210820DF
:100E500000F0D0FD70480068400806007348B6FBFB
:100E6000F0F005005FF0FF3004000294ADF804508C
:100E70000020ADF80C000020ADF8060001A96C4878
:100E800000F0E6FD01216A4800F019FE32208DF8DD
:100E9000000004208DF8010000208DF802000120E0
:100EA0008DF8030000A800F05CFE7FBD2DE9F04145
:100EB000040088461500B8F1050F01D3B8F1050804
:100EC0005B4800F0FAFD060018EB06000700E4B2EC
:100ED000012C0FD1574805603900554800F00CFE31
:100EE0000221534800F034FE01220221504800F054
:100EF0000BFE39E0E4B2022C0FD14F4805603900F7
:100F00004B4800F0FBFD0421494800F021FE01227E
:100F10000421474800F0F8FD26E0E4B2032C0FD18D
:100F2000464805603900424800F0EAFD0821404883
:100F300000F00EFE012208213D4800F0E5FD13E01F
:100F4000E4B2042C0FD13E4805603900384800F067
:100F5000D9FD1021364800F0FBFD01221021344854
:100F600000F0D2FD00E0FFE7BDE8F08180B502218E
:100F70002F4800F0D4FD00280BD002212C4800F0AF
:100F8000E7FD002202212A4800F0BEFD2948006842
:100F900080470421264800F0C2FD00280BD0042120
:100FA000234800F0D5FD00220421214800F0ACFDCB
:100FB00021480068804708211D4800F0B0FD002846
:100FC0000BD008211A4800F0C3FD00220821184860
:100FD00000F09AFD1948006880471021144800F07D
:100FE0009EFD00280BD01021114800F0B1FD002219
:100FF00010210F4800F088FD11480068804701BDAE
:1010000018ED00E000E400E014E000E018E000E08B
:1010100010E000E0CC130020500000205C14002001
:1010200076140020601400207714002040420F0046
:10103000000C004064140020681400206C14002090
:101040007014002080B500F07FF800F0FAF800F08E
:1010500046F800F0B8F901BD0100C9B2002902D17B
:10106000DFF814051AE0C9B2012901D1002015E00A
:10107000C9B2022902D1DFF804050FE0C9B2032981
:1010800001D100200AE0C9B2042901D1002005E005
:10109000C9B2052901D1002000E000207047F8B551
:1010A00004000D0016002000C0B2FFF7D5FF0700B6
:1010B000002F0AD0F869002801D0F8698047320073
:1010C00092B22900380000F098F9F1BD13B5040080
:1010D000012201A92000C0B2FFF7E1FF13BD00B556
:1010E00083B00121022000F076FC01208DF804007D
:1010F00000208DF8060000208DF8070003208DF8F1
:1011000005000420009000A9DFF87C0400F068FDD1
:1011100007BDDFF87804042101807047DFF8700410
:1011200004210180704738B504000D002A0092B2F6
:1011300021000220FFF7B3FF31BD10B504002000ED
:10114000C0B2FFF759F810BDDFF82C04DFF83014F7
:101150000160DFF82404DFF83C144160DFF8180474
:10116000DFF834148160DFF810044FF4806181816E
:10117000DFF804044FF48061C181DFF8FC03002133
:101180000182DFF8F40300214182DFF8EC03002143
:10119000C182DFF8E40300210183DFF8DC030021D2
:1011A0004183DFF8D40300218182DFF8CC030021E2
:1011B000C161DFF8C40300210162DFF8BC03002134
:1011C0004162DFF8B803DFF8BC130160DFF8AC035D
:1011D000DFF8C8134160DFF8A403DFF8C4138160AF
:1011E000DFF898034FF480618181DFF890034FF4BA
:1011F0008061C181DFF8840300210182DFF87C0374
:1012000000214182DFF874030021C182DFF86C0302
:1012100000210183DFF8640300214183DFF85C03D0
:1012200000218182DFF85403DFF87813C161DFF811
:101230004C03DFF874130162D048DFF87013416289
:10124000704700B587B00121012000F0C4FB0121E7
:10125000102000F0DEFB07220921DFF8540300F024
:1012600014FD07220A21D24800F00FFD00208DF85E
:10127000060001208DF8070002208DF804004FF4CD
:101280000070009002208DF8050000A9C84800F009
:10129000A7FC02208DF804004FF48060009000A9A4
:1012A000C34800F09DFC5FF4E13002900020ADF8EF
:1012B0000C000020ADF80E000020ADF8100000205A
:1012C000ADF814000C20ADF8120002A9AC4800F0F3
:1012D00009FD012240F22551A94800F097FD0121A6
:1012E000A74800F07DFD4021A54800F0BAFD01218E
:1012F000022000F070FB01208DF8040000208DF822
:10130000060000208DF8070003208DF8050004205A
:10131000009000A99C4800F063FC0121022000F02D
:101320005AFB01215FF4802000F064FB07220A21B0
:10133000954800F0AAFC07220B21934800F0A5FC79
:1013400000208DF8060001208DF8070002208DF89E
:1013500004004FF48060009002208DF8050000A981
:10136000894800F03DFC02208DF804004FF4006035
:10137000009000A9844800F033FC4FF4165002900E
:101380000020ADF80C000020ADF80E000020ADF8F4
:1013900010000020ADF814000C20ADF8120002A9D6
:1013A000784800F09FFC012240F22551754800F07A
:1013B0002DFD0121734800F013FD4021714800F01C
:1013C00050FD07B000BD80B525208DF8000000203D
:1013D0008DF8020001208DF8030000A800F0C1FB89
:1013E00027208DF8000002208DF8020001208DF8E2
:1013F000030000A800F0B5FB01BDF8B504000D0026
:10140000160000200700BFB2B6B2B74226D20120B4
:1014100080F31088A08AADF80000002080F31088C7
:10142000BDF80000A1898842F1D2208A6168BFB26C
:101430007A5D4254012080F31088208A401C20826B
:10144000A18980B2884201D300202082A08A401C5A
:10145000A082002080F310887F1CD4E7012240F294
:101460002771206800F0D2FCF1BD38B5040040F2CD
:101470002551206800F0FBFC00281DD0206800F0FA
:10148000C1FC0500E08AA1684554E08A401CE08266
:10149000E18980B2884201D30020E082608BE1893B
:1014A000884202D2608B401C6083606A002803D0AF
:1014B0002800C0B2616A884740F22771206800F0B6
:1014C000D6FC002823D0A08A00280CD1002240F2AC
:1014D0002771206800F09AFC012240F22661206802
:1014E00000F094FC3CE0608A6168415C89B220684D
:1014F00000F084FC608A401C6082A18980B288422E
:1015000001D300206082A08A401EA08228E040F221
:101510002661206800F0ABFC002821D0A08A0028BA
:101520000BD1002240F22661206800F06FFC206A97
:10153000002815D0206A804712E0608A6168415C0B
:1015400089B2206800F05AFC608A401C6082A18940
:1015500080B2884201D300206082A08A401EA0820F
:1015600031BD80B50448FFF780FF01BD80B5034859
:10157000FFF77BFF01BD0000FC13002024140020B6
:1015800000100140004800400004024018040240DE
:101590001A04024054000020540400205408002083
:1015A000540C0020131100081D1100083B11000805
:1015B0000000024038B504000D002100C9B200202F
:1015C000FFF784FD200032BD80B500F043F801BD77
:1015D000244A92F84121234B23F83200214A92F801
:1015E0004121204B13EBC20251601E4A92F8412167
:1015F000521C1C4B83F84121D2B2282A03D3194A2A
:10160000002382F8413170470100164890F84001EC
:10161000144B93F84131984201D1002019E0114850
:1016200090F840010F4B13EBC00002000D4890F8FA
:101630004001401C0B4B83F84001C0B2282803D363
:101640000848002380F840311088088050684860BE
:10165000012070470348034991F8411180F8401177
:10166000704700005410002000B583B001214FF4F2
:10167000927000F0B0F9012000F04FF8022000F065
:101680004CF8032000F049F8042000F046F801204F
:101690008DF8040000208DF8060000208DF807006A
:1016A00003208DF805004FF48060009000A94248A7
:1016B00000F096FA8020009000A9404800F090FACF
:1016C0004FF48070009000A93C4800F089FA042093
:1016D000009000A93A4800F083FA07BD401EC0B24E
:1016E000002804D137494FF480620A8014E0C0B268
:1016F000012803D1344980220A800DE0C0B20228BB
:1017000004D131494FF480720A8005E0C0B2032849
:1017100002D12E4904220A807047401EC0B2002820
:1017200004D12B494FF480620A8014E0C0B2012832
:1017300003D1284980220A800DE0C0B2022804D1DA
:1017400024494FF480720A8005E0C0B2032802D118
:10175000214904220A8070470100C9B2012907D13A
:101760001E480068400501D4012023E0002021E04C
:10177000C9B2022907D11A480068000601D4012025
:1017800018E0002016E0C9B2032907D11448006808
:10179000C00501D401200DE000200BE0C9B20429EE
:1017A00007D110480068400701D4012002E0002062
:1017B00000E00020704700000020024000140240BA
:1017C000000802401A2002401A1402401A0802407F
:1017D0001820024018140240180802401420024049
:1017E0001414024014080240C0B2024911EB001068
:1017F000807A70473C12002070B504000D0016007E
:101800002A003100200000F069FB200070BD50F874
:10181000041B61B150F8042BD30744BFA9F10103A5
:101820009A18002342F8043B091FFAD1EFE77047EA
:1018300062B38B0708D0521E11F8013B00F8013B40
:1018400000F024808B07F6D1830740F0208000BF92
:10185000103A07D330B4B1E83810103AA0E8381085
:10186000F9D230BC530724BFB1E80810A0E8081033
:1018700044BF51F8043B40F8043BD20724BF31F881
:10188000022B20F8022B44BF0B7803707047083AF4
:1018900007D3B1E80810083A40F8043B40F804CBFD
:1018A000F7D25307E4E780B54FF4407000F054F9E5
:1018B000FFF73CFAFFF7C6FBFFF7D6FEFFF784FE03
:1018C00000F040FB01BD7047704780B5FEF75CFC3F
:1018D00001BD0000F0B400210022002302240025F5
:1018E0000226DFF84C713F6817F00C0739000F0033
:1018F000002F04D0042F06D0082F08D03CE0DFF8DA
:10190000387107603BE0DFF83471076037E0DFF8DB
:1019100024713F68C7F380573D00DFF818713F68B6
:1019200017F03F073E00002D0DD0DFF81071B7FB18
:10193000F6F7DFF800C1DCF800C0CCF3881C0CFB24
:1019400007F73B000CE0DFF8F070B7FBF6F7DFF8C5
:10195000E4C0DCF800C0CCF3881C0CFB07F73B00AC
:10196000DFF8D0703F68C7F301477F1C7F003C0061
:10197000B3FBF4F7076002E0DFF8BC700760DFF844
:10198000B0703F6817F0F00739000909DFF8B07050
:10199000CF5D3A000768D7404760DFF894703F6832
:1019A00017F4E0573900890ADFF89470CF5D3A00E8
:1019B0004768D7408760DFF878703F6817F4604762
:1019C0003900490BDFF87870CF5D3A004768D7409F
:1019D000C760F0BC7047C9B2002905D0194A126827
:1019E0000243184B1A6004E0164A12688243154BF2
:1019F0001A607047C9B2002905D0134A1268024321
:101A0000114B1A6004E0104A126882430E4B1A60B0
:101A10007047C9B2002905D00C4A126802430B4B2B
:101A20001A6004E0094A12688243084B1A60704742
:101A300008380240043802400024F40040787D0158
:101A40004000002030380240403802404438024014
:101A5000002203881A00214B98420ED0254B984251
:101A60000BD0B0F1804F08D01D4B984205D01D4BD4
:101A7000984202D01C4B984204D14FF68F731A4003
:101A80004B881A43194B984207D0194B984204D0FF
:101A90004FF6FF431A400B891A4302804B68C3621A
:101AA0000B8803850D4B984202D0124B984201D10E
:101AB0008B7A0386012383827047406A7047C9B2DC
:101AC000002904D0028852F00102028004E002885A
:101AD0004FF6FE731A40028070470000000001407C
:101AE0000004004000080040000C004000100040CE
:101AF0000014004000040140416370478163704757
:101B0000C163704701647047D2B2002A03D0838951
:101B10000B43838102E083898B438381704730B418
:101B20000200002000230024158A0D402B00958917
:101B30000D402C009BB2002B05D0A4B2002C02D08B
:101B40000125280001E000252800C0B230BC704704
:101B500089B2CA43028270471C4901431C4A116082
:101B60007047F0B4002300210F22C478002C21D04C
:101B7000174C246814F4E064D4F5E064240A2300CC
:101B8000D3F104042100D2B21A4144788C402300DE
:101B90008478144023431B0104780E4D6355047868
:101BA00064110D4D0126077817F01F07BE4045F858
:101BB000246009E004786411084D0126077817F0C5
:101BC0001F07BE4045F82460F0BC70470000FA05CE
:101BD0000CED00E000E400E000E100E080E100E066
:101BE000F0B400220023002400252A00102A4AD243
:101BF000012595402B000D681D402C009C4240D1D2
:101C0000056803261700FFB27F00BE40B54305609C
:101C100005680E791700FFB27F00BE4035430560AE
:101C20000D79012D02D00D79022D1AD18568032678
:101C30001700FFB27F00BE40B543856085684E79CE
:101C40001700FFB27F00BE4035438560456801261E
:101C50009640B543456045688E799640B6B23543A7
:101C60004560C56803261700FFB27F00BE40B5433C
:101C7000C560C568CE791700FFB27F00BE4035430E
:101C8000C560521CB2E7F0BC7047F0B400230024DA
:101C9000D2B211F00705EDB2AD0012FA05F52B0036
:101CA00089B2CD1010EB850589B2CE1010EB8606F7
:101CB000366A0F2711F0070C5FFA8CFC5FEA8C0C78
:101CC00017FA0CF7BE432E6289B2CD1010EB8505D2
:101CD0002D6A1D432C0089B2CD1010EB85052C62B6
:101CE000F0BC70472DE9F04385B004000D005FF0B3
:101CF0000009002600275FF00008A8890028208A34
:101D0000814639F44059E88850EA0909A4F810904E
:101D1000A0898146314810EA0909A8882989084321
:101D20006989084350EA0909A4F80C90A08A814601
:101D300039F44079A88950EA0909A4F8149000A858
:101D4000FFF7C8FD2348844202D02348844202D1D1
:101D50000398060001E002980600A089000408D557
:101D6000192000FB06F029684900B0FBF1F00700DC
:101D700007E0192000FB06F029688900B0FBF1F0AC
:101D800007006420B7FBF0F0000181465FEA1910FC
:101D9000642101FB10708046A08900040AD55FEA27
:101DA000C80032306421B0FBF1F010F0070050EAB7
:101DB000090909E05FEA081032306421B0FBF1F054
:101DC00010F00F0050EA0909A4F8089005B0BDE82A
:101DD000F08300000010014000140140F3E9FFFF10
:101DE000C9B2002904D0828952F40052828104E0F1
:101DF00082894DF6FF731A4082817047CA05D20D61
:101E0000828070478088C005C00D7047F0B4002301
:101E100000240025002640F66A1789B2B942060060
:101E20000F00FFB27F09FFB23B0089B211F01F071C
:101E30003C000127A7403D00012B01D10C3604E0F6
:101E4000022B01D1103600E01436D2B2002A03D0A2
:101E500037682F43376002E03768AF433760F0BC24
:101E6000704789B28A0589B2CA430280704770B44C
:101E70000200002300250024002040F66A1689B2E3
:101E8000B1420E00F6B27609F6B2340089B211F012
:101E90001F063500012616FA05F5012C02D1968998
:101EA000354006E0022C02D1168A354001E0968AC0
:101EB000354089B20E0AB6B23300012616FA03F392
:101EC00016883340002D04D0002B02D001263000AC
:101ED00001E000263000C0B270BC704762F30F22F0
:101EE00062F31F42401810F0030308D0C91A1FD331
:101EF000DB0748BF00F8012D28BF20F8022D130092
:101F000030B414461546103928BF20E93C00FAD8F1
:101F1000490728BF20E90C0048BF40F8042D89007C
:101F200028BF20F8022D48BF00F8012D30BC7047B3
:101F3000C91818BF00F8012DCB0728BF00F8012DE4
:101F40007047000000B59BB001215FF48000FFF7EF
:101F500042FD01212020FFF73EFD01214FF480606A
:101F6000FFF757FD5FF080600C9036480D903648C3
:101F70000E9000200F9001201090002011904FF43F
:101F8000806012904FF4006013904FF40050149052
:101F90004FF4807015905FF4003016900020179079
:101FA000012018900020199000201A900CA92748B1
:101FB00000F052F80121254800F07AF84FF4007043
:101FC000009003208DF8040000208DF8070000A980
:101FD0001F48FFF705FE002002900020039000201C
:101FE00004900020059002A800F09AF800200690C6
:101FF00000208DF81C0001208DF81D0000200890A5
:102000000020099000200A9001208DF82C0006A9DC
:10201000104800F05DF80023012207210D4800F070
:102020009DF801210B4800F023F90121094800F037
:1020300011F90121074800F084F8064800F005F97D
:102040001BB000BD4C2201407414002010640240FB
:10205000001402400022014010B4002203681A005C
:102060001A4B1A400B68CC6823434C6923438C6994
:102070002343CC6923430C6A23434C6A23438C6A71
:1020800023434C6B23438C6B23431A430260436905
:102090001A00D208D200CB6A0C6B23431A43426168
:1020A0000B6943604B6883608B68C36010BC7047EA
:1020B000C9B2002904D0026852F00102026003E0B4
:1020C0000268520852000260704700003F801CF016
:1020D00030B400230022446823006C4C23400C7968
:1020E0000D6855EA04242343436084682300684C48
:1020F00023400C69CD682C438D682C434D7954EAFC
:10210000450423438360C46A230033F470030C7DC9
:10211000641E2243D2B253EA0253C36230BC7047FA
:1021200000215C4A126811005B4A11400268436852
:102130001A4383681A43C3681A431143554A11600E
:102140007047C9B2002904D0826852F0010282604F
:1021500003E082685208520082607047F0B40025A4
:102160000024C9B20A2916D3C66835000726B1F182
:102170000A075FF0030C0CFB07F7BE403400A543D1
:10218000DBB2B1F10A0603277E4313FA06F63400E8
:102190002543C56011E0066935000726032707FBC4
:1021A00001F7BE403400A543DBB2032606FB01F66F
:1021B00013FA06F6340025430561D2B2072A14D279
:1021C000466B35001F26571E5FF0050C0CFB07F70A
:1021D000BE403400A543C9B2561E05277E4311FAFE
:1021E00006F63400254345632DE0D2B20D2A14D201
:1021F000066B35001F26D71F5FF0050C0CFB07F799
:10220000BE403400A543C9B2D61F05277E4311FA4C
:1022100006F634002543056315E0C66A35001F261F
:10222000B2F10D075FF0050C0CFB07F7BE40340060
:10223000A543C9B2B2F10D0605277E4311FA06F691
:1022400034002543C562F0BC7047816851F080417D
:1022500081607047C9B2002905D082684FF480734D
:102260001A43826003E0826832F4807282607047B1
:10227000C9B2002905D082684FF400731A43826006
:1022800003E0826832F4007282607047FFFEFFFC58
:10229000FDF7FFC004230140E030FCFF2DE9F04FC3
:1022A00093B0814617461D46029102AE002009E018
:1022B00017F8011B0298C8470290002800F0CF8150
:1022C000B069401CB061387808B9B069C9E1252807
:1022D000EED10020F0603061706101E040F001005B
:1022E00017F8011F2029F9D023290ED02B2904D05B
:1022F0002D2906D030290CD00FE040F0020080B22A
:10230000EEE740F0040080B2EAE740F0080080B257
:10231000E6E740F0100080B2E2E72A290DD12968F3
:102320000A1D2A6009683162002904D549423162D8
:1023300040F0040080B27F1C13E0002131620BE00A
:10234000316A6FF00043994205D001EB810302EB43
:102350004301303931627F1C3A78A2F130010A29F9
:10236000EED339782E291CBF4FF0FF31F1611ED119
:1023700017F8011F2A2906D129680A1D2A60096851
:10238000F1617F1C13E00021F1610BE0F1696FF056
:102390000043994205D001EB810302EB4301303940
:1023A000F1617F1C3A78A2F130010A29EED3B084A2
:1023B00039780FF2843000F0C3F908B117F8010B37
:1023C0008DF82E009DF82E00682804BF3878682804
:1023D00003D162208DF82E007F1C0CA8B0603A78E3
:1023E000252A00F0B980582A30D0632A00F0A38053
:1023F000642A18BF692A64D06F2A27D0702A1CD09B
:10240000732A04D0752A18BF782A1FD09DE0286847
:10241000011D296000687060F269002A03D500F090
:102420009BF930619DE0002100F0B2F900281ABF4D
:102430007168401AF069306193E02868011D2960D5
:10244000006801900CA87060782170E09DF82E3033
:102450006C2B08BF286811D0712B08BF286802D0E8
:102460006A2B28680AD1C01D20F0070028600146A9
:1024700001F108002860D1E9000102E0011D296096
:1024800000680190682B04BF01A8008803D0622B6C
:1024900002D101A80078019096F82400000741D5E8
:1024A000019800283ED042F0200078283AD1F06808
:1024B0000CA930234354401C411CF1600CA9425428
:1024C00030E09DF82E00622802D0682806D00BE08C
:1024D0002868011D296090F9000009E02868011DA5
:1024E0002960B0F9000003E02868011D2960006838
:1024F0000190002805D5F068411CF1600CA92D233E
:102500000FE0B08C810705D5F068411CF1600CA983
:102510002B2306E0C00705D5F068411CF1600CA92B
:1025200020234354F0680CA940187060114601A89C
:1025300000F09AF815E0F068411CF16029680A1D66
:102540002A600CAA096881540BE0F068411CF16014
:102550000CA92523435422B1F068411CF1600CA959
:1025600042547F1C306AF168401A7169401A31691F
:10257000A0EB010896F82400400719D420208DF81C
:102580000000B8F1010F13DB44464FF0010A0DF1D2
:10259000000B1BF8011B0298C847029000285ED070
:1025A000B069401CB061BAF1010AF2D1641EECD1ED
:1025B000F4680DF1300A5CB11AF8011B0298C847A3
:1025C000029000284BD0B069401CB061641EF3D16A
:1025D00030208DF80000D6F814B0BBF1010F10DBED
:1025E00001240DF1000A1AF8011B0298C847029055
:1025F000A8B3B069401CB061641EF4D1BBF1010BFB
:10260000EED13469D6F804A054B11AF8011B02982F
:10261000C847029018B3B069401CB061641EF4D181
:1026200096F8240040077FF54EAE20208DF800007C
:10263000B8F1010FFFF647AE01240DF1000A1AF8B8
:10264000011B0298C847029048B1B069401CB061B4
:10265000641EF4D1B8F101083FF435AEECE74FF059
:10266000FF3013B0BDE8F08FF0B4C2686F2908BF27
:10267000082405D041F02003782B14BF0A2410242D
:10268000182305682E46642918BF692902D1002D38
:1026900048BF7642002E04BF056A002D09D1082CE0
:1026A00027D190F82810090723D517233021D17599
:1026B0001FE05D1E2B46B6FBF4F704FB17663036B1
:1026C000F6B23A2E24BFA1F1510C6644AE543E003E
:1026D00003D085689F18BD42EBD3082C09D190F830
:1026E0002810090705D5995C302902D05B1E3021DE
:1026F0009954C3F1180141619A188260026A9142AB
:1027000007DA511A8161018D4FF6EF721140018590
:1027100010E0002A0ED590F8282002F01402102AAA
:1027200008D1426A0369D21A8369D21A531A012B5B
:10273000A8BF8361F0BC7047686C747A4C000000DD
:102740000278C9B28A421AB11CBF10F8012FF9E70A
:1027500018BF00207047000000F10103810704D07A
:1027600010F8011B89B18107FAD10268B2F1013179
:10277000914311F0803F04BF50F8042FF6E710F8A2
:10278000011B11B110F8011BFBE7C01A70470000D4
:10279000C9B2830706D0521E22D310F8013B9942DA
:1027A000F7D11FE0083A13D302F1040241EA0121F4
:1027B00041EA014150F8043B121F21BF4B40A3F1F5
:1027C000013C2CEA030C1CF0803FF3D0C9B2001F7F
:1027D000083210F8013B521E28BF91EA030FF8D8C7
:1027E00018BF0120401E704700B583B0FFF75BF8AB
:1027F00000F043F800F070F8FFF767F800A8FEF764
:1028000003FF0028F8D0BDF80000052804D100F02F
:1028100063F800F004F8EFE700F05EF8ECE780B54D
:102820005D48C088012803D10120FEF757FF02E070
:102830000120FEF772FF58480089012803D10220C9
:10284000FEF74CFF02E00220FEF767FF5248408986
:10285000012803D10320FEF741FF02E00320FEF729
:102860005CFF4D488089012803D10420FEF736FF24
:1028700002E00420FEF751FF01BD80B543A000F047
:10288000B9F8464800F0B6F84549464800F0B2F8B5
:102890003FA1454800F0AEF84449454800F0AAF889
:1028A000002303220121434800F0A4F8424800F02D
:1028B000A1F8424800F09EF8414800F09BF84148DA
:1028C00000F098F8404800F095F8404800F092F881
:1028D000324800F08FF801BD10B52CA000F08AF846
:1028E0002CA000F087F82C480188394800F082F8C5
:1028F00028A000F07FF828484188364800F07AF890
:1029000024A000F077F824488188334800F072F85A
:102910001EA000F06FF81FA000F06CF82F4800F028
:1029200069F8002004002E480078E4B2844208D2FE
:10293000E4B22B48201841782A4800F05BF8641C68
:10294000F1E712A000F056F812A000F053F8264864
:1029500000F050F8002004002148C07FE4B2844217
:1029600009D2E4B21E48201890F820101D4800F04B
:1029700041F8641CF0E705A000F03CF81B4800F0AB
:1029800039F805481A490988818010BD0A0D0000F0
:10299000312E34001B5B4B004C1400206C2D0008C2
:1029A000202F0008B42F0008C82F00083C30000872
:1029B000DC2F0008EC2D000878300008382F0008C4
:1029C000F02F0008E82E0008C82E00087C2E000812
:1029D0004830000854300008603000080430000817
:1029E000DC12002080300008183000088830000811
:1029F000741400200EB400B582B003A9009100AB9E
:102A000002460121034878440A30FFF747FC06BC20
:102A10005DF810FB7D05000080B54848006850F463
:102A20007000464908604648006850F0010044497B
:102A3000086044480021016041480068424908405C
:102A40003F4908604148424901603D48006830F410
:102A500080203B4908603F480021016000F005F8F4
:102A60003D485FF00061016001BD82B0002001902F
:102A7000002000903248006850F4803030490860EF
:102A80002F48006810F4003000900198401C01901D
:102A90000098002803D10198B0F5A04FF0D1284844
:102AA0000068800302D50120009001E00020009022
:102AB000009801283ED12948006850F080502749ED
:102AC00008602748006850F44040254908601D48C8
:102AD0001C49096801601B48006850F4004019490E
:102AE00008601848006850F4A0501649086017485C
:102AF0001C4901601248006850F08070104908605D
:102B00000F4800688001FBD5174840F2057101604D
:102B10000C480068800880000A490860094800687D
:102B200050F00200074908600648006810F00C00E9
:102B30000828F9D102B070470000000088ED00E0DD
:102B40000038024008380240FFFFF6FE0438024019
:102B5000103000240C38024008ED00E040380240FC
:102B60000070004019544007003C024000C1814001
:102B700001C0804101C0804100C1814001C080414D
:102B800000C1814000C1814001C0804101C080413D
:102B900000C1814000C1814001C0804100C181402D
:102BA00001C0804101C0804100C1814001C080411D
:102BB00000C1814000C1814001C0804100C181400D
:102BC00001C0804101C0804100C1814000C18140FD
:102BD00001C0804101C0804100C1814001C08041ED
:102BE00000C1814000C1814001C0804101C08041DD
:102BF00000C1814000C1814001C0804100C18140CD
:102C000001C0804101C0804100C1814000C18140BC
:102C100001C0804101C0804100C1814001C08041AC
:102C200000C1814000C1814001C0804100C181409C
:102C300001C0804101C0804100C1814001C080418C
:102C400000C1814000C1814001C0804101C080417C
:102C500000C1814000C1814001C0804100C181406C
:102C600001C0804101C0804100C1814000C0C1015C
:102C7000C30302C2C60607C705C5C404CC0C0DCDEC
:102C80000FCFCE0E0ACACB0BC90908C8D81819D95C
:102C90001BDBDA1A1EDEDF1FDD1D1CDC14D4D5158C
:102CA000D71716D6D21213D311D1D010F03031F17C
:102CB00033F3F23236F6F737F53534F43CFCFD3DAC
:102CC000FF3F3EFEFA3A3BFB39F9F83828E8E9299C
:102CD000EB2B2AEAEE2E2FEF2DEDEC2CE42425E54C
:102CE00027E7E62622E2E323E12120E0A06061A1BC
:102CF00063A3A26266A6A767A56564A46CACAD6D6C
:102D0000AF6F6EAEAA6A6BAB69A9A86878B8B979DB
:102D1000BB7B7ABABE7E7FBF7DBDBC7CB47475B50B
:102D200077B7B67672B2B373B17170B050909151FB
:102D30009353529296565797559594549C5C5D9D2B
:102D40005F9F9E5E5A9A9B5B99595898884849891B
:102D50004B8B8A4A4E8E8F4F8D4D4C8C44848545CB
:102D60008747468682424383418180402A2A2A2A15
:102D70002A2A2A2A2A2A2A2A2A2A2A2A2A2A2A2AB3
:102D80002A2A2A2A2A2A2A2A2A2A2A2A2A2A2A2AA3
:102D90002A2A2A2A2A2A2A2A2A2A2A2A2A2A2A2A93
:102DA0002A2A2A2A2A2A2A2A2A0A0D00704708488B
:102DB00000221100C9B22A2909D2C9B20A5C054B06
:102DC0001A80054A12885206FBD5491CF2E7FEE735
:102DD000242E00080410014000100140FEE7FEE729
:102DE000FEE7704770477047704700002A20B9CC53
:102DF000BCFEBFE2B0E6B1BE203A205625642E25C7
:102E0000642E2564202853544D3332463478785F3D
:102E10005374645065726970685F44726976657254
:102E2000290D0A000D0A456E7465722048617264AE
:102E30004661756C745F48616E646C65722C2053DA
:102E4000797374656D2048616C742E0D0A00000062
:102E500010B5084979441C31074C7C441A34A1420E
:102E600006D0081D0A68511888470146A142F8D1CA
:102E700010BD00BF30000000500000002A20436F4A
:102E800070797269676874207777772E61726D66E2
:102E90006C792E636F6D20B0B2B8BBC0B3B5E7D705
:102EA000D30D0A006BE9FFFF281400005400002036
:102EB00000000000EFDDFFFF5400000040030000B1
:102EC00000000020000000002A20CCD4B1A6B5EA02
:102ED0003A2061726D666C792E74616F62616F2E3B
:102EE000636F6D0D0A0000002A20456D61696C203A
:102EF0003A2061726D666C794071712E636F6D203E
:102F00000D0A00004EF68851CEF20001086840F428
:102F1000700008604FF00070E1EE100A704700008A
:102F200056352D5253343835204D4F44425553B405
:102F3000D3D5BEC0FDB3CC002A2051512020202083
:102F40003A2031323935373434363330200D0A00E7
:102F500000F009F8002801D0FFF77AFF0020FFF702
:102F600043FC00F002F80120704700F001B80000B7
:102F70000746384600F002F8FBE7000080B5C0467F
:102F8000C046024A11001820ABBEFBE72600020033
:102F900038B504460D46284600F006F8A84218BF8A
:102FA0000024204632BD00000149FEF703BB00BFEC
:102FB000000000202A20C0FDB3CCC3FBB3C62020F4
:102FC000203A2025730D0A002A20C0FDB3CCB0E6BC
:102FD000B1BE2020203A2025730D0A002A20B7A276
:102FE000B2BCC8D5C6DA2020203A2025730D0A00CD
:102FF0002A20CDFACDFA20203A2061726D666C79D4
:103000000D0A000020BDD3CAD5B5C4C3FCC1EE2053
:103010003A2030780000000020B7A2CBCDB5C4C361
:10302000FCC1EE203A2030780000000001488047C3
:1030300001480047192A00086D3000083230313548
:103040002D31312D3238000020503031203D2025E7
:10305000640D0A0020503032203D2025640D0A0006
:1030600020413031203D2025640D0A00C046C04675
:10307000FFF748FFFFF76CFF2A200D0A0000000051
:1030800020253032580000001B5B37410000000053
:10309000FFF78CBEFFF78BBEFFF7A0BEFFF79FBE0A
:1030A000FFF79EBEFFF79DBEFFF79CBEFFF79BBEDE
:1030B000FDF7C7BEFFF7FEBFFFF7FEBFFFF7FEBF7E
:1030C000FFF7FEBFFFF7FEBFFFF7FEBFFFF7FEBF34
:1030D000FFF7FEBFFFF7FEBFFFF7FEBFFFF7FEBF24
:1030E000FFF7FEBFFFF7FEBFFFF7FEBFFFF7FEBF14
:1030F000FFF7FEBFFFF7FEBFFFF7FEBFFFF7FEBF04
:10310000FFF7FEBFFFF7FEBFFFF7FEBFFFF7FEBFF3
:10311000FFF76ABEFFF7FEBFFFF7FEBFFFF7FEBF78
:10312000FFF7FEBFFFF7FEBFFFF7FEBFFFF7FEBFD3
:10313000FFF7FEBFFFF7FEBFFFF7FEBFFFF7FEBFC3
:10314000FFF7FEBFFFF7FEBFFEF70BBAFFF7FEBFAC
:10315000FEF70CBAFFF7FEBFFFF7FEBFFFF7FEBF9B
:10316000FFF7FEBFFFF7FEBFFFF7FEBFFFF7FEBF93
:10317000FFF7FEBFFFF7FEBFFFF7FEBFFDF7F6BE8E
:10318000FFF7FEBFFFF7FEBFFFF7FEBFFFF7FEBF73
:10319000FFF7FEBFFFF7FEBFFFF7FEBFFFF7FEBF63
:1031A000FFF7FEBFFFF7FEBFFFF7FEBFFFF7FEBF53
:1031B000FFF7FEBFFFF7FEBFFFF7FEBFFFF7FEBF43
:1031C000FFF7FEBFFFF7FEBFFFF7FEBFFFF7FEBF33
:1031D000FFF7FEBFFFF7FEBFFFF7FEBFFFF7FEBF23
:1031E000FFF7FEBFFFF7FEBFFFF7FEBFFFF7FEBF13
:1031F000FFF7FEBFFFF7FEBFFFF7FEBF02040101AE
:103200007C130020CC1300207C1300207C130020B2
:103210007C1300203D00002024000020000000005E
:10322000000000000000000000000000000000009E
:10323000000000000000000000000000000000008E
:10324000010203040102030406070809007A030AC5
:040000050800306D52
:00000001FF
