:020000040800F2
:10000000185400209D0100085113000881070008C2
:100010004D1300086B040008F11E000800000000EA
:100020000000000000000000000000007117000840
:100030008905000800000000E1130008C11800084D
:10004000B7010008B7010008B7010008B7010008B0
:10005000B7010008B7010008B7010008B7010008A0
:10006000B7010008B7010008B7010008B701000890
:10007000B7010008B7010008B7010008B701000880
:10008000B7010008B7010008B7010008B701000870
:10009000B7010008B7010008B7010008A906000869
:1000A000B7010008B7010008B7010008B701000850
:1000B000B7010008B7010008B7010008B701000840
:1000C000B7010008B7010008B7010008B701000830
:1000D000B7010008411B0008B7010008511B0008C8
:1000E000B7010008B7010008B7010008B701000810
:1000F000B7010008B7010008B7010008B701000800
:10010000B7010008B7010008B5190008B7010008D9
:10011000B7010008B7010008B7010008B7010008DF
:10012000B7010008B7010008B7010008B7010008CF
:10013000B7010008B7010008B7010008B7010008BF
:10014000B7010008B7010008B7010008B7010008AF
:10015000B7010008B7010008B7010008B70100089F
:10016000B7010008B7010008B7010008B70100088F
:10017000B7010008B7010008B7010008B70100087F
:10018000B7010008B7010008DFF80CD000F06EF8E6
:1001900000480047BD2B000818540020064880473F
:1001A00006480047FEE7FEE7FEE7FEE7FEE7FEE75C
:1001B000FEE7FEE7FEE7FEE74D19000889010008AB
:1001C00040EA01039B0703D009E008C9121F08C0D9
:1001D000042AFAD203E011F8013B00F8013B521E59
:1001E000F9D27047D2B201E000F8012B491EFBD2D0
:1001F00070470022F6E710B513460A460446194632
:10020000FFF7F0FF204610BD2DE9F05F0546002006
:1002100092469B4688460646814640241BE0284677
:1002200041464746224600F042F853465A46C01A15
:10023000914110D311461846224600F029F82D1A94
:1002400067EB01084F4622460120002100F020F80C
:1002500017EB00094E41201EA4F10104DFDC4846E3
:1002600031462A464346BDE8F09F0000064C074D44
:1002700006E0E06840F0010394E807009847103476
:10028000AC42F6D3FFF784FFF42D0008142E0008CB
:10029000202A04DB203A00FA02F100207047914046
:1002A000C2F1200320FA03F3194390407047202A3B
:1002B00004DB203A21FA02F00021704721FA02F310
:1002C000D040C2F12002914008431946704721B145
:1002D000826842F00102826003E0826822F001023B
:1002E0008260704700210A4A11680A4A01EA020145
:1002F000D0E9002342EA0302836842EA0302C368AA
:1003000042EA030242EA0101034AC2F804137047B9
:1003100004230140E030FCFF0020014021B182684D
:1003200042F48072826003E0826822F4807282600C
:10033000704721B1826842F40072826003E08268F3
:1003400022F400728260704730B50246002000231C
:100350005068104C20400D790C6844EA0524204375
:10036000506090680C4C2040D1E903542C438D68B8
:100370002C434D7944EA450420439060D06A20F430
:1003800070000C7D641EE4B2234340EA0350D06247
:1003900030BD0000FFFEFFFCFDF7FFC0F0B50446D6
:1003A0000D4600200021092D11DDE068A5F10A06A7
:1003B00006EB4607072606FA07F18843A5F10A0669
:1003C00006EB460603FA06F10843E0600CE02069FC
:1003D00005EB4507072606FA07F1884305EB4506B6
:1003E00003FA06F108432061072A0FDA606B561EF4
:1003F00006EB86071F2606FA07F18843561E06EB12
:10040000860605FA06F10843606322E00D2A0FDA3A
:10041000206BD61F06EB86071F2606FA07F18843D6
:10042000D61F06EB860605FA06F10843206310E0A6
:10043000E06AA2F10D0606EB86071F2606FA07F111
:100440008843A2F10D0606EB860605FA06F108437D
:10045000E062F0BD816841F08041816070470146F3
:1004600048780A7840EA0220704700BFFEE70000A3
:1004700070B502460C46FF25FF2309E012F8010B78
:1004800080EA05010648405C80EA03050548435CB4
:100490002000A4F10106B4B2F0D143EA052070BDFA
:1004A000F42B0008F42C0008014609B90B487047EA
:1004B000012901D10020FAE7022901D10848F6E715
:1004C000032901D10020F2E7042901D10020EEE741
:1004D000052901D10020EAE70020E8E78402002096
:1004E000AC0A002008B525208DF8000000208DF80A
:1004F000020001208DF80300684600F02BFF272042
:100500008DF8000002208DF8020001208DF8030014
:10051000684600F01FFF08BD21B1026842F00102E9
:10052000026003E0026822F00102026070470000EE
:1005300010B500220268134B1A40CC680B682343A5
:100540004C6923438C692343CC6923430C6A2343BE
:100550004C6A23438C6A23434C6B23438C6B2343A9
:100560001A430260426922F00702D1E90B342343A7
:100570001A4342610B6943604B6883608B68C360B8
:1005800010BD00003F801CF07047000010B52AA08D
:1005900001F0B0FC29A001F0ADFC2948018829A098
:1005A00001F0A8FC25A001F0A5FC2548418828A061
:1005B00001F0A0FC21A001F09DFC2148818827A02A
:1005C00001F098FC1CA001F095FC1CA001F092FC2D
:1005D00025A001F08FFC002406E02848015D28A03A
:1005E00001F088FC601CC4B22448401E0078A04280
:1005F000F3DC11A001F07EFC10A001F07BFC22A036
:1006000001F078FC002407E01C481F30015D1CA0AD
:1006100001F070FC601CC4B21848401EC07FA042AC
:10062000F2DC05A001F066FC1CA001F063FC1D4893
:1006300000880349888010BD0A0D00001B5B4B0039
:100640009401002020503031203D2025640D0A0007
:1006500020503032203D2025640D0A0020413031E9
:10066000203D2025640D0A0020BDD3CAD5B5C4C3E2
:10067000FCC1EE203A20307800000000510000203C
:10068000202530325800000020B7A2CBCDB5C4C31E
:10069000FCC1EE203A203078000000001B5B37419F
:1006A00000000000240000207047F0B50A46002139
:1006B0000023002400BF3DE0012505FA01F3156881
:1006C00005EA03049C4234D105684F000326BE406E
:1006D000B543056015794E00B540066835430560A1
:1006E0001579012D02D01579022D16D185684F009C
:1006F0000326BE40B543856055794E00B5408668F7
:1007000035438560456801268E40B54345604568A0
:1007100096798E40B6B235434560C5684F000326D2
:10072000BE40B543C560D5794E00B540C668354377
:10073000C560491C1029BFD3F0BDF0B500230024CB
:100740004D07ED0E02FA05F3CE1000F1200555F825
:1007500026504E07F70E0F26BE40B543CF1000F1CE
:10076000200646F82750CE1000F1200555F82650F7
:1007700045EA0304CE1000F1200545F82640F0BDFF
:1007800008A100200AE00A5C114B9A8000BF104AC1
:10079000128812F0400FFAD0421CD0B22A28F2D3AD
:1007A00000BFFEE70D0A456E7465722048617264F1
:1007B0004661756C745F48616E646C65722C205381
:1007C000797374656D2048616C742E0D0A00000009
:1007D0000010014000B587B00121084600F0EEFE90
:1007E0000121102000F00AFF072209215448FFF7D9
:1007F000A4FF07220A215248FFF79FFF00208DF82F
:100800001A0001208DF81B0002208DF8180000024C
:10081000059002208DF8190005A94948FFF745FF0A
:1008200002208DF818004002059005A94448FFF702
:100830003CFF4FF4E13001900020ADF80800ADF826
:100840000A00ADF80C00ADF810000C20ADF80E0059
:1008500001A93C4801F0E8F9012240F2255139484C
:1008600001F0BDF90121374801F083F940213548F5
:1008700001F076F90121022000F0A0FE01208DF8A0
:10088000180000208DF81A008DF81B0003208DF849
:1008900019000420059005A92B48FFF706FF012148
:1008A000022000F08BFE0121880400F097FE072251
:1008B0000A212548FFF741FF07220B212248FFF7B5
:1008C0003CFF00208DF81A0001208DF81B0002204B
:1008D0008DF818004002059002208DF8190005A936
:1008E0001948FFF7E2FE02208DF8180080020590FB
:1008F00005A91548FFF7D9FE4FF4165001900020C6
:10090000ADF80800ADF80A00ADF80C00ADF8100025
:100910000C20ADF80E0001A90C4801F085F9012268
:1009200040F22551094801F05AF90121074801F028
:1009300020F94021054801F013F907B000BD00007F
:100940000000024000100140000402400048004046
:100950000448006910F4807F01D101207047002015
:10096000FCE700000020024010B5FFF7F1FF20B1C6
:1009700000F006F808B1012010BD0020FCE70000DF
:100980000448006810F4005F01D101207047002086
:10099000FCE70000100802400448006910F4006FF2
:1009A00001D1012070470020FCE700000020024038
:1009B0000448006810F0040F01D1012070470020A6
:1009C000FCE70000101C02400448006810F0080F0B
:1009D00001D1012070470020FCE70000101C0240FC
:1009E0000448006810F4006F01D101207047002016
:1009F000FCE70000101402400448006810F0800F6B
:100A000001D1012070470020FCE7000010180240CF
:100A10000448006810F4004F01D101207047002005
:100A2000FCE70000101C024010B5FFF791FF20B159
:100A3000FFF7A6FF08B1012010BD0020FCE7000071
:100A4000FEB50020524981F821000846807F082821
:100A500003D0032081F82100FEBD4D48801CFFF724
:100A6000FEFC07464A48001DFFF7F9FC0546E81D55
:100A7000C11700EB5171CE10B7F5807F35DD002D29
:100A800033DD7819B0F5837F2FDA002404E00020ED
:100A90000DF80400601C84B2B442F8DB002421E0AD
:100AA000611C3944491EC8B201F03AFFC0B1E217D7
:100AB00004EB5272D2101DF802202146E31704EB1A
:100AC0005373DB10A4EBC30C012303FA0CF31A439A
:100AD000D2B22046E31704EB5373DB100DF803206A
:100AE000601C84B2AC42DBDB03E00220284981F8C1
:100AF0002100274890F82100002841D1244981F89D
:100B0000A2000846017890F8A22090F8A200401CAC
:100B10001F4B83F8A20003F1220081542238417850
:100B200090F8A22090F8A200401C83F8A20003F1E4
:100B300022008154223890F8A22090F8A200401C94
:100B400083F8A20003F12200865400240FE01DF870
:100B500004100F4890F8A22090F8A200401C0C4B03
:100B600083F8A20003F122008154601C84B2B442D5
:100B7000EDDB074890F8A210223000F0A7FB04E05C
:100B8000034991F8210000F079FB00BF64E7000001
:100B9000F0000020FEB50020514981F821000846F0
:100BA000807F082803D0032081F82100FEBD4C4837
:100BB000801CFFF754FC06464948001DFFF74FFC18
:100BC0000546E81DC11700EB5171CF10B6F5007F47
:100BD00034DD002D32DD7019B0F5017F2EDC0024EC
:100BE00004E000200DF80400601C84B2BC42F8DB75
:100BF000002420E0711E2144C8B201F03DFCC0B1C8
:100C0000E21704EB5272D2101DF802202146E317BE
:100C100004EB5373DB10A4EBC30C012303FA0CF3B6
:100C20001A43D2B22046E31704EB5373DB100DF8DE
:100C30000320601C84B2AC42DCDB03E002202849C4
:100C400081F82100264890F82100002841D124494C
:100C500081F8A2000846017890F8A22090F8A2003E
:100C6000401C1F4B83F8A20003F12200815422385C
:100C7000417890F8A22090F8A200401C83F8A200CE
:100C800003F122008154223890F8A22090F8A200AB
:100C9000401C83F8A20003F12200875400240FE0D7
:100CA0001DF804100E4890F8A22090F8A200401CF5
:100CB0000B4B83F8A20003F122008154601C84B224
:100CC000BC42EDDB064890F8A210223000F0FEFA9C
:100CD00004E0034991F8210000F0D0FA00BF65E775
:100CE000F000002070B590B00020494981F8210043
:100CF0000846807F082803D0032081F8210027E0E0
:100D00004348801CFFF7ABFB06464148001DFFF738
:100D1000A6FB0546202D04D903203D4981F821007A
:100D200016E0002410E06846022202FB040130466F
:100D300000F064FA20B90220354981F8210005E06D
:100D4000701C86B2601C84B2AC42ECDB00BF00BFFA
:100D50002F4890F82100002852D12D4981F8A20097
:100D60000846017890F8A22090F8A200401C284B79
:100D700083F8A20003F1220081542238417890F8D0
:100D8000A22090F8A200401C83F8A20003F12200E8
:100D900081546806010E184690F8A22090F8A2002F
:100DA000401C83F8A20003F12200815400241EE0BD
:100DB0001DF81410164890F8A22090F8A200401CCC
:100DC000134B83F8A20003F1220081546000401C01
:100DD0001DF80010184690F8A22090F8A200401CC0
:100DE00083F8A20003F122008154601C84B2AC425B
:100DF000DEDB074890F8A210223000F067FA04E02A
:100E0000034991F8210000F039FA10B070BD0000DC
:100E1000F000002070B586B00A2101A8FFF7E9F9BB
:100E200000204E4981F821000846807F082803D021
:100E3000032081F8210031E04848801CFFF70FFBB8
:100E400006464648001DFFF70AFB0546B6F5806FCB
:100E50001FDD002D1DDD701940F20241884218DCB3
:100E6000002413E0A6F58060013805D13C48808855
:100E700001A921F8140004E0002001A921F81400C0
:100E800000BF00BF701C86B2601C84B2AC42E9DBBC
:100E900003E00220314981F8210000BF2F4890F87B
:100EA0002100002853D12D4981F8A200084601787D
:100EB00090F8A22090F8A200401C284B83F8A200D2
:100EC00003F1220081542238417890F8A22090F852
:100ED000A200401C83F8A20003F12200815468069E
:100EE000010E184690F8A22090F8A200401C83F84A
:100EF000A20003F12200815400241FE001A830F871
:100F000014000112154890F8A22090F8A200401C8D
:100F1000124B83F8A20003F12200815401A810F8BB
:100F20001410184690F8A22090F8A200401C83F8F4
:100F3000A20003F122008154601C84B2AC42DDDBCC
:100F4000064890F8A210223000F0C0F904E00349EE
:100F500091F8210000F092F906B070BDF000002079
:100F60009401002070B50020244981F82100084632
:100F7000807F082803D0032081F8210030E01F483B
:100F8000801CFFF76CFA05461C48001DFFF767FA46
:100F9000044634B1012C04D00320184981F8210003
:100FA0001EE0A5F58070013802D11548C48016E016
:100FB000B5F5817F02D11248048110E0A5F580705B
:100FC000033802D10E48448109E0B5F5827F02D191
:100FD0000B48848103E00220084981F8210000BF0A
:100FE000064890F8210010B900F05EF904E00349CA
:100FF00091F8210000F042F970BD0000F0000020DF
:101000009401002070B50020164981F8210008469F
:10101000807F082803D0032081F8210014E01148C4
:10102000801CFFF71CFA05460E48001DFFF717FA53
:1010300004462146284600F073F9012803D0022017
:10104000084981F8210000BF064890F8210010B936
:1010500000F02AF904E0034991F8210000F00EF9AC
:1010600070BD0000F00000202DE9F0410020204973
:1010700081F821000846807F0B2803DA032081F8DD
:10108000210026E01A48801CFFF7E9F906461848B7
:10109000001DFFF7E4F9054615488779002414E0A0
:1010A0006100C91D124A8818FFF7D9F98046311925
:1010B00088B2414600F034F9012804D002200C49DE
:1010C00081F8210003E0601CC4B2AC42E8DB00BF41
:1010D00000BF074890F8210010B900F0E5F804E0DF
:1010E000034991F8210000F0C9F8BDE8F081000043
:1010F000F000002010B527484078042823D006DCF3
:1011000001280BD0022810D0032838D114E005287C
:1011100020D0062825D0102831D129E0FFF790FCF7
:101120000021012001F08EFC32E0FFF733FD0021A9
:10113000022001F087FC2BE0FFF7D4FD0021032003
:1011400001F080FC24E0FFF765FE0021042001F09F
:1011500079FC1DE0FFF706FF0021052001F072FC7D
:1011600016E0FFF74FFF0021062001F06BFC0FE0B7
:10117000FFF77AFF0021072001F064FC08E001205E
:10118000044981F8210091F8210000F077F800BFB0
:1011900000BF10BDF000002070B51548007800B900
:1011A00070BD0020124908701248807F042800DAC0
:1011B0000EE01048817FFFF75BF9044604B107E0B9
:1011C0000C480578012D00D002E0FFF793FF00BF27
:1011D0000848807F084908700648827F0146064813
:1011E000401CFEF7EDFF00200249887700BFD7E7DB
:1011F00000000020F00000205000002003460A46B6
:10120000A3F54070013802D0012806D102E007485A
:10121000018804E00548418801E00020704700BFD4
:101220000812107051700120F8E7000094010020AE
:1012300070B5044600200B49087040F63D650A4A27
:101240002946012001F02EFC0848807F1E2807DA7D
:101250000648817F807F401C044A907710464454A2
:1012600070BD00000000002071120008F000002096
:1012700001200149087070470000002038B504467D
:10128000084800788DF800000648407840F080005B
:101290008DF801008DF802400321684600F016F831
:1012A00038BD0000F00000201CB5002405E0064811
:1012B000005D0DF80400601CC4B2062CF7DB0621AB
:1012C000684600F003F81CBDF000002070B5A0B027
:1012D00005460C46224629466846FEF771FF214620
:1012E0002846FFF7C5F8064632122046611CCCB2EC
:1012F0000DF80020F2B22046611CCCB20DF800209F
:101300002146684600F024FA0448C477224669461C
:101310002030FEF755FF20B070BD000050000020C7
:101320000246A2F54070013802D0012806D102E041
:101330000548018004E00448418001E00020704736
:1013400000BF0120FBE700009401002000BFFEE782
:101350007047000070B5002100230F22C47824B329
:10136000174C246804F4E064C4F5E064C4F3072176
:10137000C1F10404E3B20A4144789C40E1B28478AC
:10138000144021430C07210E0E4C0578615504785A
:1013900004F01F050124AC4005786D114FF0E026E4
:1013A00006EB8505C5F8004109E0047804F01F0448
:1013B0000125A540044C0678761144F8265070BDEE
:1013C0000CED00E000E400E080E100E002490143B0
:1013D000024A1160704700000000FA050CED00E0C1
:1013E0007047000010B517A000F084FD16A000F0B3
:1013F00081FD25A12AA000F07DFD2EA12EA000F0E8
:1014000079FD32A134A000F075FD002303220121F3
:1014100036A000F06FFD43A000F06CFD43A000F08B
:1014200069FD48A000F066FD4BA000F063FD51A0EF
:1014300000F060FD57A000F05DFD03A000F05AFD34
:1014400010BD00000A0D00002A2A2A2A2A2A2A2A68
:101450002A2A2A2A2A2A2A2A2A2A2A2A2A2A2A2AEC
:101460002A2A2A2A2A2A2A2A2A2A2A2A2A2A2A2ADC
:101470002A2A2A2A2A2A2A2A2A2A2A2A2A2A2A2ACC
:101480002A2A2A2A2A0A0D0056352D525334383575
:10149000204D4F44425553B4D3D5BEC0FDB3CC000C
:1014A0002A20C0FDB3CCC3FBB3C62020203A2025A0
:1014B000730D0A00312E34002A20C0FDB3CCB0E6F3
:1014C000B1BE2020203A2025730D0A00323031357C
:1014D0002D31312D323800002A20B7A2B2BCC8D538
:1014E000C6DA2020203A2025730D0A002A20B9CC24
:1014F000BCFEBFE2B0E6B1BE203A205625642E25E0
:10150000642E2564202853544D3332463478785F56
:101510005374645065726970685F4472697665726D
:10152000290D0A002A200D0A000000002A2051512E
:10153000202020203A2031323935373434363330C8
:10154000200D0A002A20CDFACDFA20203A2061721F
:101550006D666C790D0A00002A20456D61696C206A
:101560003A2061726D666C794071712E636F6D20E7
:101570000D0A00002A20CCD4B1A6B5EA3A20617247
:101580006D666C792E74616F62616F2E636F6D0D85
:101590000A0000002A20436F70797269676874201E
:1015A0007777772E61726D666C792E636F6D20B0E0
:1015B000B2B8BBC0B3B5E7D7D30D0A0029B1064A0C
:1015C00012680243044B1A6004E0034A1268824323
:1015D000014B1A60704700003038024029B1064ABA
:1015E00012680243044B1A6004E0034A1268824303
:1015F000014B1A60704700004038024029B1064A8A
:1016000012680243044B1A6004E0034A12688243E2
:10161000014B1A607047000044380240F0B50021C9
:1016200000220024022500260223324F3F6807F0E3
:101630000C0121B1042905D0082937D105E02E4F2E
:10164000076036E02D4F076033E02A4F3F1F3F68A9
:10165000C7F38056274F3F1F3F6807F03F036EB127
:10166000264FB7FBF3F7DFF88CC0ACF1040CDCF8C5
:1016700000C0CCF3881C07FB0CF40CE01E4FB7FB3A
:10168000F3F7DFF870C0ACF1040CDCF800C0CCF369
:10169000881C07FB0CF4174F3F1F3F68C7F3014737
:1016A0007F1C7D00B4FBF5F7076002E0124F076076
:1016B00000BF00BF0F4F3F6807F0F0010909104F4E
:1016C0007A5C0768D74047600A4F3F6807F4E051EB
:1016D000890A0B4F7A5C4768D7408760054F3F689F
:1016E00007F46041490B064F7A5C4768D740C760F2
:1016F000F0BD0000083802400024F40040787D016D
:10170000260000201CB501210220FFF757FF012011
:101710008DF8040000208DF806008DF807000320E6
:101720008DF805000420009069460248FEF7BDFFD1
:101730001CBD00000004024010B504462046FFF71F
:1017400077FD10BD0420014908807047180402404D
:1017500070B504460D462A462146022001F006FADD
:1017600070BD000004200149088070471A0402403F
:101770007047000010B51648C088012802D101F05A
:1017800031F902E0012001F00DF91148008901282A
:1017900003D1022001F026F902E0022001F002F953
:1017A0000B484089012803D1032001F01BF902E016
:1017B000032001F0F7F806488089012803D10420AE
:1017C00001F010F902E0042001F0ECF810BD000077
:1017D000940100200CB5002001900090344800686E
:1017E00040F480303249086000BF3148006800F49E
:1017F000003000900198401C0190009818B90198A1
:10180000B0F5A04FF1D12A48006810F4003F02D093
:101810000120009001E0002000900098012845D1AF
:1018200023484030006840F0805021494031086032
:101830002048006840F440401E4908601C480830B9
:1018400000681B49083108600846006840F4004001
:1018500008600846006840F4A05008601648091F58
:101860000860081F006840F08070091F086000BF12
:101870000F48006810F0007FFAD040F205700F4961
:1018800008600B480830006820F003000849083160
:1018900008600846006840F00200086000BF044885
:1018A0000830006800F00C000828F8D10CBD0000DA
:1018B000003802400070004019544007003C0240CC
:1018C00010B500F001F810BD10B51B48006840B11C
:1018D00019480068401E1849086002D101201749C4
:1018E0000870002408E004EB4401154A02EB810073
:1018F00001F0C9F8601CC4B2042CF4DB1148006884
:10190000401C10490860084600686FF0004188429A
:1019100002D100200B49086001F0B4F80A480078B1
:10192000401CC0B2084908700A2803DB0020087078
:1019300001F0A4F810BD0000040000200800002001
:10194000540200200C0000201000002010B51548A3
:10195000006840F47000134908601348006840F0C4
:1019600001001149086000200F49083108600E4845
:1019700000680E4908400C4908600D48091D0860C0
:10198000081F006820F48020091F08600020064915
:101990000C310860FFF71EFF4FF0006001498039ED
:1019A000086010BD88ED00E000380240FFFFF6FE41
:1019B0001030002410B50221214800F05DF858B124
:1019C00002211F4800F046F8002202211C4800F0C6
:1019D00064F81C48006880470421194800F04CF85E
:1019E00058B10421164800F035F8002204211448AB
:1019F00000F053F81448006880470821104800F0B0
:101A00003BF858B108210E4800F024F800220821C4
:101A10000B4800F042F80D48006880471021084844
:101A200000F02AF858B11021054800F013F8002200
:101A30001021034800F031F805480068804710BDC8
:101A4000000C004014000020180000201C000020A2
:101A500020000020CA430282704721B1028842F070
:101A60000102028004E002884FF6FE731A400280F1
:101A700070470146486A704730B50246002000238F
:101A80000024158A05EA0103958905EA010413B1CA
:101A90000CB1012000E0002030BD1AB183890B4356
:101AA000838102E083898B43838170474163704760
:101AB00081637047C16370470164704700220288E8
:101AC000184B98420ED0184B98420BD0B0F1804F73
:101AD00008D0164B984205D0154B984202D0154BB2
:101AE000984204D14FF68F731A404B881A43124B19
:101AF000984207D0114B984204D04FF6FF431A404A
:101B00000B891A4302804B68C3620B880385054B1F
:101B1000984202D0044B984201D18B7A038601236C
:101B2000838270470000014000040140000400402F
:101B300000080040000C004000100040001400406D
:101B400010B5024800F0E3F810BD00008402002048
:101B500010B5024800F0DBF810BD0000AC0A002010
:101B600001F40072B2F5007F00D100BFCA430280C9
:101B7000704721B1828942F40052828104E0828957
:101B80004DF6FF731A408281704770B502460024FB
:101B9000002300250020A1F510666A3E00D100BF99
:101BA000C1F3421501F01F03012606FA03F3012DCC
:101BB00002D19689334006E0022D02D1168A3340C5
:101BC00001E0968A33400C12012606FA04F41688C6
:101BD000344013B10CB1012000E0002070BDF0B51D
:101BE00003460024002600250020A1F510676A3F67
:101BF00000D100BF1846C1F3421401F01F060127AF
:101C000007FA06F5012C01D10C3004E0022C01D1B9
:101C1000103000E014301AB107682F43076002E06B
:101C20000768AF430760F0BD2DE9FF4705460E4644
:101C30000024A14600BFA046B08900B100BF2C8A95
:101C400024F44054F08804432C82AC8941F20C60A7
:101C50008443B08831890843718908430443AC81C7
:101C6000AC8A24F44074B0890443AC826846FFF720
:101C7000D5FC2048854202D01F48854202D1DDF8BC
:101C80000C9001E0DDF80890A88910F4004F08D00E
:101C900009EBC90000EB091031684900B0FBF1F70E
:101CA00007E009EBC90000EB091031688900B0FBBF
:101CB000F1F76420B7FBF0F004012009642101FB77
:101CC0001078A88910F4004F08D0322000EBC8002B
:101CD000B0FBF1F000F00700044308E0322000EB15
:101CE00008106421B0FBF1F000F00F0004432C81D8
:101CF000BDE8FF87001001400014014001468888BC
:101D0000C0F308007047C1F308028280704770B5C5
:101D1000044640F225512068FFF737FFE0B1206804
:101D2000FFF7ECFFC5B2E18AA0684554E08A401C89
:101D300080B2E082E189884201DB0020E082608B92
:101D4000E189884202DA608B401C6083606A10B1CE
:101D50002846616A884700BF40F227712068FFF774
:101D600014FF08B3A08A60B9002240F227712068EE
:101D7000FFF735FF012240F226612068FFF72FFFB1
:101D800037E0638A6268D15C2068FFF7BCFF608A35
:101D9000401C80B26082A189884201DB0020608201
:101DA000A08A401EA08224E040F226612068FFF74E
:101DB000ECFEF0B1A08A50B9002240F22661206802
:101DC000FFF70DFF206AA0B1206A804711E0638A07
:101DD0006268D15C2068FFF796FF608A401C80B281
:101DE0006082A189884201DB00206082A08A401EB7
:101DF000A08270BDF8B504460E461746002529E0BE
:101E00000EE0012000F095F8A08A0090002000F07C
:101E100090F8A089BDF80010884200DD01E000BF05
:101E2000EFE700BF705D228A61688854012000F0EE
:101E300080F8208A401C80B22082A189884201DB80
:101E400000202082A08A401CA082002000F071F8AF
:101E5000681C85B2BD42D3DB012240F227712068A5
:101E6000FFF7BDFEF8BD0000164817490860174887
:101E70004860174888604FF480608881C8810020DE
:101E800008824882C882088348838882C8610862C1
:101E9000486210481049086010484860104888603F
:101EA0004FF480608881C881002008824882C882FF
:101EB0000883488388820B48C8610B4808620B4836
:101EC000486270470010014084020020AC020020EC
:101ED000AC06002000480040AC0A0020D40A0020D4
:101EE000D40E0020451700086517000839170008B0
:101EF00000BFFEE70FB4054B10B503A9044A0298D2
:101F000000F01AF810BC5DF814FB0000AB2B0008C1
:101F10004C00002002E008C8121F08C1002AFAD1B4
:101F200070477047002001E001C1121F002AFBD159
:101F3000704780F3108870472DE9FF4F8DB00F4632
:101F400005460026DEE1252874D100246D1CF149E8
:101F5000A246A14601222B78203B02FA03F0084258
:101F600002D004436D1CF6E728782A2810D06FF0C1
:101F70002F022878A0F13001092915D80AEB8A012F
:101F800002EB410144F0020400EB010A6D1CF0E792
:101F900057F804ABBAF1000F03DA44F40054CAF165
:101FA000000A44F002046D1C28782E2817D115F879
:101FB000010F44F004042A280ED06FF02F02287875
:101FC000A0F1300109290AD809EB890102EB41018E
:101FD00000EB01096D1CF2E757F8049B6D1C287893
:101FE0006C280FD006DC4C2817D068280DD06A2842
:101FF00014D104E0742810D07A280FD10DE044F4F5
:1020000000140AE044F4801401E044F440146978B8
:10201000814202D16D1C04F580146D1C2A786E2A51
:1020200020D00DDC632A33D005DC002A6FD0582A7B
:1020300012D1A2E011E0642A6AD0692A0CD167E0CB
:10204000732A2FD004DC6F2A6FD0702A04D199E054
:10205000752A6BD0782A6AD01046DDE90F129047B6
:10206000761C4EE1C4F30250022806D003280AD0A1
:10207000042801CF0AD0066043E101CF4FEAE671A0
:10208000C0E900613DE101CF06803AE1067038E128
:1020900017F8040B8DF8000000208DF80100EB46C6
:1020A000012003E057F804BB4FF0FF3061074FF009
:1020B000000102D40DE008F10101884649450FDA1C
:1020C0008045F8DB1BF808100029F4D108E008F17E
:1020D000010188468142FADB1BF808100029F6D17D
:1020E000DDE90F23AAEB08008146214600F03BF909
:1020F000304400EB080604E0DDE90F121BF8010B89
:102100009047B8F10108F7D221464846F4E0FDE0D7
:102110000A21C4F302534FF0000B0891022B07D0A1
:1021200001CFC117032B09D00AE034E023E024E0FB
:10213000FF1D27F00707F7E8020105E000B2C1170D
:10214000042B01D140B2C117002907DA4FF0000C6F
:10215000D0EB0C006CEB01012D2302E0230504D52C
:102160002B238DF82430012303E0E30701D0202343
:10217000F7E7984650E00A210EE010204FF0000BE0
:1021800008900CE010214FF0000B44F004044FF0D5
:102190000809089103E008214FF0000B0891C4F3EF
:1021A0000253022B04D001CF0021032B06D006E0FE
:1021B000FF1D27F00707F7E8020103E080B2042BB8
:1021C00000D1C0B24FF00008230725D5702A2AD0CD
:1021D000DDF820C08CF0100C5CEA0B0C09D150EA41
:1021E000010306D030238DF824308DF825200223FA
:1021F0009846DDF820C08CF0080C5CEA0B0C0BD183
:1022000050EA010301D1630706D530238DF824304D
:102210004FF00108A9F10109582A09D03EA20B92FA
:1022200008AA0A9211E040238DF824300123DFE749
:102230003EA2F4E75B46089AFDF7E6FF0B9B9B5C2A
:102240000A9AA2F101020A92137050EA0102F1D136
:102250000A98ADEB000000F1200B600702D524F4D2
:10226000803401E04FF00109D94502DDA9EB0B00F4
:1022700000E0002000EB0B0141440890AAEB010AAA
:10228000E00306D4DDE90F232146504600F06BF849
:102290000644002008E009A911F80900DDE90F1241
:1022A0009047761C09F1010081464045F3DBE003CD
:1022B0000CD5DDE90F232146504600F054F80644C2
:1022C00004E0DDE90F1230209047761C0899481E83
:1022D00008900029F5DC08E00A980A990078491C62
:1022E0000A91DDE90F129047761CBBF10001ABF1BA
:1022F000010BF1DC21465046DDE90F2300F020F808
:1023000006446D1C287800287FF41DAE11B03046BD
:10231000BDE8F08F092801003031323334353637CB
:102320003839616263646566000000003031323321
:1023300034353637383941424344454600000000C1
:102340002DE9F041044600251E461746880405D4B1
:1023500006E039462020B04705F10105641EF8D596
:102360002846BDE8F0812DE9F041044600251E46CF
:102370009046C80301D5302700E02027880405D502
:1023800006E041463846B04705F10105641EF8D520
:102390002846BDE8F0810000034890F84101024959
:1023A00081F8400170470000D412002070B5054646
:1023B000304800EB05142068804700283ED0207983
:1023C000052802DA0520207152E020790A2803DA74
:1023D0002079401C20714BE0A07A38B90120A0720E
:1023E00005EB4501491CC8B200F01CFB2089002800
:1023F0003EDDE088218988420DDAE088401C80B209
:10240000E0802189884233D105EB4501C91CC8B25F
:1024100000F008FB2CE0E07A002829DD207B401C3E
:10242000C0B22073E17A884222DB0020207305EBE2
:102430004501491CC8B200F0F5FA19E020790528D9
:1024400002DD0520207110E0207918B12079401EAE
:1024500020710AE0A07A012807D10020A07205EBC4
:102460004501891CC8B200F0DDFA0020E08020732D
:1024700070BD0000A40100200146024800EB0110DD
:10248000807A7047A40100200146114890F840016D
:102490000F4B93F84131984201D1002070470C480E
:1024A00090F840010A4B03EBC002184690F8400137
:1024B000401CC0B283F84001282802DB002083F8CA
:1024C000400110880880506848600120E6E700005D
:1024D000D412002010B5FEF75FFE10BD10B54FF40A
:1024E0004070FEF773FF00F0C3F900F00FFA00F040
:1024F000BDF800F07BF900F0B7F900F001F810BD6D
:1025000000B59BB001218805FFF758F80121202074
:10251000FFF754F801218802FFF770F84FF0806050
:102520000290344803903448049000200590012024
:102530000690002007904FF48060089040000990BA
:1025400080000A9040110B9040020C9000200D90EA
:1025500001200E9000200F90109002A92748FDF74F
:10256000E7FF01212548FDF7D7FF4FF400700090E9
:1025700003208DF8040000208DF8070069462048EC
:10258000FEF793F80020119012901390149011A868
:10259000FDF7A8FE002015908DF8580001208DF859
:1025A0005900002017901890199001208DF86800AC
:1025B00015A910484C38FDF7C7FE0023012207215A
:1025C0000C484C38FDF7EAFE01210A484C38FDF76B
:1025D000B0FE012107484C38FDF7A0FE0121054857
:1025E0004C38FDF774FE03484C38FDF733FF1BB041
:1025F00000BD00004C220140240000201064024075
:10260000001402407FB501210820FEF7E7FF1448BF
:10261000006846081348B6FBF0F085B24FF0FF346F
:102620000294ADF804500020ADF80C00ADF806009F
:1026300001A90D48FFF742FA01210B48FFF70DFAF7
:1026400032208DF8000004208DF8010000208DF864
:10265000020001208DF803006846FEF77BFE7FBD77
:102660003800002040420F00000C004010B500F080
:1026700053F800F001F810BD1CB501214FF4F270C1
:10268000FEF79CFF00208DF804008DF806008DF801
:10269000070002208DF80500C00100906946194826
:1026A000FEF703F84FF40050009069461648FDF716
:1026B000FCFF4FF40060009069461248FDF7F5FFFB
:1026C0000420009069461148FDF7EFFF08200090B4
:1026D00069460E48FDF7E9FF4FF400600090694637
:1026E0000B48FDF7E2FF8020009069460948FDF79E
:1026F000DCFF4FF40040009069460448FDF7D5FF29
:102700001CBD00000020024000080240001C0240E6
:1027100000140240001802400021284A9172D17230
:102720001173002018E06421254A02EB0012118188
:102730000221234A02EB001211710021204A02EB10
:10274000001291721E4A02EB0012D1721C4A02EB77
:1027500000121173411CC8B20A28E4DB6422184934
:102760000A87052281F83B206422A1F8482005222F
:1027700081F84B206422A1F85820052281F85B20C3
:102780006422A1F86820052281F86B200D490C4ACB
:1027900011600D4911610D4911620D4911630D4917
:1027A00011640D4911650D4911660D4911670D49F7
:1027B000C2F880100C49C2F8901070474402002003
:1027C000A4010020510900088109000899090008A6
:1027D000B1090008C9090008E1090008F909000861
:1027E000110A0008290A0008690900081CB501211E
:1027F0004FF49270FEF7E2FE012000F0D3F80220C1
:1028000000F0D0F8032000F0CDF8042000F0CAF862
:1028100001208DF8040000208DF806008DF80700D7
:1028200003208DF805004FF48060009069460B4846
:10283000FDF73BFF8020009069460948FDF735FF12
:102840004FF48070009069460548FDF72EFF042084
:10285000009069460348FDF728FF1CBD0020024098
:10286000001402400008024000B5FFF795FD00BDCE
:1028700070B5002416E0002004EB44011F4A02EB6F
:102880008101486004EB440102EB8101886004EBA4
:10289000440102EB8101487004EB440102F821007D
:1028A000601CC4B2042CE6DB154800684FF47A7251
:1028B000B0FBF2F1481EB0F1807F00D31BE0481E50
:1028C0004FF0E022506150170F22002807DA13075B
:1028D0001E0E0C4B00F00F052D1F5E5503E0130775
:1028E0001D0E094B1D5400BF00204FF0E0229061E7
:1028F0000720106100BFFFF785FE70BD5402002065
:102900003800002018ED00E000E400E010B5FFF70B
:10291000ABFAFDF75FFFFEF7F5FEFDF7E3FD10BD37
:102920000146012908D11648406910F4806F01D191
:10293000012070470020FCE7022908D111480068F7
:1029400010F0800F01D10120F3E70020F1E7032907
:1029500008D10C48006810F4807F01D10120E8E71D
:102960000020E6E7042908D10748006810F0040FAA
:1029700001D10120DDE70020DBE70020D9E70000DE
:1029800000200240141402401408024010B5002434
:1029900004E02046FFF70AFD601CC4B20A2CF8DBF5
:1029A00010BD0000411EC8B220B94FF480610A4A30
:1029B000118310E0012803D18021084A11800AE028
:1029C000022803D1C101054A118004E0032802D185
:1029D0000421034A1180704700200240181402406D
:1029E00018080240411EC8B220B94FF480610A4A5B
:1029F000518310E0012803D18021084A11800AE0A8
:102A0000022803D1C101054A118004E0032802D144
:102A10000421034A11807047002002401A1402402A
:102A20001A0802400649C97A054A50541146C97A23
:102A3000491CC9B2D1720A2901DB0021D172704749
:102A4000440200200C4A92F841210B4B23F832003B
:102A50001A4692F8412103EBC20251601A4692F8DD
:102A60004121521CD2B283F84121282A02DB0022E4
:102A700083F8412170470000D412002010B5FFF701
:102A800085FF10BD7047416851B14168491E4160E2
:102A900006D1012141700178012901D1816841608D
:102AA000704700002DE9F04104460E461546052EFC
:102AB00000D3761F2848FEF7DCFF074607EB060821
:102AC000012C0FD12548056041462348FEF7EEFF53
:102AD00002212148FEF7BEFF012202211E48FEF717
:102AE000DCFF37E0022C0FD11D48056041461A4833
:102AF000FEF7DEFF04211848FEF7ACFF0122042197
:102B00001548FEF7CAFF25E0032C0FD115480560D4
:102B100041461148FEF7CEFF08210F48FEF79AFF05
:102B2000012208210C48FEF7B8FF13E0042C0FD156
:102B30000D48056041460848FEF7BEFF10210648D3
:102B4000FEF788FF012210210348FEF7A6FF01E0EF
:102B5000BDE8F08100BFFBE7000C0040140000203E
:102B6000180000201C000020200000202DE9F0416A
:102B700005460E4617462846FDF796FC04460CB956
:102B8000BDE8F081E06908B1E06980473A46314626
:102B90002046FFF72FF900BFF2E713B504460122E4
:102BA00001A92046FFF7E2FF1CBD70B504460D46A3
:102BB000E1B20020FFF7F1FF204670BD1CB5FFF722
:102BC0008DFCFEF70FFCFDF7E1FC12E0FFF782FC45
:102BD0006846FFF759FC60B1BDF80000052804D134
:102BE000FDF7D4FCFEF7C6FD02E0FDF7CFFC00BF09
:102BF00000BFEBE700C1814001C0804101C08041BE
:102C000000C1814001C0804100C1814000C18140BC
:102C100001C0804101C0804100C1814000C18140AC
:102C200001C0804100C1814001C0804101C080419C
:102C300000C1814001C0804100C1814000C181408C
:102C400001C0804100C1814001C0804101C080417C
:102C500000C1814000C1814001C0804101C080416C
:102C600000C1814001C0804100C1814000C181405C
:102C700001C0804101C0804100C1814000C181404C
:102C800001C0804100C1814001C0804101C080413C
:102C900000C1814000C1814001C0804101C080412C
:102CA00000C1814001C0804100C1814000C181401C
:102CB00001C0804100C1814001C0804101C080410C
:102CC00000C1814001C0804100C1814000C18140FC
:102CD00001C0804101C0804100C1814000C18140EC
:102CE00001C0804100C1814001C0804101C08041DC
:102CF00000C1814000C0C101C30302C2C60607C7AC
:102D000005C5C404CC0C0DCD0FCFCE0E0ACACB0B1B
:102D1000C90908C8D81819D91BDBDA1A1EDEDF1F4B
:102D2000DD1D1CDC14D4D515D71716D6D21213D33B
:102D300011D1D010F03031F133F3F23236F6F737EB
:102D4000F53534F43CFCFD3DFF3F3EFEFA3A3BFBDB
:102D500039F9F83828E8E929EB2B2AEAEE2E2FEF8B
:102D60002DEDEC2CE42425E527E7E62622E2E323FB
:102D7000E12120E0A06061A163A3A26266A6A7672B
:102D8000A56564A46CACAD6DAF6F6EAEAA6A6BAB9B
:102D900069A9A86878B8B979BB7B7ABABE7E7FBFCB
:102DA0007DBDBC7CB47475B577B7B67672B2B373BB
:102DB000B17170B05090915193535292965657976B
:102DC000559594549C5C5D9D5F9F9E5E5A9A9B5B5B
:102DD00099595898884849894B8B8A4A4E8E8F4F0B
:102DE0008D4D4C8C4484854587474686824243837B
:102DF00041818040142E0008000000205000000097
:102E0000141F0008642E000850000020C853000062
:102E1000241F000800000000000000000000000067
:102E200000000000000000000000000000000000A2
:102E3000000000000000000000000000000001028F
:102E4000030401020304060708090000007A030ACC
:102E5000000000000000000001020304060708094A
:042E6000000000006E
:040000050800018965
:00000001FF
